:020000040800F2
:1030000000500020055C0008B55C00082195000810
:10301000B55C0008B55C0008B55C00080000000065
:10302000000000000000000000000000490C010842
:10303000B55C000800000000E50C01086DD8000830
:10304000B55C0008B55C0008B55C0008B55C00081C
:10305000B55C0008B55C0008B55C0008B55C00080C
:10306000B55C0008B55C0008B55C0008B55C0008FC
:10307000B55C0008B55C0008ADE10008B55C00086F
:10308000B55C0008B55C0008B55C0008B55C0008DC
:103090005B1B0108B55C0008B55C0008B55C000866
:1030A000B55C0008B55C0008B55C0008855B0008ED
:1030B000915B0008995B0008A55B0008DDD400085F
:1030C0005DD80008E1D4000859D80008B55C0008B4
:1030D000B55C0008E1E100081DE20008B55C0008ED
:1030E000DD450008B55C00085F1B0108000000001A
:1030F00000000000000000000000000000000000D0
:0C31000000000000000000005FF808F173
:1031100010B5054C237833B9044810B10448AFF317
:1031200000800121217010BDA406002000000000D5
:103130005C81010808B5064B1BB106480649AFF390
:1031400000800648016811B1054A02B1904708BDE8
:10315000000000005C810108A8060020A4060020F1
:103160000000000081F0004102E000BF83F0004356
:1031700030B54FEA41044FEA430594EA050F08BF12
:1031800090EA020F1FBF54EA000C55EA020C7FEAD6
:10319000645C7FEA655C00F0E2804FEA5454D4EB53
:1031A0005555B8BF6D420CDD2C4480EA020281EA1D
:1031B000030382EA000083EA010180EA020281EA55
:1031C0000303362D88BF30BD11F0004F4FEA0131A7
:1031D0004FF4801C4CEA113102D0404261EB4101B6
:1031E00013F0004F4FEA03334CEA133302D052423C
:1031F00063EB430394EA050F00F0A780A4F10104F8
:10320000D5F1200E0DDB02FA0EFC22FA05F2801831
:1032100041F1000103FA0EF2801843FA05F3594117
:103220000EE0A5F120050EF1200E012A03FA0EFC96
:1032300028BF4CF0020C43FA05F3C01851EBE371C0
:1032400001F0004507D54FF0000EDCF1000C7EEBDD
:1032500000006EEB0101B1F5801F1BD3B1F5001F1B
:103260000CD349085FEA30004FEA3C0C04F101043A
:103270004FEA445212F5800F80F09A80BCF1004F63
:1032800008BF5FEA500C50F1000041EB045141EAE5
:10329000050130BD5FEA4C0C404141EB010111F4E6
:1032A000801FA4F10104E9D191F0000F04BF014691
:1032B0000020B1FA81F308BF2033A3F10B03B3F16F
:1032C00020020CDA0C3208DD02F1140CC2F10C02FF
:1032D00001FA0CF021FA02F10CE002F11402D8BF5D
:1032E000C2F1200C01FA02F120FA0CFCDCBF41EA29
:1032F0000C019040E41AA2BF01EB0451294330BDF8
:103300006FEA04041F3C1CDA0C340EDC04F11404D4
:10331000C4F1200220FA04F001FA02F340EA0300AB
:1033200021FA04F345EA030130BDC4F10C04C4F1F1
:10333000200220FA02F001FA04F340EA03002946D1
:1033400030BD21FA04F0294630BD94F0000F83F41B
:10335000801306BF81F480110134013D4EE77FEAFE
:10336000645C18BF7FEA655C29D094EA050F08BF4A
:1033700090EA020F05D054EA000C04BF194610462B
:1033800030BD91EA030F1EBF0021002030BD5FEA6F
:10339000545C05D14000494128BF41F0004130BD97
:1033A00014F580043CBF01F5801130BD01F00045EB
:1033B00045F0FE4141F470014FF0000030BD7FEA5E
:1033C000645C1ABF194610467FEA655C1CBF0B4659
:1033D000024650EA013406BF52EA033591EA030F70
:1033E00041F4002130BD00BF90F0000F04BF002168
:1033F000704730B54FF4806404F132044FF000059B
:103400004FF0000150E700BF90F0000F04BF002113
:10341000704730B54FF4806404F1320410F0004579
:1034200048BF40424FF000013EE700BF42004FEA74
:10343000E2014FEA31014FEA02701FBF12F07F43F1
:1034400093F07F4F81F06051704792F0000F14BFEE
:1034500093F07F4F704730B54FF4607401F0004532
:1034600021F0004120E700BF50EA010208BF704789
:1034700030B54FF000050AE050EA010208BF70477E
:1034800030B511F0004502D5404261EB41014FF4E7
:10349000806404F132045FEA915C3FF4DCAE4FF0EB
:1034A00003025FEADC0C18BF03325FEADC0C18BFD2
:1034B000033202EBDC02C2F1200300FA03FC20FA23
:1034C00002F001FA03FE40EA0E0021FA02F1144470
:1034D000C1E600BF70B54FF0FF0C4CF4E06C1CEA85
:1034E00011541DBF1CEA135594EA0C0F95EA0C0FFA
:1034F00000F0DEF82C4481EA030621EA4C5123EA6D
:103500004C5350EA013518BF52EA033541F480119B
:1035100043F4801338D0A0FB02CE4FF00005E1FB4E
:1035200002E506F00042E0FB03E54FF00006E1FB98
:1035300003569CF0000F18BF4EF0010EA4F1FF04DB
:10354000B6F5007F64F5407404D25FEA4E0E6D411B
:1035500046EB060642EAC62141EA55514FEAC5202C
:1035600040EA5E504FEACE2EB4F1FD0C88BFBCF5A8
:10357000E06F1ED8BEF1004F08BF5FEA500E50F159
:10358000000041EB045170BD06F0004646EA01011F
:1035900040EA020081EA0301B4EB5C04C2BFD4EB51
:1035A0000C0541EA045170BD41F480114FF0000E4A
:1035B000013C00F3AB8014F1360FDEBF002001F0B8
:1035C000004170BDC4F10004203C35DA0C341BDC32
:1035D00004F11404C4F1200500FA05F320FA04F004
:1035E00001FA05F240EA020001F0004221F0004138
:1035F00010EBD37021FA04F642EB06015EEA430EAB
:1036000008BF20EAD37070BDC4F10C04C4F12005DA
:1036100000FA04F320FA05F001FA04F240EA02008D
:1036200001F0004110EBD37041F100015EEA430E5E
:1036300008BF20EAD37070BDC4F1200500FA05F27E
:103640004EEA020E20FA04F301FA05F243EA0203FD
:1036500021FA04F001F0004121FA04F220EA02000C
:1036600000EBD3705EEA430E08BF20EAD37070BD52
:1036700094F0000F0FD101F00046400041EB010132
:1036800011F4801F08BF013CF7D041EA060195F014
:10369000000F18BF704703F00046520043EB0303CE
:1036A00013F4801F08BF013DF7D043EA06037047BB
:1036B00094EA0C0F0CEA135518BF95EA0C0F0CD0C6
:1036C00050EA410618BF52EA4306D1D181EA03010C
:1036D00001F000414FF0000070BD50EA410606BF06
:1036E0001046194652EA430619D094EA0C0F02D14B
:1036F00050EA013613D195EA0C0F05D152EA033690
:103700001CBF104619460AD181EA030101F00041AD
:1037100041F0FE4141F470014FF0000070BD41F0F6
:10372000FE4141F4780170BD70B54FF0FF0C4CF4D0
:10373000E06C1CEA11541DBF1CEA135594EA0C0FEF
:1037400095EA0C0F00F0A7F8A4EB050481EA030E3C
:1037500052EA03354FEA013100F088804FEA033323
:103760004FF0805545EA131343EA12634FEA0222F1
:1037700045EA111545EA10654FEA00260EF00041B2
:103780009D4208BF964244F1FD0404F5407402D204
:103790005B084FEA3202B61A65EB03055B084FEA95
:1037A00032024FF480104FF4002CB6EB020E75EB92
:1037B000030E22BFB61A754640EA0C005B084FEABA
:1037C0003202B6EB020E75EB030E22BFB61A754637
:1037D00040EA5C005B084FEA3202B6EB020E75EB82
:1037E000030E22BFB61A754640EA9C005B084FEAFA
:1037F0003202B6EB020E75EB030E22BFB61A754607
:1038000040EADC0055EA060E18D04FEA051545EAF5
:1038100016754FEA06164FEAC30343EA52734FEA9E
:10382000C2025FEA1C1CC0D111F4801F0BD141EA17
:1038300000014FF000004FF0004CB6E711F4801F7C
:1038400004BF01430020B4F1FD0C88BFBCF5E06F5C
:103850003FF6AFAEB5EB030C04BFB6EB020C5FEA6C
:10386000500C50F1000041EB045170BD0EF0004EC1
:103870004EEA113114EB5C04C2BFD4EB0C0541EAF3
:10388000045170BD41F480114FF0000E013C90E6F0
:1038900045EA060E8DE60CEA135594EA0C0F08BFB4
:1038A00095EA0C0F3FF43BAF94EA0C0F0AD150EAB3
:1038B00001347FF434AF95EA0C0F7FF425AF104646
:1038C00019462CE795EA0C0F06D152EA03353FF46E
:1038D000FDAE1046194622E750EA410618BF52EAEB
:1038E00043067FF4C5AE50EA41047FF40DAF52EABF
:1038F00043057FF4EBAE12E74FF0FF3C06E000BF5C
:103900004FF0010C02E000BF4FF0010C4DF804CD68
:103910004FEA410C7FEA6C5C4FEA430C18BF7FEA28
:103920006C5C1BD001B050EA410C0CBF52EA430C56
:1039300091EA030F02BF90EA020F0020704710F1D6
:10394000000F91EA030F58BF994208BF90422CBF65
:10395000D8176FEAE37040F0010070474FEA410C5E
:103960007FEA6C5C02D150EA013C07D14FEA430C7C
:103970007FEA6C5CD6D152EA033CD3D05DF8040BED
:10398000704700BF8446104662468C46194663461F
:1039900000E000BF01B5FFF7B7FF002848BF10F1F6
:1039A000000F01BD4DF808EDFFF7F4FF0CBF01203B
:1039B00000205DF808FB00BF4DF808EDFFF7EAFFB7
:1039C00034BF012000205DF808FB00BF4DF808ED72
:1039D000FFF7E0FF94BF012000205DF808FB00BF67
:1039E0004DF808EDFFF7CEFF94BF012000205DF8F1
:1039F00008FB00BF4DF808EDFFF7C4FF34BF0120FE
:103A000000205DF808FB00BF4FEA4102B2F1E0433D
:103A100024BFB3F5001CDCF1FE5C0DD901F0004CB5
:103A20004FEAC0024CEA5070B2F1004F40EB830005
:103A300008BF20F00100704711F0804F21D113F131
:103A40003872BCBF01F00040704741F480114FEA6A
:103A50005252C2F11802C2F1200C10FA0CF320FAF3
:103A600002F018BF40F001004FEAC1234FEAD32310
:103A700003FA0CFC40EA0C0023FA02F34FEA43037A
:103A8000CCE77FEA625307D150EA01331EBF4FF003
:103A9000FE4040F44000704701F0004040F0FE401E
:103AA00040F40000704700BF80F0004002E000BF1B
:103AB00081F0004142001FBF5FEA410392EA030F19
:103AC0007FEA226C7FEA236C6AD04FEA1262D2EB63
:103AD0001363C1BFD218414048404140B8BF5B4268
:103AE000192B88BF704710F0004F40F4000020F001
:103AF0007F4018BF404211F0004F41F4000121F017
:103B00007F4118BF494292EA030F3FD0A2F1010260
:103B100041FA03FC10EB0C00C3F1200301FA03F19E
:103B200000F0004302D5494260EB4000B0F5000FC1
:103B300013D3B0F1807F06D340084FEA310102F180
:103B40000102FE2A51D2B1F1004F40EBC25008BF32
:103B500020F0010040EA03007047490040EB0000FC
:103B600010F4000FA2F10102EDD1B0FA80FCACF12B
:103B7000080CB2EB0C0200FA0CF0AABF00EBC2502A
:103B800052421843BCBFD0401843704792F0000F18
:103B900081F4000106BF80F400000132013BB5E76B
:103BA0004FEA41037FEA226C18BF7FEA236C21D0E1
:103BB00092EA030F04D092F0000F08BF0846704746
:103BC00090EA010F1CBF0020704712F07F4F04D114
:103BD000400028BF40F00040704712F100723CBF27
:103BE00000F50000704700F0004343F0FE4040F451
:103BF000000070477FEA226216BF08467FEA23630F
:103C00000146420206BF5FEA412390EA010F40F4F9
:103C1000800070474FF0000304E000BF10F0004345
:103C200048BF40425FEA000C08BF704743F096432C
:103C300001464FF000001CE050EA010208BF704747
:103C40004FF000030AE000BF50EA010208BF7047CE
:103C500011F0004302D5404261EB41015FEA010CE3
:103C600002BF84460146002043F0B64308BFA3F1DB
:103C70008053A3F50003BCFA8CF2083AA3EBC253BD
:103C800010DB01FA02FC634400FA02FCC2F12002DC
:103C9000BCF1004F20FA02F243EB020008BF20F013
:103CA0000100704702F1200201FA02FCC2F1200279
:103CB00050EA4C0021FA02F243EB020008BF20EA6E
:103CC000DC7070474FF0FF0C1CEAD0521EBF1CEA9C
:103CD000D15392EA0C0F93EA0C0F6FD01A4480EA8A
:103CE000010C400218BF5FEA41211ED04FF0006373
:103CF00043EA501043EA5111A0FB01310CF000409F
:103D0000B1F5000F3EBF490041EAD3715B0040EAC4
:103D1000010062F17F02FD2A1DD8B3F1004F40EB94
:103D2000C25008BF20F00100704790F0000F0CF067
:103D3000004C08BF49024CEA502040EA51207F3A2B
:103D4000C2BFD2F1FF0340EAC250704740F4000006
:103D50004FF00003013A5DDC12F1190FDCBF00F0F7
:103D600000407047C2F10002410021FA02F1C2F1A5
:103D7000200200FA02FC5FEA310040F1000053EA41
:103D80004C0308BF20EADC70704792F0000F00F08F
:103D9000004C02BF400010F4000F013AF9D040EA95
:103DA0000C0093F0000F01F0004C02BF490011F429
:103DB000000F013BF9D041EA0C018FE70CEAD15327
:103DC00092EA0C0F18BF93EA0C0F0AD030F0004CA7
:103DD00018BF31F0004CD8D180EA010000F000405B
:103DE000704790F0000F17BF90F0004F084691F019
:103DF000000F91F0004F14D092EA0C0F01D1420253
:103E00000FD193EA0C0F03D14B0218BF084608D11B
:103E100080EA010000F0004040F0FE4040F4000065
:103E2000704740F0FE4040F4400070474FF0FF0CF8
:103E30001CEAD0521EBF1CEAD15392EA0C0F93EA3F
:103E40000C0F69D0A2EB030280EA010C49024FEA91
:103E5000402037D04FF0805343EA111143EA10134A
:103E60000CF000408B4238BF5B0042F17D024FF402
:103E7000000C8B4224BF5B1A40EA0C00B3EB510FDD
:103E800024BFA3EB510340EA5C00B3EB910F24BFC6
:103E9000A3EB910340EA9C00B3EBD10F24BFA3EB4B
:103EA000D10340EADC001B0118BF5FEA1C1CE0D113
:103EB000FD2A3FF650AF8B4240EBC25008BF20F0C6
:103EC000010070470CF0004C4CEA50207F32C2BF1A
:103ED000D2F1FF0340EAC250704740F400004FF0B7
:103EE0000003013A37E792F0000F00F0004C02BFE8
:103EF000400010F4000F013AF9D040EA0C0093F0B2
:103F0000000F01F0004C02BF490011F4000F013B0B
:103F1000F9D041EA0C0195E70CEAD15392EA0C0F73
:103F200008D142027FF47DAF93EA0C0F7FF470AFAB
:103F3000084676E793EA0C0F04D14B023FF44CAFEE
:103F400008466EE730F0004C18BF31F0004CCAD183
:103F500030F000427FF45CAF31F000437FF43CAFBF
:103F60005FE700BF4FF0FF3C06E000BF4FF0010CE1
:103F700002E000BF4FF0010C4DF804CD4FEA4002C3
:103F80004FEA41037FEA226C18BF7FEA236C11D00D
:103F900001B052EA530C18BF90EA010F58BFB2EBC0
:103FA000030088BFC81738BF6FEAE17018BF40F040
:103FB000010070477FEA226C02D15FEA402C05D1F4
:103FC0007FEA236CE4D15FEA412CE1D05DF8040B79
:103FD000704700BF844608466146FFE70FB5FFF70C
:103FE000C9FF002848BF10F1000F0FBD4DF808EDC4
:103FF000FFF7F4FF0CBF012000205DF808FB00BFB5
:104000004DF808EDFFF7EAFF34BF012000205DF80E
:1040100008FB00BF4DF808EDFFF7E0FF94BF01205B
:1040200000205DF808FB00BF4DF808EDFFF7D2FF58
:1040300094BF012000205DF808FB00BF4DF808ED9B
:10404000FFF7C8FF34BF012000205DF808FB00BF68
:104050004FEA4002B2F1FE4F0FD34FF09E03B3EB95
:1040600012620DD94FEA002343F0004310F0004FD5
:1040700023FA02F018BF404270474FF0000070472B
:1040800012F1610F01D1420205D110F0004008BFCA
:104090006FF0004070474FF00000704742000ED2B2
:1040A000B2F1FE4F0BD34FF09E03B3EB126209D473
:1040B0004FEA002343F0004323FA02F070474FF029
:1040C0000000704712F1610F01D1420202D14FF09E
:1040D000FF3070474FF00000704700BF2DE9F041FE
:1040E000057890B000350646334818BF01250AF020
:1040F000E5FD00243148A542314B0CBF214680210B
:1041000006904FF400500CBF4FF001084FF002082A
:104110004FF4807205930A9120234FF480670E902C
:1041200005A925480B920D930C970794CDF8208094
:1041300009940F940AF03AFE1F4801210AF063FE29
:104140004FF46021012702911E48694600948DF8C2
:1041500004508DF8057003948DF810800AF010FD5E
:10416000184804213A4603230AF05BFD2DB1154897
:104170003178022203230AF054FD124801210AF08B
:104180002CFD104801210AF01FFD0E480AF02EFDFB
:104190000C480AF030FD0028FAD10A480AF02FFD39
:1041A00008480AF031FD0028FAD1064801210AF03A
:1041B0002FFD10B0BDE8F08108000240C0060020CD
:1041C0004C24014000240140024B33F8100080B21F
:1041D000704700BFC00600202DE9FF41334B8046E9
:1041E000187800283BD0002425462646274608227A
:1041F00032210DEB0203532009F00CFA9DF809104F
:104200009DF80800013400EB01239DF80B109DF888
:104210000A001AB200EB01239DF80D109DF80C0066
:10422000E4B2BF181AB200EB01239DF80F10B618C4
:10423000202C1AB2154401F07F0001D00028D6D1FD
:104240001B4B97FBF4F796FBF4F695FBF4F5ADF8F2
:104250000070ADF80260ADF804501C701DE0322112
:10426000062202AB532009F0D5F99DF809209DF8EC
:1042700008109DF80B0001EB02239DF80A20ADF811
:10428000003002EB00219DF80C309DF80D00ADF8D8
:10429000021003EB0022ADF80420064A68464146AE
:1042A00012780AF0E3FABDE8FF8100BFC4060020DF
:1042B000C506002000000020154B10B51B780446F1
:1042C0002D21532008227BB109F068FA31210A22FE
:1042D000532009F063FA2C210C22532009F05EFAD6
:1042E00053203821902209E009F058FA31210A229E
:1042F000532009F053FA53202C210A2209F04EFAD8
:10430000044840F2091202800CB103490C7010BD40
:10431000C4060020460000200000002037B5104BE6
:1043200005461A680F480C46002182428DF8071096
:1043300001D1002013E0532001220DF1070309F001
:1043400069F90028F5D09DF80710E529F1D12A7800
:104350000548064B064920601A70616001203EBD89
:1043600064010020001BB700B9420008C406002009
:10437000D94100081FB50446022106226B461820C9
:1043800009F048F99DF800309DF8012098089DF843
:10439000023000EB02219DF8032098089DF80430BC
:1043A000ADF8081000EB02219DF805209808ADF843
:1043B0000A1000EB0221044AADF80C1002A82146B5
:1043C00012780AF053FA1FBD0100002010B50F212A
:1043D00008220446182009F0E1F90E2218201021C5
:1043E00009F0DCF9034B4FF480521A800CB10248FB
:1043F000047010BD460000200100002037B50024E5
:1044000002AB054603F8014D18202146012209F0B0
:1044100001F950B19DF80730FB2B05D10348044941
:1044200028606960012000E020463EBDCD430008C1
:1044300075430008334B2DE9F0411C88324B5A89F3
:104440001E89A51A7543B3F91240B3F91420EF136E
:10445000BE18E50295FBF6F43F19A7F57A6202FB58
:1044600002F4B3F90480B3F902C00A257D43DF6189
:1044700002FB0CFCB3F90E7002FB08F2B3F90C80DE
:104480002413674304FB08F4241404EB6232941CE5
:10449000A210DC88083502F5004262432E114FEA73
:1044A000EC24B3F92050B3F9003004EBE72404EB1B
:1044B000830303FA05F39C1C144BD20B1B68A3EB7C
:1044C000A4044CF2503343FA05F3634303D45C0075
:1044D000B4FBF2F302E0B3FBF2F253001A125243C0
:1044E00040F6DE3462430A4C5C43241404EB22425F
:1044F00002F6CF6203EB221300B1036001B10E603C
:10450000BDE8F081F6060020CC060020F006002071
:1045100043E3FFFF104B07B5187818B90F490A8815
:10452000531C0B80F621032201AB772009F072F8AF
:104530009DF805109DF804000A02094942EA00406E
:104540009DF80630B1F920201843C2F1080320FA83
:1045500003F0044908600EBDC6060020C80600200E
:10456000CC060020F00600200B4B07B5187818B9D0
:104570000A490A88531C0B80F621022201AB7720DE
:1045800009F048F89DF804009DF80510044B41EA35
:1045900000221A800EBD00BFC6060020C8060020FB
:1045A000F6060020064B074893F8202000219201D0
:1045B0003432017002F0FC027720F42109F0EEB8E9
:1045C000CC060020C6060020034B00221A7077207C
:1045D000F4212E2209F0E2B8C606002010B54FF4EF
:1045E00080400AF06FFC0128044605D14FF480405A
:1045F0000AF078FC014B1C7010BD00BFC6060020FD
:104600002DE9F0476B4B05461A686B488CB0824227
:1046100000F0CA80DFF8C0A19AF80080B8F1000F5E
:1046200040F0C480654F102102264FF400598DF8E8
:104630000A10384602A94FF480448DF80B60ADF89B
:10464000089008F067FD0423384602A98DF80A3067
:10465000ADF8084008F05EFD0E213046C7F8109016
:1046600008F094FD0126082204A88DF81520049472
:104670008DF814808DF816600AF0E8FB28200F21D1
:104680008DF80C0003A88DF80D108DF80E108DF824
:104690000F600AF041FA142009F021F97720D021A7
:1046A00032460DF1070308F0B5FF9DF80730444C82
:1046B0000322552BE375228418BFC7F8149073D1D9
:1046C000D12132460DF10703772008F0A3FF9DF8B2
:1046D0000700162200F00F01030921766376AA2154
:1046E00006AB772008F096FF9DF818209DF819007A
:1046F0009DF81B3040EA02219DF81A20218043EAF0
:1047000002209DF81C109DF81D20608042EA0123C4
:104710009DF81E009DF81F10A38041EA00229DF81D
:1047200021309DF82000E28043EA00219DF82220FC
:104730009DF82300218140EA02239DF824109DF872
:104740002520638142EA01209DF827309DF826103C
:10475000A08143EA01229DF828009DF82910E281FA
:1047600041EA00239DF82A209DF82B00238240EA8D
:1047700002219DF82D309DF82C20618243EA022011
:10478000104B41F2707146F67812A0828AF80060F0
:104790000D4829806A806B600C490D4A0D4BA8605A
:1047A000E9602A616B6101E0002000E001200CB0AB
:1047B000BDE8F08764010020001BB7000010014035
:1047C000CC060020C945000869450008A545000839
:1047D0001545000835440008F40600202DE9F04F87
:1047E0004E4E4F4B85B077890391196832898446C4
:1047F00038020F1A87FB0201C00940EA4162CB115F
:10480000F188B48887FB01012404002514EB020819
:1048100045EB0309000A40EA01620B12B189748872
:1048200087FB0101E403002514EB020A45EB030BAF
:10483000C00D40EA41224FF4FA60CB1500218018E8
:1048400041EB0301CDE90001B0F5FA6F71F1000110
:1048500047DAA2FB024502FB03F605EB4607B80068
:1048600040EA9471A0002646241847EB0105691020
:104870004FEA3400A408B8EB000869EB0109A9105D
:1048800044EA8570BAEB000A6BEB010B25484FF048
:10489000FF31DDE9004584428D4122DA40F6AC501B
:1048A0000021801841EB03014143A0FB00236FF07E
:1048B000060003EB4103544200FB0344A2FB00014A
:1048C00018EB0008214449EB01090B24A2FB040169
:1048D00004FB031149104FEA3000BAEB000A6BEBFE
:1048E000010B114A1368A3FB0A0103FB0B11400DD6
:1048F00040EAC1224B15B2EB080263EB0903D20B6D
:1049000042EA4343BCF1000F01D0CCF800300398D9
:1049100008B10099016005B0BDE8F08F00070020E4
:10492000FC06002024FAFFFFF806002007B500214E
:10493000032201AB772008F06DFE9DF805009DF87D
:10494000043001029DF8062041EA034010430EBDE9
:1049500008B5FFF7EBFF014B186008BDF806002013
:1049600008B5FFF7E3FF014B186008BDFC06002007
:1049700077204821012208F011BF77205821012219
:1049800008F00CBF454B73B51A6804464448824290
:104990000FD010258DF80650424D02214FF40056DD
:1049A0008DF80710284601A9ADF8046008F0B2FBA5
:1049B0006E610A2008F093FF7720A02101220DF1FB
:1049C000030308F027FE002866D01E21012277206D
:1049D00008F0E4FE4FF42F6008F076FF0025A5F103
:1049E00060030026D9B20222772001AB8DF8046063
:1049F0008DF8056008F00EFE9DF804209DF8050076
:104A0000294B40EA0221E9520235102DE7D1DA891B
:104A100002F47F4502F00F00DD8132460123224976
:104A2000515A0232002918BF0023102AF7D113BBB4
:104A30001A4612F0010F1C494FEA620604D011F821
:104A400016104B40082104E031F8161083EA1123B8
:104A5000F8E713F4004F18BF83F4C0535B0001392B
:104A6000F7D10132102AE4D10F49C3F303330543D0
:104A70009842CD8101D000200EE00C4A42F2107025
:104A80002080608062600A480A490B4B0B4A206113
:104A9000A160E360626101207CBD00BF6401002071
:104AA000001BB70000100140000700207B490008F0
:104AB000514900086149000871490008DD470008B4
:104AC00037B5002402AB054603F8014D1E200A212C
:104AD000012208F09FFD50B19DF80730482B03D10B
:104AE00025B10348057001E0204600E001203EBDED
:104AF0001000002030B585B00622054603216B4624
:104B00001E2008F087FD9DF801309DF800001A4C2A
:104B100043EA002108B2FFF781F82168FFF7D2F8D5
:104B2000FFF796FA9DF80220ADF808009DF8030003
:104B300040EA022318B2FFF771F8A168FFF7C2F844
:104B4000FFF786FA9DF805209DF80410ADF80C00DB
:104B500042EA012000B2FFF761F86168FFF7B2F89E
:104B6000FFF776FA054BADF80A00294602A81A7835
:104B700009F07CFE05B030BD0400002010000020CC
:104B80002DE9FF41634B644A186890420DD1042718
:104B90004FF480550226ADF804508DF807608DF86B
:104BA00006705E480DEB070108E05D49884207D1B9
:104BB00004A94FF480445B4821F80C4D08F0AAFA90
:104BC000322008F08CFE002111221E2008F0E6FDA4
:104BD000012160221E2008F0E1FD642008F07FFE24
:104BE00002A8FFF787FF00240A2527462646012250
:104BF00002211E2008F0D2FD322008F070FE02A82B
:104C0000FFF778FFBDF90800BDF90A20BDF90C30A7
:104C100024188242B8BF1046F6189842B8BF03461F
:104C200013F5805F174409DD3C49013DC86880F0F9
:104C30002002CA60DBD14FF0010801E04FF000080C
:104C40001E200021122208F0A9FD0A2502210122BE
:104C50001E2008F0A3FD322008F041FE02A8FFF755
:104C600049FFBDF90800BDF90A10BDF90C30241A3E
:104C70008142B8BF0846F61A9842B8BF034613F5FA
:104C8000805FC1EB070707DD2448013DC26882F061
:104C90002001C160DAD101E04FF000082046FEF7A4
:104CA000BDFF01462048FFF7C1F8204D20F000432A
:104CB0002B603846FEF7B2FF01461B48FFF7B6F8F7
:104CC00020F0004068603046FEF7A8FF0146184813
:104CD000FFF7ACF820F00042AA60002170221E20ED
:104CE00008F05CFD012120221E2008F057FD1E2047
:104CF0000221002208F052FD642008F0F0FDB8F116
:104D0000000F04D14FF07E5129606960A960BDE8B1
:104D1000FF8100BF6401002000127A00000C0140F6
:104D2000001BB7000010014000406F460400002047
:104D300001C05E461FB50446012106226B461C20B9
:104D400008F068FC9DF800209DF8013043EA02203D
:104D500040F38D01042391FBF3F29DF802009DF8CE
:104D60000310ADF8082041EA002242F38D0090FBC9
:104D7000F3F19DF805209DF80400ADF80A1042EA11
:104D80000021064A41F38D0090FBF3F3214602A86F
:104D90001278ADF80C3009F069FD1FBD110000203C
:104DA00037B50421202302248DF8061005466944F6
:104DB0001B48ADF804308DF8074008F0ABF92A2104
:104DC00000221C2008F0EAFC0E211C20224608F0DC
:104DD000E5FC0F2103221C2008F0E0FC2B2112220D
:104DE0001C2008F0DBFC2C211C20224608F0D6FCFD
:104DF0002D2101221C2008F0D1FC2E2100221C2094
:104E000008F0CCFC05221C202A2108F0C7FC05482C
:104E10004FF4807202800DB1034B1D703EBD00BF88
:104E200000080140460000201100002013B5044690
:104E300010481149026800238A428DF8073001D1D9
:104E4000002015E01C200D2101220DF1070308F0C0
:104E5000E1FB0028F4D09DF807302A2B01D01A2B53
:104E6000EED10648064A0749206062600B700120B7
:104E70001CBD00BF64010020001BB700A14D00084D
:104E8000354D00081007002013B5022204461B21EF
:104E900001AB682008F0BEFB9DF804209DF80530AA
:104EA00043EA022000F54E5110314FF48C7291FB11
:104EB000F2F3233323801CBD1FB504461D210622B7
:104EC0006B46682008F0A6FB9DF800209DF8013095
:104ED00043EA022001B2042391FBF3F29DF80200A1
:104EE0009DF80310ADF8082041EA002210B290FBB3
:104EF000F3F19DF805209DF80400ADF80A1042EA90
:104F00000021064A08B290FBF3F3214602A812786A
:104F1000ADF80C3009F0AAFC1FBD00BF1300002043
:104F200010B50446192008F0DAFC6820152100228B
:104F300008F034FC10B9032008F074FD0D4B162165
:104F40001A78682042F0180208F028FC1721002285
:104F5000682008F023FC3D210122682008F01EFC97
:104F600068203E21012208F019FC0CB102480470AF
:104F700010BD00BF120000201300002038B5054608
:104F800019200C4608F0ABFC68201521002208F01F
:104F900005FC18B3124B13481349144A622C2B60BA
:104FA0006860A960EA60124B0FD004D80A2C12D0B6
:104FB000142C0CD10DE0BC2C04D0B4F5807F06D1AC
:104FC000002009E00120187038BD022004E0032011
:104FD00002E0042000E005201870012038BD00BF69
:104FE000214F0008B94E0008894E0008184492313C
:104FF00012000020064B07491A7812B14FF4FF63E4
:1050000001E04FF480530B8008B1034A10707047E1
:105010001107002046000020140000201FB50446A0
:10502000432106226B46682008F0F4FA9DF8002020
:105030009DF8013043EA022001B2042391FBF3F210
:105040009DF802009DF80310ADF8082041EA002207
:1050500010B290FBF3F19DF805209DF80400ADF827
:105060000A1042EA0021064A08B290FBF3F32146F7
:1050700002A81278ADF80C3009F0F8FB1FBD00BF94
:10508000160000201FB504463B2106226B4668200F
:1050900008F0C0FA9DF800209DF801309DF802103C
:1050A00043EA02209DF80320ADF8080042EA0123FC
:1050B0009DF804009DF80510ADF80A30054B41EA53
:1050C0000022ADF80C2002A821461A7809F0CEFB88
:1050D0001FBD00BF1400002013B5224A4FF4005337
:1050E00004460220ADF804308DF8070013681E480E
:1050F000042183428DF8061001D11C4803E01C49AD
:105100008B4203D11B4801A908F004F86B218022CF
:10511000682008F043FB052008F0E1FB192100227C
:10512000682008F03BFB6B210322682008F036FB67
:1051300037210222682008F031FB0F4A1A21127829
:10514000682008F02BFB1B211822682008F026FBA2
:1051500068201C21102208F021FB0CB1074B1C70A9
:105160001CBD00BF6401002000127A00000C014049
:10517000001BB700001001401500002016000020A1
:105180002DE9F043814685B023200E46144698460B
:1051900008F0A5FB6820752101220DF1070308F036
:1051A00039FA00286FD09DF80770682F6AD1062160
:1051B0000A4602AB384608F02DFA9DF80B309DF8F0
:1051C0000D5003F0010105F001004A0042EA80059C
:1051D0009DF8090000F001031D4308D0012D01D105
:1051E0002A481AE0022D0ED10023284813E00C2192
:1051F000012238460DF1070308F00CFA9DF807105C
:1052000011F00F0203D1052008F00CFC06E0042A7F
:105210001E4802D10123037000E005701C491D4A9D
:10522000C9F800101C481D4B1D49C9F80420306006
:105230007360F160B8F1000F03D0144A107888F859
:105240000000142C174B15D004D8052C16D00A2CAE
:105250000ED111E0BC2C08D0B4F5807F03D0622CB5
:1052600006D102210BE0002109E0012018700AE0BC
:10527000032104E0042102E0052100E00621197069
:10528000012000E0002005B0BDE8F08311070020F8
:10529000F54F000885500008D95000081D5000083F
:1052A00018449231150000201FB50446A82106229B
:1052B0006B46682008F0AEF99DF800209DF801309B
:1052C00043EA022001B2042391FBF3F29DF80200AD
:1052D0009DF80310ADF8082041EA002210B290FBBF
:1052E000F3F19DF805209DF80400ADF80A1042EA9C
:1052F0000021064A08B290FBF3F3214602A8127877
:10530000ADF80C3009F0B2FA1FBD00BF1700002045
:1053100010B50446642008F0E2FA68202321F02248
:1053200008F03CFA10B9032008F07CFB052008F0D7
:10533000D6FA064B68201A78202142F00F0208F0B6
:105340002DFA0CB10248047010BD00BF12070020F6
:105350001700002037B5054619200C4608F0BFFAA3
:1053600068200F2101220DF1070308F053F99DF881
:105370000730D32B16D10C480C490D4A4E2C28600F
:105380006960EA600B4B07D05D2C09D0362C01D048
:10539000002002E0402000E080201870012002E0A0
:1053A000C020FAE700203EBD11530008A9520008B2
:1053B000DDE9A73112070020074BA1F57A7153F8F8
:1053C0002000838802684B434FF47A7093FBF0F11E
:1053D0008BB21380704700BF0C080020024B53F8BB
:1053E00020000268118070470C0800202DE9F04F62
:1053F000DFF828814FEA001558F805408E468BB03B
:1054000008EB0507114683469246204672460193F3
:1054100000F018FBB96807F108024FF0020C1823DE
:105420007868ADF8141005A98DF816308DF817C0FE
:105430000392CDF808C007F06DFE0398364E077949
:1054400006A80AF0CAF970220198DDF808C0ADF884
:105450001820012100234FF4807206EB0509ADF8F6
:105460001A10ADF81C30ADF81E00ADF820C0ADF834
:1054700024200C2F2BD8DFE807F0072A2A2A102A2D
:105480002A2A192A2A2A2200204606A90AF09EF86A
:10549000204608210AF0D6F919E0204606A90AF0AC
:1054A000D9F8204608210AF0D5F910E0204606A9CF
:1054B0000AF014F9204608210AF0D6F907E0204640
:1054C00006A90AF04DF9204608210AF0D5F908EBA3
:1054D0000B118B7B1BB1204601210AF09CF9204661
:1054E00001210AF08CF90C2F10D8DFE807F0070F24
:1054F0000F0F090F0F0F0B0F0F0F0D00343404E0C7
:10550000383402E03C3400E040347451A9F804A07F
:1055100048460BB0BDE8F08F24070020305A010840
:105520001B4A1C4813881180C91A89B240F68C2284
:1055300091420380184B02D900221A707047A1F2E1
:10554000EF2080B240F2DA52904218D81B78072B35
:1055500015D81248032B20F81310114A09D8114806
:105560000088884205D2012101FA03F31078034331
:10557000137012780F2A02D1094B002119700648C6
:10558000094B0278511C017000201880704700BF41
:1055900006080020640800200908002014070020E5
:1055A0006608002018000020700C00207FB504461B
:1055B00001A80D4616460AF01AF900200123ADF89D
:1055C0000A00ADF80C0001A92046ADF80450ADF872
:1055D0000660ADF808300AF089F97FBD2DE9F74380
:1055E000DFF858800501144E05EB0804A3688946CE
:1055F000761928210746B271606802228DF80610DC
:1056000001A9ADF804308DF8072007F083FD55F8A7
:105610000800217B0022FFF7C9FF204601224FF638
:10562000FF7100F031FA204639464A4600F0ECF9A5
:105630003046BDE8FE8300BF24070020305A010831
:1056400010B5134B00011B18DA795AB901221981E0
:10565000DA71104B02221918097B1858BDE8104066
:10566000FFF7A4BF1C8959810B4A091B9C7989B299
:1056700022F8141000249981DC71064B2246191877
:10568000097B1858FFF792FF0448048010BD00BF43
:1056900024070020305A010814070020700C002055
:1056A0002DE9F0410446028A484B807961781A80DE
:1056B000002814BF0225002501B10135444F57F8D9
:1056C000257000257A5DFF2A02F00F0002F0F0033A
:1056D00009D122893F484049B2F5FA7F016071D96A
:1056E0003E4B03606EE0A17811B1811E012965D99E
:1056F000E17811B1011F032960D9E17909B1814233
:105700005CD012F0300F03D02278002A08BF0023AB
:10571000217931B1A27922B9A0F10801012998BFFC
:10572000802362792AB1A17919B9021F032A98BF8F
:10573000802303F01001CAB23AB100222849FFF7D2
:105740004DFF284B08221A7038E003F02001CAB23E
:1057500042B1244E24493278FFF740FF3078411C93
:1057600031702BE003F04001CAB292B123891F4A85
:10577000B3F5FA7F94BF012108214A431C4EB2FBC6
:10578000F3F39AB2A38996F80080FFF72FFE194B26
:105790000EE01B0612D563891449174E91FBF3F2F4
:1057A00092B2E389012196F80080FFF71FFE134BA8
:1057B00043F8280008F1010886F8008001350E2D15
:1057C00080D186E70020BDE8F08100BF18000020EE
:1057D000105A010860080020DD530008B953000882
:1057E00021550008040800204156000840420F00DF
:1057F0003C0800200C080020080800204008002079
:1058000008B5044B1A78824202D9034B1A689047B4
:1058100008BD00BF3C08002060080020044B1A7837
:10582000824204D9034B53F820000268118070476C
:105830000808002040080020014B33F81000704792
:1058400014070020F8B5134B05469B890E461446F5
:10585000ECB116B116F8017B00E0FF270D480221DC
:1058600009F0F4FD0028F9D00A48394609F0E9FDAD
:105870000848012109F0EAFD0028F9D0054809F09F
:10588000E2FDC0B20DB105F8010B013CE0E70120DB
:10589000F8BD00BF003800402DE9F047012188B075
:1058A0004FF4804009F044FD374C01214FF4804013
:1058B00009F056FD03214FF420401823ADF80000F5
:1058C0008DF80310204669468DF802304FF0040829
:1058D00007F020FC2D4E4FF4804220466946ADF87B
:1058E00000204FF480554FF0100A8DF8028007F029
:1058F00011FC69462046ADF800508DF802A007F073
:1059000009FC304609F040FD07214FF400700023E8
:105910000222ADF81600ADF81C104FF00109304618
:1059200003A94FF48277ADF80C30ADF81030ADF824
:105930001A30ADF81220ADF80E70ADF814901F4675
:10594000ADF818A009F052FD3046494609F06DFD4A
:105950009F238DF804308DF805708DF806708DF852
:1059600007700DEB08014246656102A8FFF76AFF68
:1059700025619DF80900B0F1EF014A4252EB0100A8
:1059800008B0BDE8F08700BF000C014000380040BF
:1059900030B500240E4D55F82450854202D0013414
:1059A000E4B2F7E7A400E4B200200A4D2D5C8D427A
:1059B00002D0451CE8B2F8E70019C0B20F2805D89C
:1059C000054C04EB001083600171027330BD00BF11
:1059D000105B0108205B0108282500200C2912D843
:1059E000DFE801F007111111091111110B1111114B
:1059F0000D00022104E0042102E0082100E0102152
:105A0000012209F016BF704738B504460D4613460B
:105A1000217B00682A46FFF7BBFF2068217BBDE899
:105A20003840FFF7DBBF07B58DF8040001200023E5
:105A30008DF806008DF8070001A88DF8053009F0F3
:105A40006BF80EBD7FB5044601A80D46164609F059
:105A5000BBFE0B4B0B485E4301680023B1FBF6F223
:105A6000013D561E204601A9ADF80850ADF804606E
:105A7000ADF80A30ADF8063009F05EFD7FBD00BF1D
:105A800040420F006801002010B504460068FFF78F
:105A9000D9FF2068012109F0B2FE607BBDE810400B
:105AA000FFF7C1BF00230C4A52F82320824202D0E4
:105AB0005A1CD3B2F7E79B00D8B20023074AD25C46
:105AC0008A4202D05A1CD3B2F8E71818044BC1B26C
:105AD00003EB0110704700BF105B0108205B010859
:105AE0002825002038B50221044609F0A8FF012826
:105AF00020460BD1022109F0ADFF20460021FFF71F
:105B0000D1FF0546204609F08DFF34E0042109F05D
:105B100096FF012820460BD1042109F09BFF204667
:105B20000421FFF7BFFF0546204609F07EFF22E073
:105B3000082109F084FF012820460BD1082109F033
:105B400089FF20460821FFF7ADFF0546204609F0F2
:105B50006FFF10E0102109F072FF012810D12046DC
:105B6000102109F077FF20460C21FFF79BFF054627
:105B7000204609F060FFAB6801460BB1287B9847CF
:105B800038BD00000148FFF7ADBF00BF002C014049
:105B90004FF08040FFF7A6BF0148FFF7A3BF00BF4B
:105BA000000400400148FFF79DBF00BF000800400F
:105BB000014B33F82000704768080020034B002297
:105BC000DA6008B102490160704700BFD42A0020A2
:105BD000B15B0008072802D1034B01221A70034A67
:105BE00042F82010704700BF880800206808002095
:105BF000034B187810B100221A700120704700BFC3
:105C0000880800201D481E49026800608A4200F092
:105C10001F80002100F004B81A4B5B584350043138
:105C200019481A4B42189A42FFF4F6AF184A00F08E
:105C300003B8002342F8043B164B9A42FFF4F9AF35
:105C400008F052FE0EF0BCFD03F006FBFFF7FEBFAE
:105C5000114E124830601248016821F070610160F5
:105C6000410201600F4C182020600F490F48086066
:105C70000F48D0F800D0406800470000F04F0020E7
:105C8000EFBEADDE8081010800000020A4060020E8
:105C9000A4060020AC3D00201810024009000000BE
:105CA00004000140140C0140000C01404434434402
:105CB00000F0FF1FFFF7FEBFF8B5174C064623782C
:105CC000274673B907F0FAFD144D2A683232904224
:105CD00007D30120207007F0D1FE07F0EFFD286008
:105CE000F8BD3878B0B107F0E9FD0C4C21687318A5
:105CF00098420FD3084A0020107007F0BFFE07F04B
:105D0000DDFD20600648017809B14B1E037005488F
:105D100001220270F8BD00BF8B080020900800200F
:105D2000200D00208C08002037B58DF80510224981
:105D30008DF807300B788DF8040002A88DF8062046
:105D4000C21812F8044C0D46443CE0B20A282CD884
:105D50001A49022B31F8104003D814B12046FFF73E
:105D6000ABFF2B78022B0BD9154D2D6807F0A6FD44
:105D7000021B954204D21049124B00200870187083
:105D8000114802780146012A00D094B90A4B1878CC
:105D9000022801D8421C1A70002008700B490870B4
:105DA00003B0BDE8304007F069BE3224022BD5D9DC
:105DB000D7E703B030BD00BF8D080020245B010889
:105DC00090080020200D00208C0800208B08002067
:105DD0002DE9F0413D4B04465A7B3D4802B101227A
:105DE00002704FF4007001F095F9D8B1394E3A497C
:105DF00096F8AE50052000FB05F20B8819B29142CF
:105E00000DDD364F364A7F783FB196F8AF600127F7
:105E1000AD1968438142177001DD022111700BB981
:105E20002F480370202001F055F960B1274A2D4B0F
:105E3000917A09B9D07A20B1284AD17A09B90120DA
:105E400000E000201870264B1A78022A02D14C205C
:105E50004E211EE0012A07D14D2153204C220B4632
:105E6000BDE8F041FFF760BF1E490878012803D163
:105E7000532001464E2206E0154B1A78012A04D120
:105E80005320014602464D23EAE7042C03D1532058
:105E90004D210A460AE0022C03D1532001464D222F
:105EA00004E0012C04D153204D214E224423D7E796
:105EB0000D49087820B13220BDE8F041FFF7FCBE63
:105EC0000A4B1870BDE8F04107F0D8BD922B0020B6
:105ED0008908002028260020700C00202E2B00208E
:105EE0008E0800208A080020200D00208B0800204A
:105EF00070B50646B6FBF2F40846154614B12046C6
:105F0000FFF7F6FF05FB1464024B195D00F8011B57
:105F100070BD00BFB45C01082DE9F0410278034672
:105F20000130202AFAD0092AF8D02D2A02D10346BE
:105F3000414D04E02B2A08BF03464FF07E551E4614
:105F40000024334616F8010BA0F13007F9B20929F5
:105F50000DD83A492046FDF7B5FE04463846FDF710
:105F60005DFE01462046FDF7A5FD0446E9E72E2823
:105F700017D1324F334616F8010B3038C2B2092A16
:105F80000FD8FDF74BFE3946FDF750FF014620467E
:105F9000FDF790FD294904463846FDF793FE074674
:105FA000E8E71878652801D0452839D15E782D2E8C
:105FB00002D19F1C012605E02B2E01D05F1C00E0C2
:105FC0009F1C00267B1E002713F8012F303AD1B208
:105FD000092903D80A2000FB0727F5E7B7F59A7FC0
:105FE00028BF4FF49A77B8464FF07E51B8F1070FAB
:105FF00007D908461249FDF765FEA8F108080146D1
:10600000F4E707F0070737B108460C49FDF75AFED9
:10601000013F0146F7E72EB12046FDF707FF04E0F8
:106020004FF07E512046FDF74DFE01462846FDF714
:1060300049FEBDE8F08100BF000080BF00002041A4
:1060400020BCBE4C10B5441E14F8011F21B1034BF7
:10605000186807F039FFF7E710BD00BFD42A002009
:106060000148FFF7EFBF00BFD95C010810B5074832
:10607000FFF7E8FF0024064B06481A19E15852685A
:106080000C3408F0B5FAC02CF5D110BD075D01083D
:10609000D85B01081D5D010870B507F00FFC274CA7
:1060A000274B4FF47A71B0FBF1F11A782548237829
:1060B00008F09EFA01F028F80546234823490268B3
:1060C0002348B2FBF1F108F093FA0024214B53F876
:1060D000241051B1012000FA04F0284202D01E48D9
:1060E00008F086FA0134E4B2F0E7022000F0F2FF93
:1060F00098B11A4C1A4922781A4851F8221008F01F
:1061000077FA2378022B08D11748047C1748002C13
:106110000CBF6E216F2108F06BFA1548FFF792FF54
:10612000144A148807F09CFB0246134821464FF49A
:106130005F73BDE8704008F05BBA00BF3C00002010
:106140007C2B0020255D01086801002040420F00E3
:10615000635D0108846A0108815D0108940E0020D6
:10616000985C0108855D0108D42A00208F5D010834
:10617000B2740108440D0020935D010838B50C6825
:10618000054620460EF0ACFD024628682146BDE8D3
:1061900038400EF0D5BD000008B50948FFF752FFA2
:1061A0000121002000F032FF0648FFF74BFF0A20D4
:1061B00007F095FB0020BDE8084007F04FBC00BF8A
:1061C000C55D0108CF5D01087FB504460EF088FD6E
:1061D000082824D100231E49E25C086885186E78DF
:1061E00006F00301022908BF203AE2540133082BCC
:1061F000F1D10025665D174831460EF095FC28B1B7
:106200000135601931460EF08FFC18B11248FFF7C6
:1062100019FF1CE0082DEDD1204600F057FE0F4875
:10622000FFF710FF00230E4A04A9981890F80821E0
:106230008818084A995C0133082B00F80C1CF2D12D
:1062400000208DF80C0001A9064808F0D1F97FBDA7
:1062500070020020C4720108DE5D0108FE5D0108C5
:10626000EC260020205D010808B501F021FB01307B
:106270000CBF03480348BDE80840FFF7E3BE00BF7A
:10628000135E0108395E01082DE9F04105460EF064
:1062900027FD044601F0D2F8064694B92A48FFF7D4
:1062A000D1FE2A4951F8241049B1012202FA04F220
:1062B000324202D0264808F09BF90134F1E7254824
:1062C00021E02846244922460EF03AFD58B92348D9
:1062D000FFF7B8FE224C54F8041F0029EFD01C48E9
:1062E00008F086F9F7E72B782D2B04D10135013C16
:1062F0004FF0010801E04FF000080026134850F865
:10630000267027B91748BDE8F041FFF79BBE284625
:10631000394622460EF014FDA0B9012000FA06F01D
:10632000B8F1000F03D001F081F80F4802E000F04F
:10633000FBFE0E48FFF786FE0D483946BDE8F041EA
:1063400008F056B90136D9E7575E01083C5B0108F1
:10635000815D0108B27401088F6801086A5E010856
:10636000385B01087F5E0108995E0108A35E0108A1
:10637000205D010810B504460848FFF763FE084A8F
:10638000084809490023036013700B7003F0E6F816
:106390002046BDE81040FFF7FFBE00BFAC5E01081D
:1063A00094080020C4080020190F002008B50848F0
:1063B000FFF748FE012000F0BFFE0648FFF742FE4F
:1063C0000A2007F08CFA0020BDE8084007F046BB21
:1063D000C45E0108D15D0108F8B507460EF080FCE7
:1063E000044638B91A491B4B4A791B48511E53F8C9
:1063F000211028E03846194922460EF0A1FC60B968
:106400001748FFF71FFE174C54F8041F19B1164820
:1064100008F0EEF8F8E7154805E000250D4B53F8B5
:10642000256026B91248BDE8F840FFF70BBE384694
:10643000314622460EF084FC01350028EED1044896
:10644000314645710B48BDE8F84008F0D1B800BFAF
:10645000EC2600207C5B0108DF5E01088F680108E4
:10646000F35E0108785B0108815D0108B2740108E0
:10647000065F01081E5F010810B5044620460EF0B5
:106480002FFC10F0FF0F07D10B490C4891F878133F
:10649000BDE8104008F0ACB820460EF03FF90228E5
:1064A00008D8054B064C83F878030020014600F01D
:1064B000ADFDE3E710BD00BFEC260020305F010812
:1064C0005462010870B504460EF00AFC08B9204871
:1064D00030E020461F490FF07BF800242646254671
:1064E00078B12CB1012C06D10EF018F9064602E065
:1064F0000EF014F905460020164901340FF068F833
:10650000EEE70B2D05D914480C21BDE8704008F0CA
:106510006FB8012C08DC114A114832F915202946C0
:10652000BDE8704008F064B8A6F57A73B3F57A7FD9
:1065300004D90C48BDE8704008F05AB80A4829460A
:10654000324608F055F8054820F8156070BD00BFC8
:10655000465F01081E620108805F0108042B0020CD
:10656000A65F0108BE5F0108E05F010838B5054677
:106570000EF0B6FBC0B260B904461149114801EBF8
:106580004402D28F2146013408F032F8152CF4D1A0
:1065900038BD28460EF0C2F8142804460ADC202133
:1065A00028460EF0C1FA0EF0B9F8054B03EB44048F
:1065B000E08738BD04481521BDE8384008F018B818
:1065C00028260020F95F010805600108931E222B90
:1065D00088BF0A22031E10B50C4603DA2D2001F8ED
:1065E000010B5842FFF784FC00210170204610BDCA
:1065F00030B587B005460C4603A800210C220EF0EA
:10660000D7F928460021FDF719FD20B12846294970
:10661000FDF750FA03E028462649FDF749FA2649D6
:10662000FDF750FBFDF714FD054685EAE570A0EB8C
:10663000E5700A226946FFF7C9FF002D01DB202320
:1066400000E02D2368468DF80C300EF049FB012840
:1066500007D130228DF80D208DF80E208DF80F20F7
:106660000CE0022805D130218DF80D108DF80E10A8
:1066700004E0032802D130208DF80D00694603A8FC
:106680000EF02CFA03A80EF02BFBC51EEDB22A4625
:1066900003A920460EF0C2FB00236355204607499C
:1066A0000EF01CFA03A9204649190EF017FA2046ED
:1066B00007B030BD6F12033A00007A44DC5D010878
:1066C00037B5037904460D46052B34D8DFE803F0CF
:1066D00003060A0D1114816809782DE0806890F98D
:1066E000001029E08368198826E08268B2F900105A
:1066F00022E0816809681FE0806869460068FFF74A
:1067000077FF0146114807F073FFF5B1E068FDF728
:1067100085FA6946FFF76CFF01460D4807F068FFF0
:106720002069FDF77BFA6946FFF762FF01460848DA
:1067300007F05EFF09E00021064807F059FF25B188
:106740000548E168226907F053FF3EBD8C5D0108F2
:106750008B5D01082F6001082B6001082DE9F047CF
:1067600006460EF0BDFA054620B1012819D133784E
:106770002A2B16D14748FFF765FC002414266643F0
:10678000454F4648F15907F033FFB8192946FFF73E
:1067900097FF01344248FFF755FC682CEED1BDE865
:1067A000F08730463D210EF0BFF9002857D0441C39
:1067B00020460DF0B3FF82462046FFF7ADFB0027D1
:1067C000054614247C43DFF8D09054F809804046F5
:1067D0000EF086FA4146024630460EF0B1FA002825
:1067E00035D14C44E068FDF719FA01462846FDF71B
:1067F0001BFC002829D02069FDF710FA0146284625
:10680000FDF708FC002820D020792279052818BF40
:106810005546052A0FD8DFE802F003030606090CE7
:10682000A1680D7007E0A268158004E0A06805600B
:1068300001E0A1680D6041461A4807F0D9FE2046E4
:106840000021BDE8F047FFF73BBF174803E00137E1
:10685000682FB6D11548BDE8F047FFF7F3BB0446F3
:10686000142565430C4F314655F8078040460EF01D
:1068700039FD50B10948414607F0BAFE78190021A8
:10688000FFF71EFF064807F0B3FE0134682CE7D17E
:10689000BDE8F08732600108A46A010811610108AF
:1068A000B27401084760010852600108776001086E
:1068B0002DE9F043584885B0584C07F099FE5848E8
:1068C000FFF754FE6279574B511E574853F8211079
:1068D00007F08EFE20690021FDF788FB002858D1C3
:1068E0000025266900213046FDF780FB00284CD1A9
:1068F00001354E482946D4F81490D4F81880E76939
:1069000007F076FE30460021FDF77AFB10B14848CB
:1069100007F06EFE69463046FFF76AFE01464548BD
:1069200007F066FE48460021FDF76AFB10B14048BB
:1069300007F05EFE69464846FFF75AFE01463D48AD
:1069400007F056FE40460021FDF75AFB10B13848CB
:1069500007F04EFE69464046FFF74AFE01463548BD
:1069600007F046FE38460021FDF74AFB10B13048DB
:1069700007F03EFE69463846FFF73AFE01462E48CC
:1069800007F036FE10340C2DABD12C48691C07F0F3
:106990002FFE00F053FD2A4C064654F8041F19B18F
:1069A000284807F025FEF8E70D46274850F825103F
:1069B00049B1012202FA05F2324202D0234807F01F
:1069C00017FE0135F1E7154B214ACE1896F808411C
:1069D0008B5C04A801310519082905F8103CF2D197
:1069E00000241C4869468DF8084007F001FE142574
:1069F0006543194E1948A95907F0FAFD002170198D
:106A0000FFF75EFE01341648FFF71CFB682CEED141
:106A100005B0BDE8F08300BF94600108EC260020BB
:106A2000546201087C5B0108C4600108CF60010862
:106A30001E6201088C5D0108205D0108D760010815
:106A4000385B0108E96001083C5B0108F760010858
:106A5000C472010804610108A46A01080D610108FB
:106A6000B27401082DE9F04389B004460EF038F9FC
:106A7000C6B2002E6AD17948FFF7E4FA784C206953
:106A80000021FDF7B3FA38BB01367648314607F0EE
:106A9000AFFD206904A9FFF7ABFD0146724807F07E
:106AA000A7FD606904A9FFF7A3FD01466E4807F042
:106AB0009FFDA06904A9FFF79BFD01466A4807F006
:106AC00097FDE06904A9FFF793FD0146674807F0C9
:106AD0008FFD10340C2ED2D10025654C2F46A846D0
:106AE0004FF000091034B14514DA404654F8101C38
:106AF000FCF7E0FF54F80C1C80462846FCF7DAFF50
:106B000054F8081C05463846FCF7D4FF09F1010982
:106B10000746E7E75748CDF8048002950397FFF74B
:106B200091FA002401A82358534923F00040FDF7AF
:106B300085FA5249524A0434002814BF10460846C8
:106B4000FFF780FA0C2CEDD14E4870E020464E49FC
:106B500005220EF0F5F838B9414B0022C11810306B
:106B6000C0280A61F8D176E02046484904220EF098
:106B7000E7F80546204605BB20210DF0D5FF00288B
:106B800069D0461C30460EF0ABF82C46074640480C
:106B900050F824500DB93F4849E030462946FAB232
:106BA0000EF0CEF838B9204602F07AFD3A48294670
:106BB00007F01EFD47E00134E9E70DF0AFFD461E8A
:106BC0000B2E074643DC204620210DF0ADFF054685
:106BD00040B1451C2846FFF79FF9214B3F01D85192
:106BE000012400E00446284620210DF09DFF0546C3
:106BF00040B1451C2846FFF78FF91949013401EBD4
:106C000006125061284620210DF08EFF054640B146
:106C1000451C2846FFF780F9114B013403EB0611A0
:106C20008861284620210DF07FFF18B91B48FFF727
:106C300009FA10E00130FFF76FF9094A032C02EB63
:106C40000616F061F2D11648FFF70CFF03E0154875
:106C50000C2107F0CDFC09B0BDE8F0831F610108ED
:106C6000EC2600204A61010850610108205D0108FE
:106C700000270020546101080AD7233C1B6101084A
:106C800017610108B27401086361010869610108B4
:106C90007C5B0108065F01086E61010881610108E3
:106CA00054620108BB610108F0B5694B87B01A78DE
:106CB0003AB9012018706748FFF7C4F96648FFF732
:106CC000C1F9664C206806F0EAFE002800F0BD809D
:106CD000206806F0E9FE09280146614A01D03F28F4
:106CE00051D1002517685F4C2E462FB15E482168B0
:106CF0003A460EF025F810B9254606B926465B49F6
:106D00000C348C42F1D3C6B13468D5F800E03B4670
:106D1000E05C1EF8031081420DD1534A41B92D2B7E
:106D200006D820244E48D45401330360D15404E0E3
:106D3000D0540133ECE74A490B60494A14681CB14E
:106D4000AE4201D13C4612E04948FFF77BF9AE4222
:106D500009D856F80C0BFFF775F9404B0921186854
:106D600007F0B2F8F3E73C48FFF76CF900243C4B1E
:106D700018688442A5D239493B4A0868115D07F07A
:106D8000A3F80134F3E713682BB9042838D1364847
:106D9000FFF7F0FA59E00C2801D136488CE70A29B0
:106DA00001D00D2948D12E4D3348FFF74BF92E4C19
:106DB0002A6832490023A3540493009103A8294967
:106DC00010220C2303940DF0ADFC054638B1006889
:106DD0000DF086FF0130AA682018904702E028488D
:106DE000FFF730F9002130221F480DF0E1FD18486F
:106DF0001B4B027800211960002A7FF45FAF24E06A
:106E00000C28CAD07F2903D15BE72F2B3FF659AF5F
:106E10001F297FF656AF7E293FF653AF13B92029BD
:106E20003FF44FAF104C0E480C4AE154013303605D
:106E3000106807F049F844E77F29E6D10A485C1E4C
:106E40000021015514600F4839E707B0F0BD00BFBD
:106E5000190F0020E36101081B620108D42A0020F9
:106E6000C4080020D85B010894080020985C010841
:106E70002062010825620108B27401087D610008E2
:106E800030620108516201080E4B1A783A2A16D175
:106E90005888B0F55F7F12D11979BE290FD193F8C8
:106EA00079230020EF2A0CD113F8011B064A484031
:106EB0009342F9D1D0F1010038BF00207047002083
:106EC0007047704700F801087CFB010870B5054663
:106ED000441E14F8011F61B1064E30460DF024FE29
:106EE0000028F6D0861B0448631B811981F80831FD
:106EF000EFE770BDC4720108EC2600202DE9F843CD
:106F0000FFF7C2FF10B90A2006F08CFD3A4C3B494E
:106F100020464FF45F720DF09DFC94F878332046C4
:106F2000022B02D9002284F8782390F87813C42227
:106F300002FB0105324E05F5967130460DF08AFCD4
:106F400096F82070F47F002303FB03F01938784390
:106F500000F6C4165E43664340F6C412294D96FB04
:106F6000F2F125F813100133072BEDD1244C224AFE
:106F700094F821000A27474394F82260B2F8D050D1
:106F8000B2F8D2804342C0F1640E9CB25FFA8EFE2A
:106F9000C6F1640CC5EB0808002322B2002A04DC09
:106FA000B8BF014602DB012100E0714602FB02F995
:106FB000494309FB06F999FBF1F1614451434FF054
:106FC0000A0991FBF9F2B9180AB202FB08F14FF471
:106FD0007A7291FBF2F10C4A6918995202334C44CF
:106FE000182BA4B2D9D10648007803F0ADFBBDE858
:106FF000F84300F0D3BB00BFEC26002000F80108E6
:1070000028260020162C0020462B00202C4B70B583
:107010003A2206464FF45F701A705880BE25EF2260
:1070200000201D7183F8792383F87A0349B193F81E
:107030007813C42202FB0133224903F596700DF048
:1070400009FC00210D461E4A885C0131B1F55F7FC5
:1070500085EA0005F7D182F87A53002507F048FF4A
:10706000342007F059FF184807F0ACFF042811D16D
:10707000154C164B2046E15807F07AFF042805D03E
:10708000013507F041FF032DE8D103E0104A043435
:107090009442EED107F038FF032D02D0FFF7F4FE43
:1070A00010B90A2006F0BEFCFFF728FF36B10F200A
:1070B00014210122BDE8704003F08AB870BD00BF02
:1070C000EC2600202826002000F80108EC2EFE17F0
:1070D0007CFB0108034B196808420CBF002001200B
:1070E000704700BFC8080020024B1A6810431860A0
:1070F000704700BFC8080020024B1A6822EA00004F
:1071000018607047C8080020014B1868704700BF1E
:10711000C8080020034B996808420CBF00200120DA
:10712000704700BFEC260020024B9A68104398601D
:10713000704700BFEC2600202DE9F7430446FFF717
:10714000A3FE10B1002C00F05E81B04AB04D106873
:107150005168B04C6B4603C34FF45F720021284660
:107160000DF026FCC422002120460DF021FC3A201F
:107170000721287008206971FFF7D6FF1020FFF75C
:10718000D3FF2A232021A5F8EE3085F8F4102B2315
:1071900040F2DC514FF4FA70FA22A5F8F60085F8B7
:1071A00005312120A1F5C873A5F8121140F27E41E6
:1071B000A5F8F22085F806016E22A5F8143103F532
:1071C000487001F52F7300274FF0010885F804215E
:1071D000A5F816010422A5F8D0104FF47A70A3F593
:1071E000DE714FF41676A5F8F06085F81021A5F849
:1071F000D230A5F8D40085F87873A5F8F870A5F812
:10720000FA70A5F8FC7085F8E27085F8E37085F8EF
:10721000E470A5F8E670A5F8E870A5F8EA7085F8BE
:10722000ED7085F8EC8085F8077185F8297185F88F
:107230002A7185F8187185F8197185F81A81A5F8F1
:10724000D610A5F8DE004FF4E130C5F8200140F675
:10725000AC50A88140F2B4531E206C31A5F8DA304E
:10726000E072322320735520A5F8D810A5F8DC3041
:107270001946A5F8E030E0704FF496430B20C5F8AE
:10728000243160711723142085F81C7185F81D7155
:1072900085F8287185F81B7163752825A375A07181
:1072A0002D234FF0080E4FF00E09607450206373C9
:1072B000217184F810E0A37684F807902770657038
:1072C000A570E775A7732776E7736776E0765A208F
:1072D00020722375E07741234F4884F8203084F8EA
:1072E00021104E4B4E494FF00A094FF0640C4FF0FD
:1072F000780E84F82C20606315224A4884F82F20E9
:10730000216384F8129084F81CC0657284F80AE046
:1073100084F81E8084F8237084F8247084F8257023
:1073200084F82270A4F8408027856785E78484F874
:107330002D5084F82E50A36384F83C80FFF7C6FDDF
:10734000C8224FF4966140F2D9303E4684F8687006
:1073500084F8697084F86A5084F86B8084F86C70E3
:1073600084F8AE9084F8AF20A4F8B010A4F8B2006E
:107370004FF4FA621DF807004FF47F73A2F5FA711B
:107380000137A4F86E30A4F87020A4F8721084F8C5
:1073900074000834082FEBD11E4C0123C82214219D
:1073A00084F8B43084F8B53084F8B630A4F8B82046
:1073B00084F8BA1084F8BC301E2064234FF496720F
:1073C000282184F8BB00A4F8BE30A4F8C020A4F89B
:1073D000C21000240E48002223181034C02C1A6159
:1073E000F8D100241049C42260180A49C4340DF0B1
:1073F00031FAB4F5137FF5D10020014603B0BDE8A2
:10740000F043FFF703BE03B0BDE8F083A8590108BD
:10741000EC26002028260020F6287C3F3D0A773FF6
:107420009A99193FCD72010818280020024B9A68DA
:1074300022EA000098607047EC260020014B986813
:10744000704700BFEC26002010B5FCF7E7FB0021D9
:107450000446FCF7F3FD08B1204601E004F10040CA
:107460000549FCF7E3FC0549FCF72CFC0AF036FE65
:10747000034B186010BD00BF8096184B35FA8E3C48
:107480001C00002010B5044C00232070236106F07E
:1074900015FA606110BD00BF6C2A0020F8B5101A03
:1074A0000C461F46FCF7BAFB0546381BFCF7B6FB3B
:1074B000174B079E1968FCF705FC29460446284629
:1074C000FCF700FC214607462046FCF7FBFB014683
:1074D0003846FCF7EFFA0BF047F80E49FCF7F2FBE1
:1074E000FCF7DCFD06990860214605F100400AF032
:1074F000A5FE0949FCF7E6FB0849FCF7DBFAFCF7B7
:10750000A7FD0028BCBF00F50C40A0303060F8BDDE
:107510001C0000202C7D8E3FA00CB34500A00C4623
:10752000F8B51D4614460E46FCF778FB6968FCF773
:10753000C9FB3146FCF7C6FB2168FCF7BBFA2060AB
:10754000FCF786FDED68074605F10040FCF780FD7D
:1075500006462846FCF77CFD31460246384607F0D1
:1075600063F8FCF75BFB2060FCF772FDF8BD0000E0
:1075700010B50446002003460B49CA5C92B12E2A7E
:1075800004D1013374B1C91800220A55064A0A21F0
:10759000D25C4843A2F13001092901D83038801863
:1075A0000133E9E710BD00BF190A00202DE9F041C1
:1075B0002E4B93F81C0110B1012852D10AE02C4B3C
:1075C0000C2059782B4A41432B4B5068595806F0F0
:1075D00070FA43E0274D686806F070FA002840D042
:1075E000234C21782646012920D106F067F906466A
:1075F0006069321A632A37D92169042914D84FF0F7
:107600000C0808FB01F31C4F6868F95806F051FAA2
:10761000607808FB00776868796806F035FA2269B7
:107620006661511C21611CE0022018E022693AB910
:1076300064780C235C4310496868095906F039FAEC
:1076400033690B4C8B2B09D80C4A0A48D15C406833
:1076500006F015FA21694B1C236102E00320FFF7B5
:1076600011FF034800214160BDE8F081EC260020B5
:107670006C2A0020D42A00203C740108B073010851
:1076800010B51A4C2378581E03282DD8DFE800F0D7
:1076900002021C06BDE81040FFF788BF63786068EF
:1076A0005A1C411C0523D0B26160B0FBF3F103FB0F
:1076B0001102627006F002F90D4B0E49A060002025
:1076C0001870C87201200BE006F0F8F8A16840F6C7
:1076D000C412431A934207D92020FFF70DFD04205E
:1076E000BDE81040FFF7CEBE10BD00BF6C2A0020E1
:1076F000D62B00202E2B002010B50B4CE37A8BB13B
:107700000A48017804290DD9094A0A4B10685168C2
:1077100018605960FFF798FE0748084B028801215E
:107720001A80217310BD00BF2E2B0020D62B002005
:10773000B82B0020882B0020602C0020840900201A
:10774000002370B51C460F480021195214206043D5
:107750000D4A0E4E0E4D9952002232505953351893
:107760000C4E6960AA60325035180B4E01346960C6
:10777000AA6002333518022C32506960AA60E2D147
:1077800070BD00BF422B0020FA0C002044090020ED
:107790005E2B0020F8080020C809002070B5204C9E
:1077A000204D6079FCF736FA1F49FCF73FFB286053
:1077B000E07BFCF72FFA1C49FCF738FB1B4E686096
:1077C000EE60A079FCF726FA1949FCF72FFB194D5A
:1077D0002860207CFCF71EFA1349FCF727FB686041
:1077E000A07EFCF717FA1449FCF720FBEE60A860B6
:1077F000E079FCF70FFA0E49FCF718FB0F4D2860F3
:10780000607CFCF707FA0849FCF710FB6860E07E33
:10781000FCF700FA0849FCF709FBEE60A86070BDB0
:1078200028260020700900200000C8420000FA4409
:1078300000002041A409002000007A4434090020FF
:1078400038B505460020FFF71DFE4FF48070FFF7A6
:1078500061FC00281FD0104C657006F02FF8A06066
:107860000E48002390F81C11636000290CBF01240E
:107870000324FFF793FF0C225543094B09495A593A
:107880000948234606F0DAFB084948600120BDE8B4
:107890003840FFF7F7BD38BD6C2A0020EC260020E9
:1078A0003C740108797A000800440040D42A002082
:1078B000F8B51A4B187803282CD11949194D4C6882
:1078C000002210262027E2622E612F61144C60688E
:1078D00006F0E5F858B1134D10266E616068276810
:1078E00006F0E2F80146384606F0C9F82E610C4C65
:1078F000206806F0D4F80028E8D00A4D202694E845
:1079000081006E6106F0D0F80146384606F0B7F8FF
:107910002E61DBE74FF0FF30F8BD00BF6C2A00207E
:10792000D42A0020000C0140F7B50368164C174D0F
:1079300023600968164E61600068FFF785FD94E8D2
:107940000C0014480196009095E80300FFF7A6FD8F
:107950006B68114A61683668C81A1660FCF75EF9F0
:107960000E4A0F4F1168FCF7ADF9FCF771FB29685F
:10797000786020680B4A431A0B483B60B0F8BE1091
:107980000A4B16601980FEBD8C090020B82B002020
:10799000F0090020FC090020880900201C000020BC
:1079A000300A0020040A0020282600202C0A00208B
:1079B00044F25063984203DDA0F50C40A0387047B4
:1079C00003498842BCBF00F50C40A030704700BF9F
:1079D000B0B9FFFF244BF0B51D6802461678144677
:1079E000A9194B78013203F00401CBB2002BF5D179
:1079F000221A022A09DD13B10A225343DBB210F81E
:107A0000011B30395B18DBB2F2E70021844209D94F
:107A100011B10A225143C9B210F8012B303A89182A
:107A2000C9B2F3E72E2E11D10134042000220A2618
:107A300072432678AF197F7807F00407FFB217B1B9
:107A4000303A921901340138F1D100E000220748A0
:107A50004143642000FB021106220548B1FBF2F10C
:107A600000FB0310F0BD00BF7002002040420F0079
:107A700080969800000000002DE9F04F9F4B91B0D8
:107A800093F81C11C4B2012900F0DC8002D3022952
:107A900040F0BE85242C07D1994A9A489A49002380
:107AA000137003700B70C7E02C2C02D02A2C40F00E
:107AB0008280944D924A2978944B1578002058542E
:107AC000934AB5B918781570472868D15978502964
:107AD00065D19878472840F08985D978472940F0C2
:107AE00085851B79412B40F081850120107000F0C5
:107AF0007DBD117801293AD1022D05D11846FFF735
:107B000069FF844908604AE0032D07D11978532999
:107B100045D1804802685342036040E0042D05D1FE
:107B20001846FFF757FF7B4B586038E0052D07D10B
:107B30001B78572B33D177494A68504248602EE072
:107B4000062D07D119787448302994BF00210121EE
:107B5000C17224E0072D04D1FFF70AFD6F4A1070AF
:107B60001DE0092D1BD1FFF703FD6D4B16E0022927
:107B700015D1072D0CD10120FFF7FAFC41F2184274
:107B800050434FF47A71674BB0FBF1F0188006E078
:107B9000082D04D10120FFF7EBFC634B1880584BF4
:107BA0005849013500202A2C1D7008703BD15F49CF
:107BB0000120087040E00D2C5C4A01D00A2C28D12D
:107BC00013780BB3514908784978A0F13003DAB241
:107BD000092A84BFA0F13702D2B2A1F1300302F02A
:107BE0000F00DAB20001092A84BFA1F13702D2B234
:107BF000454B02F00F0140181A78C1B2B2EB010CEC
:107C0000DCF1000050EB0C03484A002111707BB9F5
:107C100012E03C490B780E2B03D83C48C454013386
:107C20000B70127842B9384B1A7854401C7003E03C
:107C300037480378012B00D00023D80700F13581A5
:107C400000F0E6BC3A4B00221978082900F2E084E3
:107C5000DFE801F00A05101827377C95A100622C97
:107C600001D1022294E01A70B52C40F0D18418782A
:107C7000421C8DE02F4D304A032119702C70147076
:107C80002E4B0BE02C4904251D700A782B4BA518B0
:107C90001878EAB210181870294B0A701C7000F09E
:107CA000B7BC254A05251D70244B15781978641931
:107CB000E4B2147064181C70224BC0B2188000F03B
:107CC000A7BC06221A701C4A1C4B15781978641937
:107CD000E4B2147064181C701A4B198801EB002070
:107CE00082B2B2F5007F01D81A8003E0002018802C
:107CF0000F4B18700022144900F076BCEC260020CF
:107D0000040B00200A0A0020B4090020190A0020F0
:107D1000000A0020B82B00202E2B0020D62B00209C
:107D2000402B0020622B0020BC0C00209409002076
:107D300083090020080A0020800900208109002012
:107D4000F4080020300900206C0900205E495F4DD6
:107D50000B782878E218D3B2181828705C4D0B7095
:107D60002A885C48C72A9CBF5B498C54511C8BB243
:107D70002B8005889D4240F04B84072207E00825B0
:107D80001D70514B1978A14200F042840022534BE0
:107D90001A7000F03DBC4D4D1A702878A04240F09A
:107DA00037844F4B197806293BD005D8022913D0C8
:107DB000032940F02D8423E0122947D0302940F0D8
:107DC00027844549474B0A794349102A88BF102226
:107DD0001A701D78002347E03F4B434D9A6859685D
:107DE00018692A60414A69604FF47A7590FBF5F191
:107DF0003F4B10783F4D1980E87201213E4A23E045
:107E0000354A557915F0010504D01079C11E4B4251
:107E100053EB0105354A1570002D39D13548C5722F
:107E200036E02D4DEB7A13F0010304D0A87AC11E81
:107E30004A4252EB01032D4D2B700BB92D48C372F2
:107E400025492E4A91F82F10117021E0224D2C491E
:107E50006869AA69088042F210732A4892FBF3F518
:107E600005800121284AEFE70C31AB4210DA11F806
:107E7000044C264811F8032C1C54254C25481A554F
:107E800011F8012C0C781A54234A9C540133EBE767
:107E9000194A1378002B00F0BB831B4D287800286B
:107EA00000F0B683002414702C701C4CA168E160B3
:107EB00005F004FDA0602020FFF716F9184B1A7892
:107EC000012A2FD100202EE0800900208109002006
:107ED0006C090020300900203C0A002083090020A2
:107EE000F4080020D72B0020B82B0020180A00200F
:107EF000402B00202E2B002082090020D62B0020B2
:107F0000622B0020BC0C0020090A00201C2B002042
:107F1000A72B0020C02B0020042C00206C2A00205E
:107F2000F40C002001207D491870CB7A002B00F062
:107F30006F837B4A1078042840F26A834E7806B932
:107F40000E730F7B17B90EB1FFF7D6FB754D0521E8
:107F50002C78754E631C93FBF1F201FB1230734FCA
:107F6000287096F800C0724D07EB80020023714C18
:107F700071491E59DFF80CE27048714F5E5096FB54
:107F8000FEF1195007FB0160DFF8FC9103EB040AD6
:107F900042F2107490FBF4F6B4B2176853F809601B
:107FA0001060C7EB06084044052643F8090090FB23
:107FB000F6F00EFB01016348BCF1010F25F8024FFA
:107FC000195005D1023CB4F5797F98BFCAF800106A
:107FD00004331432082BCAD105F070FC5A4D5B4CA7
:107FE0002A68801AFBF716FE5949FBF71FFF20602D
:107FF00005F064FC286025684FF07E512846FBF7A9
:10800000FFFF08B94FF07E550CA90DAA4948514B06
:1080100025600091019203C80CCBFFF73FFA0C9842
:108020006423B0FBF3F24C490D980A8090FBF3F304
:108030004A4A3A481380037B0BB90B8013804849A6
:108040000A78002A36D0414F4FF07E503968FBF74E
:10805000EDFE444D374E2B6804463068C01AFBF7DE
:10806000DDFD2146FBF72EFEFBF7F2FF6A68716823
:108070003D4D0746881AFBF7D1FD2968FBF722FE24
:108080002146FBF71FFEFBF7E3FF04B2374802254A
:10809000B0F902303FB2E11891FBF5F2B0F90010EF
:1080A00093B27A18324C92FBF5F18AB26380228047
:1080B000438002801F4A2A4B012018705168294BC7
:1080C000106859601860154B1A7A1AB9DB79002BC1
:1080D00000F09E82274E284D284C01960095154FA2
:1080E00094E80C00FFF7DAF961687868244E081A02
:1080F000FBF794FD1C4A1168FBF7E4FDFBF7A8FFB2
:1081000021683B68084A7060C81A92F90010306014
:1081100001293BD0022940F07B82F0E02E2B002089
:10812000D62B0020380A0020100D0020CC0800209B
:1081300094090020B82B0020100A0020B809002064
:10814000806967FF240900202C090020280A0020EC
:1081500000007A44882B0020862B0020902B0020E2
:10816000320900209C0900201C0000200C0A00207D
:10817000C2090020F0090020FC0900208C09002021
:10818000300A002080969800F409002000252C4633
:108190002E46DFF870B28A4F5BF82680DFF86092D7
:1081A0004046FBF73BFD3968FBF78CFDFBF750FFC2
:1081B00034F80930834AC01A81B2A1520FB2CDF807
:1081C0000890DFF8449238460397FBF727FDD9F86B
:1081D0000010FBF777FDFBF73BFF7B4983B21420D0
:1081E00000FB0617DFF8FCA1039ADAF8001002EB97
:1081F000080008933A464B46FFF792F9089B5BF854
:108200002610DFF80882DAF800B0181824F8080001
:1082100058460891FBF70AF9D7F808A0CDE9040100
:108220005046FBF703F9694ACDE9060192F8BA0016
:10823000FBF7F0FCFBF7FAF85FA3D3E90023FBF7A9
:1082400049F902460B4600206149FBF76DFADDE96A
:108250000423FAF78DFF02460B46DDE90401FBF724
:1082600063FA089BCDE9040178680136181AFBF718
:10827000D5FC5946FBF7DAFD5146FBF719FCFBF735
:10828000D5F802460B46DDE90401FBF723F90B465E
:108290000246DDE90601FAF76BFFFBF7B5FB089A2A
:1082A000D9F808107A603861B860FBF70BFDFBF76E
:1082B000CFFE48494FF4FA6206F0B6F9DDF808C07F
:1082C00034F8082034F80C30313399B2622998BF61
:1082D0000020801883B224F808303F4940F6B832B5
:1082E00018B206F0A1F9384928F804004A593B4869
:1082F00002342A501435022E00F08A8149E72F6893
:10830000324D7C08B5F9C080354DA04528BFA04648
:108310002E881FFA88F80FFA88F033B298420BDDE6
:10832000304A31491068FBF7CDFCFBF791FE81190B
:108330001FFA81F8A5F800802C4C2D4E2568306876
:108340002C1A2046FFF734FB0028D8BF404241F2E8
:1083500093139842CCBF00200120002858D020461B
:10836000FBF75CFC2349FBF7ADFC09F02BFF06464D
:108370003846FBF74FFC01463046FBF7A3FCFBF702
:1083800067FE1D4A1449108000B240F6B83206F06C
:108390004BF9291848F6A045A94203DDA1F50C4187
:1083A000A03904E00029BCBF01F50C41A0311348FD
:1083B00001602FE0AFF30080182D4454FB211940D9
:1083C0007009002020090020F8080020282600203D
:1083D0000000F03F30F8FFFF48F4FFFFC80900201D
:1083E0002C0A0020280A00200000C842F0090020C2
:1083F000040A0020D3023739C00900208809002070
:10840000C2090020300A0020A40900205E2B0020B1
:10841000834F3D60824C002523682C46C3F50C50E9
:108420002830FBF7FBFB7F49FBF74CFC074609F0C4
:1084300055FE0F90384609F0C5FE2F460E900EAE41
:108440000FFA88F0FBF7EAFB56F82710FBF73AFC27
:10845000754A0646105FFBF7E1FB01463046FBF725
:1084600027FBFBF7F5FDDFF8FCA14FF47A7224F847
:108470000A006E4900B206F0D7F881B20BB2DFF8FD
:10848000E89124F80A1018460393FBF7C7FBD9F8C4
:108490000010FBF717FCFBF7DBFD654A142606FB13
:1084A0000726DFF8C8B1039980B2324606904B46E2
:1084B0000846DBF80010FFF733F8DBF800C034F9AA
:1084C0000A3009906046D6F808A00893CDF808C095
:1084D000FAF7ACFFCDE904015046FAF7A7FFDFF841
:1084E00090B1CDE90A019BF8BA00FBF793FBFAF7CC
:1084F0009DFF49A3D3E90023FAF7ECFF02460B46A0
:1085000000204C49FBF710F9DDE90423FAF730FEAF
:108510000B460246DDE90401FBF706F9089ACDE9AE
:10852000040170680137101AFBF778FBDDF808C00A
:108530006146FBF77BFC5146FBF7BAFAFAF776FF88
:1085400002460B46DDE90401FAF7C4FF02460B467A
:10855000DDE90A01FAF70CFEFBF756FA089B099AC7
:1085600073603061B060069ED9F80810B618FBF74A
:10857000A9FBFBF76DFD30182F4E81B2A15308B255
:1085800040F6B8322D4906F04FF8294B3053EA58DF
:108590002B4802342A501435022F5B467FF44FAF2C
:1085A00093F8BC1031B11E4A64211068254A90FB33
:1085B000F1F010802449B3F8B830086898420DD91A
:1085C000224A234B11681868081AFFF7F1F942F2A2
:1085D00010720028B8BF4042904219DD1D4B1E4862
:1085E00001211970028817490A8011E01B498A7815
:1085F000522A7FF4D4AACB784D2B7FF4D0AA0879E5
:1086000043287FF4CCAA164A02211170FFF7C7BA9B
:1086100011B0BDE8F08F00BF182D4454FB21194064
:1086200088090020D3023739C209002018FCFFFF57
:10863000C80900200000F03F5E2B002048F4FFFF37
:10864000F8080020342C0020FC090020F00900204C
:10865000040A0020100D002084090020190A0020BF
:10866000000A00202009002034090020280A0020E8
:1086700028260020AFF300802DE9F84F384E04463D
:108680003768384609F02AFD0546384609F09AFD54
:1086900076688046304609F021FD8346304609F071
:1086A00091FDD4F80490064629464846FBF70AFB9C
:1086B000A768824641463846FBF704FB0146504610
:1086C000FBF7F6F9216882465846FBF7FBFA41466C
:1086D00004464846FBF7F6FA3146FBF7F3FA014643
:1086E0002046FBF7E7F9314604463846FBF7EAFA3D
:1086F0002946FBF7E7FA01462046FBF7DBF901467E
:10870000504609F09BFD1749FBF7DCFAFAF78EFE9D
:1087100011A3D3E90023FBF707F8134B04461868AD
:108720000D46FAF783FE02460B4620462946FAF725
:108730001FFD00220D4BFAF7F7FFFBF765F909F073
:1087400001FD81B20A0444BF00F5B47189B208B2D8
:10875000BDE8F88FAFF30080182D4454FB21094089
:10876000500B00200000E144180B002000002440C2
:108770000F4B10B51888FBF751FA0E490446FBF76A
:10878000A1FAFBF765FC0C49088021460B48FBF772
:108790004DFB0B49FBF74AFB0A4A10600820FEF725
:1087A00099FC18B1BDE8104003F09CB810BD00BFA3
:1087B00046000020C903683F140B00200AE81C4152
:1087C00000401C46A02A00202DE9F04F0C68836869
:1087D00089B0D0F800A0D0F8048006462046039364
:1087E0008B4609F07BFC0746204609F0EBFCDBF8E2
:1087F00004408146204609F071FC0546204609F0F8
:10880000E1FCDBF8082004461046019209F066FC02
:108810008346019809F0D6FC394602905846FBF78A
:1088200051FA394604900298FBF74CFA59460590E4
:108830004846FBF747FA029906904846FBF742FA8A
:10884000294607905846FBF73DFA01465046FBF78C
:1088500039FA214683460698FBF734FA0146059813
:10886000FBF728F901464046FBF72CFA014658462B
:10887000FBF720F9214683460498FBF723FA0146CB
:108880000798FBF715F901460398FBF71BFA014619
:108890005846FBF70FF93060029905F10040FBF7ED
:1088A00011FA01465046FBF70DFA21468346079818
:1088B000FBF708FA01460498FBF7FAF80146404630
:1088C000FBF700FA01465846FBF7F4F821468346C9
:1088D0000598FBF7F7F901460698FBF7EBF8014618
:1088E0000398FBF7EFF901465846FBF7E3F82146FA
:1088F00070605046FBF7E6F92946044609F100404E
:10890000FBF7E0F901464046FBF7DCF9014620465B
:10891000FBF7D0F8394604462846FBF7D3F9014661
:108920000398FBF7CFF901462046FBF7C3F8B06088
:1089300009B0BDE8F08F80EAE073A3EBE0738B42EF
:1089400006DB002801DD401A704702D0401870474E
:108950000020704700000000F0B5574B87B01A6840
:108960005B6802F1004203F100430193534B05465B
:10897000B3F900000092FBF751F900F10040FAF75B
:1089800055FD4BA3D3E90023FAF7A4FDFBF73CF810
:108990004B4C0290B4F90000FBF740F90390B4F996
:1089A0000200FBF73BF90490B4F90400FBF736F939
:1089B0006946059003A8FFF707FF424B93F83C3048
:1089C000012B16D14048417869B9404C40262268B5
:1089D00092FBF6F7D01BFBF721F90599FBF76AF834
:1089E000FBF736FB2060394B4021186890FBF1F013
:1089F00001E0374B1888FBF711F901460598FBF7A2
:108A000057F805902846FBF705F932490746FBF76A
:108A100051F801463846FBF709FA2F4E07463468ED
:108A200005982146FBF744F801463846FBF74AF91A
:108A300001462046FBF73EF8224C306009F082FBED
:108A400094F82D10FFF777FFFBF7E8F805900398EF
:108A500009F078FB94F82E10FFF76DFFFBF7DEF8B6
:108A60000390049809F06EFB94F82E10FFF763FF53
:108A7000FBF7D4F804901948194B01681A684C1C8C
:108A80000460184CAD1803981D60256809F05AFB66
:108A90002B1804986568236009F054FB2A18059880
:108AA000A568626009F04EFB2818A06007B0F0BD11
:108AB000399D52A246DF913F500B0020602C0020D0
:108AC000BC2A0020282600202E2B00202C0B002062
:108AD000460000203661823C440B0020480B0020F9
