:020000040800F2
:1030000000500020F95C0008A95D0008A1950008A7
:10301000A95D0008A95D0008A95D00080000000086
:10302000000000000000000000000000BD100108CA
:10303000A95D0008000000005911010875D90008B9
:10304000A95D0008A95D0008A95D0008A95D000848
:10305000A95D0008A95D0008A95D0008A95D000838
:10306000A95D0008A95D0008A95D0008A95D000828
:10307000A95D0008A95D000801E30008A95D00083A
:10308000A95D0008A95D0008A95D0008A95D000808
:103090007D1F0108A95D0008A95D0008A95D000861
:1030A000A95D0008A95D0008A95D0008795C000819
:1030B000855C00088D5C0008995C000811D600084A
:1030C000E5D7000815D60008E9D70008A95D000873
:1030D000A95D000835E3000871E30008A95D000858
:1030E000DD460008A95D0008811F010800000000FE
:1030F00000000000000000000000000000000000D0
:0C31000000000000000000005FF808F173
:1031100010B5054C237833B9044B13B10448AFF311
:1031200000800123237010BDBC06002000000000B9
:103130004CAF010808B5064B1BB106480649AFF372
:1031400000800648036813B1054B03B1984708BDDA
:10315000000000004CAF0108C0060020BC060020A3
:103160000000000081F0004102E000BF83F0004356
:1031700030B54FEA41044FEA430594EA050F08BF12
:1031800090EA020F1FBF54EA000C55EA020C7FEAD6
:10319000645C7FEA655C00F0E2804FEA5454D4EB53
:1031A0005555B8BF6D420CDD2C4480EA020281EA1D
:1031B000030382EA000083EA010180EA020281EA55
:1031C0000303362D88BF30BD11F0004F4FEA0131A7
:1031D0004FF4801C4CEA113102D0404261EB4101B6
:1031E00013F0004F4FEA03334CEA133302D052423C
:1031F00063EB430394EA050F00F0A780A4F10104F8
:10320000D5F1200E0DDB02FA0EFC22FA05F2801831
:1032100041F1000103FA0EF2801843FA05F3594117
:103220000EE0A5F120050EF1200E012A03FA0EFC96
:1032300028BF4CF0020C43FA05F3C01851EBE371C0
:1032400001F0004507D54FF0000EDCF1000C7EEBDD
:1032500000006EEB0101B1F5801F1BD3B1F5001F1B
:103260000CD349085FEA30004FEA3C0C04F101043A
:103270004FEA445212F5800F80F09A80BCF1004F63
:1032800008BF5FEA500C50F1000041EB045141EAE5
:10329000050130BD5FEA4C0C404141EB010111F4E6
:1032A000801FA4F10104E9D191F0000F04BF014691
:1032B0000020B1FA81F308BF2033A3F10B03B3F16F
:1032C00020020CDA0C3208DD02F1140CC2F10C02FF
:1032D00001FA0CF021FA02F10CE002F11402D8BF5D
:1032E000C2F1200C01FA02F120FA0CFCDCBF41EA29
:1032F0000C019040E41AA2BF01EB0451294330BDF8
:103300006FEA04041F3C1CDA0C340EDC04F11404D4
:10331000C4F1200220FA04F001FA02F340EA0300AB
:1033200021FA04F345EA030130BDC4F10C04C4F1F1
:10333000200220FA02F001FA04F340EA03002946D1
:1033400030BD21FA04F0294630BD94F0000F83F41B
:10335000801306BF81F480110134013D4EE77FEAFE
:10336000645C18BF7FEA655C29D094EA050F08BF4A
:1033700090EA020F05D054EA000C04BF194610462B
:1033800030BD91EA030F1EBF0021002030BD5FEA6F
:10339000545C05D14000494128BF41F0004130BD97
:1033A00014F580043CBF01F5801130BD01F00045EB
:1033B00045F0FE4141F470014FF0000030BD7FEA5E
:1033C000645C1ABF194610467FEA655C1CBF0B4659
:1033D000024650EA013406BF52EA033591EA030F70
:1033E00041F4002130BD00BF90F0000F04BF002168
:1033F000704730B54FF4806404F132044FF000059B
:103400004FF0000150E700BF90F0000F04BF002113
:10341000704730B54FF4806404F1320410F0004579
:1034200048BF40424FF000013EE700BF42004FEA74
:10343000E2014FEA31014FEA02701FBF12F07F43F1
:1034400093F07F4F81F06051704792F0000F14BFEE
:1034500093F07F4F704730B54FF4607401F0004532
:1034600021F0004120E700BF50EA010208BF704789
:1034700030B54FF000050AE050EA010208BF70477E
:1034800030B511F0004502D5404261EB41014FF4E7
:10349000806404F132045FEA915C3FF4DCAE4FF0EB
:1034A00003025FEADC0C18BF03325FEADC0C18BFD2
:1034B000033202EBDC02C2F1200300FA03FC20FA23
:1034C00002F001FA03FE40EA0E0021FA02F1144470
:1034D000C1E600BF70B54FF0FF0C4CF4E06C1CEA85
:1034E00011541DBF1CEA135594EA0C0F95EA0C0FFA
:1034F00000F0DEF82C4481EA030621EA4C5123EA6D
:103500004C5350EA013518BF52EA033541F480119B
:1035100043F4801338D0A0FB02CE4FF00005E1FB4E
:1035200002E506F00042E0FB03E54FF00006E1FB98
:1035300003569CF0000F18BF4EF0010EA4F1FF04DB
:10354000B6F5007F64F5407404D25FEA4E0E6D411B
:1035500046EB060642EAC62141EA55514FEAC5202C
:1035600040EA5E504FEACE2EB4F1FD0C88BFBCF5A8
:10357000E06F1ED8BEF1004F08BF5FEA500E50F159
:10358000000041EB045170BD06F0004646EA01011F
:1035900040EA020081EA0301B4EB5C04C2BFD4EB51
:1035A0000C0541EA045170BD41F480114FF0000E4A
:1035B000013C00F3AB8014F1360FDEBF002001F0B8
:1035C000004170BDC4F10004203C35DA0C341BDC32
:1035D00004F11404C4F1200500FA05F320FA04F004
:1035E00001FA05F240EA020001F0004221F0004138
:1035F00010EBD37021FA04F642EB06015EEA430EAB
:1036000008BF20EAD37070BDC4F10C04C4F12005DA
:1036100000FA04F320FA05F001FA04F240EA02008D
:1036200001F0004110EBD37041F100015EEA430E5E
:1036300008BF20EAD37070BDC4F1200500FA05F27E
:103640004EEA020E20FA04F301FA05F243EA0203FD
:1036500021FA04F001F0004121FA04F220EA02000C
:1036600000EBD3705EEA430E08BF20EAD37070BD52
:1036700094F0000F0FD101F00046400041EB010132
:1036800011F4801F08BF013CF7D041EA060195F014
:10369000000F18BF704703F00046520043EB0303CE
:1036A00013F4801F08BF013DF7D043EA06037047BB
:1036B00094EA0C0F0CEA135518BF95EA0C0F0CD0C6
:1036C00050EA410618BF52EA4306D1D181EA03010C
:1036D00001F000414FF0000070BD50EA410606BF06
:1036E0001046194652EA430619D094EA0C0F02D14B
:1036F00050EA013613D195EA0C0F05D152EA033690
:103700001CBF104619460AD181EA030101F00041AD
:1037100041F0FE4141F470014FF0000070BD41F0F6
:10372000FE4141F4780170BD70B54FF0FF0C4CF4D0
:10373000E06C1CEA11541DBF1CEA135594EA0C0FEF
:1037400095EA0C0F00F0A7F8A4EB050481EA030E3C
:1037500052EA03354FEA013100F088804FEA033323
:103760004FF0805545EA131343EA12634FEA0222F1
:1037700045EA111545EA10654FEA00260EF00041B2
:103780009D4208BF964244F1FD0404F5407402D204
:103790005B084FEA3202B61A65EB03055B084FEA95
:1037A00032024FF480104FF4002CB6EB020E75EB92
:1037B000030E22BFB61A754640EA0C005B084FEABA
:1037C0003202B6EB020E75EB030E22BFB61A754637
:1037D00040EA5C005B084FEA3202B6EB020E75EB82
:1037E000030E22BFB61A754640EA9C005B084FEAFA
:1037F0003202B6EB020E75EB030E22BFB61A754607
:1038000040EADC0055EA060E18D04FEA051545EAF5
:1038100016754FEA06164FEAC30343EA52734FEA9E
:10382000C2025FEA1C1CC0D111F4801F0BD141EA17
:1038300000014FF000004FF0004CB6E711F4801F7C
:1038400004BF01430020B4F1FD0C88BFBCF5E06F5C
:103850003FF6AFAEB5EB030C04BFB6EB020C5FEA6C
:10386000500C50F1000041EB045170BD0EF0004EC1
:103870004EEA113114EB5C04C2BFD4EB0C0541EAF3
:10388000045170BD41F480114FF0000E013C90E6F0
:1038900045EA060E8DE60CEA135594EA0C0F08BFB4
:1038A00095EA0C0F3FF43BAF94EA0C0F0AD150EAB3
:1038B00001347FF434AF95EA0C0F7FF425AF104646
:1038C00019462CE795EA0C0F06D152EA03353FF46E
:1038D000FDAE1046194622E750EA410618BF52EAEB
:1038E00043067FF4C5AE50EA41047FF40DAF52EABF
:1038F00043057FF4EBAE12E74FF0FF3C06E000BF5C
:103900004FF0010C02E000BF4FF0010C4DF804CD68
:103910004FEA410C7FEA6C5C4FEA430C18BF7FEA28
:103920006C5C1BD001B050EA410C0CBF52EA430C56
:1039300091EA030F02BF90EA020F0020704710F1D6
:10394000000F91EA030F58BF994208BF90422CBF65
:10395000D8176FEAE37040F0010070474FEA410C5E
:103960007FEA6C5C02D150EA013C07D14FEA430C7C
:103970007FEA6C5CD6D152EA033CD3D05DF8040BED
:10398000704700BF8446104662468C46194663461F
:1039900000E000BF01B5FFF7B7FF002848BF10F1F6
:1039A000000F01BD4DF808EDFFF7F4FF0CBF01203B
:1039B00000205DF808FB00BF4DF808EDFFF7EAFFB7
:1039C00034BF012000205DF808FB00BF4DF808ED72
:1039D000FFF7E0FF94BF012000205DF808FB00BF67
:1039E0004DF808EDFFF7CEFF94BF012000205DF8F1
:1039F00008FB00BF4DF808EDFFF7C4FF34BF0120FE
:103A000000205DF808FB00BF4FEA4102B2F1E0433D
:103A100024BFB3F5001CDCF1FE5C0DD901F0004CB5
:103A20004FEAC0024CEA5070B2F1004F40EB830005
:103A300008BF20F00100704711F0804F21D113F131
:103A40003872BCBF01F00040704741F480114FEA6A
:103A50005252C2F11802C2F1200C10FA0CF320FAF3
:103A600002F018BF40F001004FEAC1234FEAD32310
:103A700003FA0CFC40EA0C0023FA02F34FEA43037A
:103A8000CCE77FEA625307D150EA01331EBF4FF003
:103A9000FE4040F44000704701F0004040F0FE401E
:103AA00040F40000704700BF80F0004002E000BF1B
:103AB00081F0004142001FBF5FEA410392EA030F19
:103AC0007FEA226C7FEA236C6AD04FEA1262D2EB63
:103AD0001363C1BFD218414048404140B8BF5B4268
:103AE000192B88BF704710F0004F40F4000020F001
:103AF0007F4018BF404211F0004F41F4000121F017
:103B00007F4118BF494292EA030F3FD0A2F1010260
:103B100041FA03FC10EB0C00C3F1200301FA03F19E
:103B200000F0004302D5494260EB4000B0F5000FC1
:103B300013D3B0F1807F06D340084FEA310102F180
:103B40000102FE2A51D2B1F1004F40EBC25008BF32
:103B500020F0010040EA03007047490040EB0000FC
:103B600010F4000FA2F10102EDD1B0FA80FCACF12B
:103B7000080CB2EB0C0200FA0CF0AABF00EBC2502A
:103B800052421843BCBFD0401843704792F0000F18
:103B900081F4000106BF80F400000132013BB5E76B
:103BA0004FEA41037FEA226C18BF7FEA236C21D0E1
:103BB00092EA030F04D092F0000F08BF0846704746
:103BC00090EA010F1CBF0020704712F07F4F04D114
:103BD000400028BF40F00040704712F100723CBF27
:103BE00000F50000704700F0004343F0FE4040F451
:103BF000000070477FEA226216BF08467FEA23630F
:103C00000146420206BF5FEA412390EA010F40F4F9
:103C1000800070474FF0000304E000BF10F0004345
:103C200048BF40425FEA000C08BF704743F096432C
:103C300001464FF000001CE050EA010208BF704747
:103C40004FF000030AE000BF50EA010208BF7047CE
:103C500011F0004302D5404261EB41015FEA010CE3
:103C600002BF84460146002043F0B64308BFA3F1DB
:103C70008053A3F50003BCFA8CF2083AA3EBC253BD
:103C800010DB01FA02FC634400FA02FCC2F12002DC
:103C9000BCF1004F20FA02F243EB020008BF20F013
:103CA0000100704702F1200201FA02FCC2F1200279
:103CB00050EA4C0021FA02F243EB020008BF20EA6E
:103CC000DC7070474FF0FF0C1CEAD0521EBF1CEA9C
:103CD000D15392EA0C0F93EA0C0F6FD01A4480EA8A
:103CE000010C400218BF5FEA41211ED04FF0006373
:103CF00043EA501043EA5111A0FB01310CF000409F
:103D0000B1F5000F3EBF490041EAD3715B0040EAC4
:103D1000010062F17F02FD2A1DD8B3F1004F40EB94
:103D2000C25008BF20F00100704790F0000F0CF067
:103D3000004C08BF49024CEA502040EA51207F3A2B
:103D4000C2BFD2F1FF0340EAC250704740F4000006
:103D50004FF00003013A5DDC12F1190FDCBF00F0F7
:103D600000407047C2F10002410021FA02F1C2F1A5
:103D7000200200FA02FC5FEA310040F1000053EA41
:103D80004C0308BF20EADC70704792F0000F00F08F
:103D9000004C02BF400010F4000F013AF9D040EA95
:103DA0000C0093F0000F01F0004C02BF490011F429
:103DB000000F013BF9D041EA0C018FE70CEAD15327
:103DC00092EA0C0F18BF93EA0C0F0AD030F0004CA7
:103DD00018BF31F0004CD8D180EA010000F000405B
:103DE000704790F0000F17BF90F0004F084691F019
:103DF000000F91F0004F14D092EA0C0F01D1420253
:103E00000FD193EA0C0F03D14B0218BF084608D11B
:103E100080EA010000F0004040F0FE4040F4000065
:103E2000704740F0FE4040F4400070474FF0FF0CF8
:103E30001CEAD0521EBF1CEAD15392EA0C0F93EA3F
:103E40000C0F69D0A2EB030280EA010C49024FEA91
:103E5000402037D04FF0805343EA111143EA10134A
:103E60000CF000408B4238BF5B0042F17D024FF402
:103E7000000C8B4224BF5B1A40EA0C00B3EB510FDD
:103E800024BFA3EB510340EA5C00B3EB910F24BFC6
:103E9000A3EB910340EA9C00B3EBD10F24BFA3EB4B
:103EA000D10340EADC001B0118BF5FEA1C1CE0D113
:103EB000FD2A3FF650AF8B4240EBC25008BF20F0C6
:103EC000010070470CF0004C4CEA50207F32C2BF1A
:103ED000D2F1FF0340EAC250704740F400004FF0B7
:103EE0000003013A37E792F0000F00F0004C02BFE8
:103EF000400010F4000F013AF9D040EA0C0093F0B2
:103F0000000F01F0004C02BF490011F4000F013B0B
:103F1000F9D041EA0C0195E70CEAD15392EA0C0F73
:103F200008D142027FF47DAF93EA0C0F7FF470AFAB
:103F3000084676E793EA0C0F04D14B023FF44CAFEE
:103F400008466EE730F0004C18BF31F0004CCAD183
:103F500030F000427FF45CAF31F000437FF43CAFBF
:103F60005FE700BF4FF0FF3C06E000BF4FF0010CE1
:103F700002E000BF4FF0010C4DF804CD4FEA4002C3
:103F80004FEA41037FEA226C18BF7FEA236C11D00D
:103F900001B052EA530C18BF90EA010F58BFB2EBC0
:103FA000030088BFC81738BF6FEAE17018BF40F040
:103FB000010070477FEA226C02D15FEA402C05D1F4
:103FC0007FEA236CE4D15FEA412CE1D05DF8040B79
:103FD000704700BF844608466146FFE70FB5FFF70C
:103FE000C9FF002848BF10F1000F0FBD4DF808EDC4
:103FF000FFF7F4FF0CBF012000205DF808FB00BFB5
:104000004DF808EDFFF7EAFF34BF012000205DF80E
:1040100008FB00BF4DF808EDFFF7E0FF94BF01205B
:1040200000205DF808FB00BF4DF808EDFFF7D2FF58
:1040300094BF012000205DF808FB00BF4DF808ED9B
:10404000FFF7C8FF34BF012000205DF808FB00BF68
:104050004FEA4002B2F1FE4F0FD34FF09E03B3EB95
:1040600012620DD94FEA002343F0004310F0004FD5
:1040700023FA02F018BF404270474FF0000070472B
:1040800012F1610F01D1420205D110F0004008BFCA
:104090006FF0004070474FF00000704742000ED2B2
:1040A000B2F1FE4F0BD34FF09E03B3EB126209D473
:1040B0004FEA002343F0004323FA02F070474FF029
:1040C0000000704712F1610F01D1420202D14FF09E
:1040D000FF3070474FF00000704700BF844641EA50
:1040E000000313F0030349D1403A23D30B68036064
:1040F0004B6843608B688360CB68C3600B69036166
:104100004B6943618B698361CB69C3610B6A03624D
:104110004B6A43628B6A8362CB6AC3620B6B036335
:104120004B6B43638B6B8363CB6BC363403040311A
:10413000403ADBD230320BD30B6803604B684360EC
:104140008B688360CB68C36010301031103AF3D2B3
:104150000C3205D351F8043B40F8043B043AF9D241
:10416000043208D0D2071CBF11F8013B00F8013B14
:1041700001D30B8803806046704700BF082A13D321
:104180008B07B1D010F00303AED0C3F10403D21AF1
:10419000DB071CBF11F8013B00F8013BA4D331F849
:1041A000023B20F8023B9FE7043AD9D3013A11F8C9
:1041B000013B00F8013BF9D20B7803704B78437058
:1041C0008B788370604670472DE9F041057890B098
:1041D00000350646344818BF01250AF069FF334B05
:1041E00000240593324BA54206930CBF234680233F
:1041F0000A934FF480730B934FF480630C934FF04A
:1042000020030CBF4FF001084FF002080D93264821
:104210004FF4005305A90E930794CDF8208009941C
:104220000F940AF0BDFF204801210AF0E4FF0127A6
:104230004FF460231F486946029300948DF80450A0
:104240008DF8057003948DF810800AF097FE1948D8
:104250000A213A4603230AF0E2FE2DB115483178CF
:10426000022203230AF0DBFE124801210AF0B3FE0A
:10427000104801210AF0A6FE0E480AF0B5FE0D48CE
:104280000AF0B7FE0028FAD10A480AF0B6FE09483B
:104290000AF0B8FE0028FAD1064801210AF0B6FE5D
:1042A00010B0BDE8F08100BF080002404C2401407E
:1042B000D806002000240140024B33F8100080B2E1
:1042C000704700BFD80600202DE9FF41334B8046E0
:1042D0001B78002B3BD00024254626462746082283
:1042E0000DEB02035320322109F0E4FA9DF8092076
:1042F0009DF80830013403EB02231BB29DF80B201C
:104300001F449DF80A30E4B203EB02231BB21E44A3
:104310009DF80D209DF80C30202C03EB02231BB2DE
:104320001D449DF80F3003F07F0301D0002BD6D140
:104330001B4B97FBF4F796FBF4F695FBF4F5ADF801
:104340000070ADF80260ADF804501C701DE006224C
:1043500002AB5320322109F0ADFA9DF809209DF8F7
:10436000083003EB0223ADF800309DF80B209DF8D8
:104370000A3003EB0223ADF802309DF80D209DF8C2
:104380000C3003EB0223ADF80430064B684641467F
:104390001A780AF083FC04B0BDE8F081DC06002046
:1043A000DD06002000000020154B10B51B780446E8
:1043B0002D21532008227BB109F072FA31210A2203
:1043C000532009F06DFA2C210C22532009F068FAD1
:1043D00053203821902209E009F062FA31210A22A3
:1043E000532009F05DFA53202C210A2209F058FAD3
:1043F000044B40F209121A800CB1034B1C7010BD23
:10440000DC060020460000200000002037B5114BDC
:104410000C461A68104B00219A4205468DF8071089
:1044200001D1002013E0532001220DF1070309F010
:1044300041FA0028F5D09DF80730E52BF1D12A7814
:10444000064B01201A70064B2360064B636003B0D5
:1044500030BD00BF64010020001BB700DC06002057
:10446000A9430008C94200081FB504466B46022153
:104470000622182009F01EFA9DF800309DF8012050
:104480009B0803EB0223ADF808309DF802309DF83D
:1044900003209B0803EB0223ADF80A309DF804309B
:1044A0009DF805209B0803EB0223ADF80C30044B6C
:1044B00002A821461A780AF0F1FB04B010BD00BF33
:1044C0000100002010B50F2108220446182009F031
:1044D000E7F90E221820102109F0E2F9034B4FF4FE
:1044E00080521A800CB1024B1C7010BD4600002097
:1044F0000100002037B5002402AB054603F8014D4A
:1045000018202146012209F0D5F950B19DF8073055
:10451000FB2B05D1044B01202B60044B6B6000E0AA
:10452000204603B030BD00BFC54400086944000800
:10453000324B2DE9F0411C88314B0A265A89B3F9D8
:104540001250A41A1A89ED025443B3F91420E4134B
:10455000224495FBF2F22244DA615643A2F57A62D4
:1045600002FB02F4B3F90480B3F902C0B3F90E7090
:1045700002FB0CFC02FB08F2B3F90C802413674326
:1045800004FB08F4241404EB62320232DC8892103B
:1045900002F50042B3F920506243B3F900304FEA0C
:1045A000EC2404EBE72404EB8304AC40154B023409
:1045B0001B68D20BA3EBA4044CF250332B41634392
:1045C00055BF5B00B3FBF2F3B3FBF2F35B001A12CF
:1045D000524340F6DE3462430B4C08365C432414ED
:1045E00004EB224202F6CF62361103EB221300B134
:1045F000036001B10E60BDE8F08100BF0E0700202E
:10460000E40600200807002043E3FFFF114B07B535
:104610001B781BB9104B1A8801321A8001ABF621A6
:104620000322772009F046F99DF805209DF8043013
:10463000120242EA03429DF806301A43074BB3F9CF
:104640002030C3F10803DA40054B1A6003B05DF86F
:1046500004FB00BFDE060020E0060020E406002088
:10466000080700200C4B07B51B781BB90B4B1A88A9
:1046700001321A8001ABF6210222772009F01AF9E3
:104680009DF805309DF8042043EA0222044B1A806D
:1046900003B05DF804FB00BFDE060020E00600204A
:1046A0000E070020064B002193F82020054B9201B5
:1046B000343219707720F42102F0FC0209F0F0B8CE
:1046C000E4060020DE060020034B00221A7077204B
:1046D000F4212E2209F0E4B8DE06002010B54FF4D4
:1046E00080400AF0E5FD0128044605D14FF48040E2
:1046F0000AF0ECFD014B1C7010BD00BFDE0600206F
:104700002DE9F0476B4B8CB01A686B4B05469A420B
:1047100000F0CA80DFF8C0A19AF80080B8F1000F5D
:1047200040F0C480654F4FF40059022610233846EC
:1047300002A94FF480448DF80B608DF80A30ADF873
:10474000089008F097FD0423384602A98DF80A3036
:10475000ADF8084008F08EFD0E213046C7F81090E5
:1047600008F0C1FD0126082304A804948DF8153033
:104770008DF814808DF816600AF060FD28238DF8FE
:104780000C3003A80F238DF80D308DF80E308DF806
:104790000F600AF0BFFB142009F025F932460DF135
:1047A00007037720D02109F085F89DF80730444CA5
:1047B0000322552BE375228418BFC7F8149073D1D8
:1047C000D12132460DF10703772009F073F89DF8E7
:1047D0000730772003F00F021B092276637616223A
:1047E00006ABAA2109F066F89DF818209DF819304B
:1047F00043EA022323809DF81A209DF81B3043EAE8
:10480000022363809DF81C209DF81D3043EA02239B
:10481000A3809DF81E209DF81F3043EA0223E38009
:104820009DF820209DF8213043EA022323819DF842
:1048300022209DF8233043EA022363819DF824203F
:104840009DF8253043EA0223A3819DF826209DF898
:10485000273043EA0223E3819DF828209DF8293080
:1048600043EA022323829DF82A209DF82B3043EA55
:10487000022363829DF82C209DF82D3043EA022309
:10488000A38241F270738AF800602B8046F6781399
:104890006B800C4B6B600C4BAB600C4BEB600C4BB0
:1048A0002B610C4B6B6101E0002000E001200CB09B
:1048B000BDE8F08764010020001BB7000010014034
:1048C000E4060020C946000865460008A546000821
:1048D0000D460008314500080C0700202DE9F04F77
:1048E000504A514E1768738984463089A7EB0327D5
:1048F00085B0039187FB0001B288CB111404C20973
:10490000F08842EA416287FB000114EB02087288DA
:104910004FF000054FEAC2344FEA1022B08945EB50
:10492000030942EA01620B1287FB000114EB020A41
:104930004FEAD05242EA41224FF0000545EB030B0B
:1049400012F5FA604FEAE15343F10001CDE90001AD
:10495000B0F5FA6F71F1000147DAA2FB024502FBE4
:1049600003F1052605EB4105A4FB060106FB051135
:104970004D104FEA3004B8EB040869EB05098408D0
:104980002A4844EA81748D104FF0FF31BAEB040AD3
:104990006BEB050BDDE9004584428D4125DA40F6DD
:1049A000AC5012184FF0000143EB010302FB03F17E
:1049B000A2FB02236FF0060003EB4103544200FB0D
:1049C0000344A2FB000118EB000821444FF00B0444
:1049D00049EB0109A2FB040104FB031149104FEA52
:1049E0003000BAEB000A6BEB010B114B1A68A2FB0B
:1049F0000A0102FB0B11420D42EAC1224B15B2EB38
:104A0000080263EB0903D00B40EA4340BCF1000FFE
:104A100001D0CCF80000039808B10099016005B0FE
:104A2000BDE8F08F140700201807002024FAFFFFCC
:104A30001007002007B5002101AB0322772008F002
:104A400039FF9DF805009DF80430000240EA03405C
:104A50009DF80630184303B05DF804FB08B5FFF776
:104A6000E9FF014B186008BD1007002008B5FFF7EB
:104A7000E1FF014B186008BD140700207720482192
:104A8000012208F00DBF77205821012208F008BF4D
:104A9000444BF7B51A68444B04469A420FD0434D35
:104AA00002234FF400568DF807302846102301A941
:104AB000ADF804608DF8063008F0DCFB6E610A206A
:104AC00008F091FF7720A02101220DF1030308F0E7
:104AD000F1FE002863D01E210122772008F0E0FEBD
:104AE0004FF42F6008F074FF0025A5F16001002647
:104AF000022201AB7720C9B28DF804608DF8056001
:104B000008F0D8FE9DF804209DF8053043EA022302
:104B1000274AAB520235102DE7D1D789314607F02D
:104B20000F0507F47F47D7810123505A023100282F
:104B300018BF00231029F8D103BB194611F0010F4B
:104B40004FEA610004D012F810004340082004E04E
:104B500032F8100083EA1023F8E71E0448BF83F4FC
:104B6000C05301384FEA4303F7D101311029E5D191
:104B7000C3F303332F439D42D78101D000200EE0C1
:104B800042F21073238063800A4B012063600A4B5A
:104B9000A3600A4BE3600A4B23610A4B636103B0D5
:104BA000F0BD00BF64010020001BB70000100140F1
:104BB00018070020874A00086D4A00087D4A00084F
:104BC0005D4A0008DD48000837B5002402AB054601
:104BD00003F8014D1E200A21012208F06BFE50B19E
:104BE0009DF80730482B03D125B1044B1D7001E01F
:104BF000204600E0012003B030BD00BF10000020BF
:104C000030B585B00622054603216B461E2008F00C
:104C100051FE9DF801309DF800001A4C43EA002037
:104C200000B2FEF7FBFF2168FFF74CF8FFF710FA20
:104C30009DF80330ADF808009DF8020043EA00201B
:104C400000B2FEF7EBFFA168FFF73CF8FFF700FAB0
:104C50009DF80530ADF80C009DF8040043EA0020F3
:104C600000B2FEF7DBFF6168FFF72CF8FFF7F0F901
:104C7000054BADF80A00294602A81A780AF00EF88A
:104C800005B030BD04000020100000202DE9FF41D8
:104C9000634B644A1B6893420DD14FF48053ADF8C7
:104CA000043002238DF8073004238DF806305E4867
:104CB0000DEB030108E05D4A934207D104A94FF4CC
:104CC00080435B4821F80C3D08F0D4FA322008F00C
:104CD0008AFE002111221E2008F0E2FD012160223F
:104CE0001E2008F0DDFD642008F07DFE02A8FFF71D
:104CF00087FF00240A2527462646022101221E207E
:104D000008F0CEFD322008F06EFE02A8FFF778FF13
:104D1000BDF90820BDF90A10BDF90C3014449142C8
:104D2000B8BF0A461E449A42B8BF134613F5805FC7
:104D30000F4409DD3C4B013DDA6882F02002DA6065
:104D4000DBD14FF0010801E04FF000081E200021E8
:104D5000122208F0A5FD0A25022101221E2008F0DA
:104D60009FFD322008F03FFE02A8FFF749FFBDF982
:104D70000820BDF90A10BDF90C30A41A9142B8BF41
:104D80000A46F61A9A42B8BF134613F5805FC1EB84
:104D9000070707DD244B013DDA6882F02002DA6064
:104DA000DAD101E04FF000082046FEF737FF014658
:104DB0002048FFF73BF8204D20F00040286038469F
:104DC000FEF72CFF01461B48FFF730F820F00040AB
:104DD00068603046FEF722FF01461848FFF726F8C4
:104DE00020F00040A860002170221E2008F058FD2D
:104DF000012120221E2008F053FD1E200221002246
:104E000008F04EFD642008F0EEFDB8F1000F04D16B
:104E10004FF07E532B606B60AB6004B0BDE8F08157
:104E20006401002000127A00000C0140001BB70052
:104E30000010014000406F460400002001C05E46A3
:104E40001FB504466B46012106221C2008F032FDE6
:104E50009DF801309DF800209DF8021043EA0222DF
:104E600042F38D02042392FBF3F2ADF808209DF883
:104E7000032002A842EA012242F38D0292FBF3F2E0
:104E80009DF80410ADF80A209DF8052042EA0122A1
:104E900042F38D0292FBF3F3ADF80C30034B214645
:104EA0001A7809F0FBFE04B010BD00BF110000200D
:104EB00037B52023ADF8043004230DEB03010224A1
:104EC00005461C488DF806308DF8074008F0D2F9E9
:104ED0002A2100221C2008F0E3FC0E2122461C207F
:104EE00008F0DEFC0F2103221C2008F0D9FC2B2146
:104EF00012221C2008F0D4FC2C2122461C2008F091
:104F0000CFFC2D2101221C2008F0CAFC2E210022FA
:104F10001C2008F0C5FC05221C202A2108F0C0FC3A
:104F2000054B4FF480721A800DB1044B1D7003B015
:104F300030BD00BF000801404600002011000020E5
:104F400013B500238DF807300F4B04461A680F4B3A
:104F50009A4201D1002015E01C200D2101220DF103
:104F6000070308F0A7FC0028F4D09DF807302A2B8F
:104F700001D01A2BEED1064A01202260054A626058
:104F8000054A137002B010BD64010020001BB70079
:104F9000B14E0008414E00082807002013B5022238
:104FA000044601AB1B21682008F084FC9DF8042016
:104FB0009DF8053043EA022303F54E534FF48C72FB
:104FC000103393FBF2F32333238002B010BD0000B3
:104FD0001FB504466B461D210622682008F06AFCB6
:104FE0009DF801309DF800209DF8021043EA02224E
:104FF00012B2042392FBF3F2ADF808209DF80320CF
:1050000002A842EA012212B292FBF3F29DF80410C8
:10501000ADF80A209DF8052042EA012212B292FB67
:10502000F3F3ADF80C30034B21461A7809F036FE45
:1050300004B010BD1300002010B50446192008F07C
:10504000D2FC68201521002208F02AFC10B90320A8
:1050500008F060FD0D4B16211A78682042F0180206
:1050600008F01EFC17210022682008F019FC3D21E1
:105070000122682008F014FC68203E21012208F07B
:105080000FFC0CB1024B1C7010BD00BF12000020C1
:105090001300002038B5054619200C4608F0A3FC83
:1050A00068201521002208F0FBFB18B3124B622C7C
:1050B0002B60124B6B60124BAB60124BEB60124BD0
:1050C0000FD004D80A2C12D0142C0ED00BE0BC2C1C
:1050D00004D0B4F5807F06D1002209E001201870C9
:1050E00038BD022204E0032202E0042200E005228F
:1050F0001A70012038BD00BF39500008D14F000898
:105100009D4F00081844923112000020064B1A7877
:10511000064B12B14FF4FF6201E04FF480521A8047
:1051200008B1034B18707047290700204600002083
:10513000140000201FB504466B4643210622682058
:1051400008F0B8FB9DF801309DF800209DF8021092
:1051500043EA022212B2042392FBF3F2ADF80820D4
:105160009DF8032002A842EA012212B292FBF3F258
:105170009DF80410ADF80A209DF8052042EA0122AE
:1051800012B292FBF3F3ADF80C30034B21461A78C0
:1051900009F084FD04B010BD160000201FB50446C0
:1051A0006B463B210622682008F084FB9DF8002016
:1051B0009DF8013002A843EA0223ADF808309DF8BB
:1051C00002209DF80330214643EA0223ADF80A305D
:1051D0009DF804209DF8053043EA0223ADF80C3019
:1051E000024B1A7809F05AFD04B010BD14000020DB
:1051F00013B54FF40053ADF8043002238DF8073097
:1052000004238DF806301D4B1D4A1B68044693424B
:1052100001D11C4803E01C4A934203D11B4801A959
:1052200008F028F86B218022682008F039FB05205F
:1052300008F0D9FB19210022682008F031FB6B210E
:105240000322682008F02CFB37210222682008F096
:1052500027FB0F4B1A211A78682008F021FB1B212D
:105260001822682008F01CFB68201C21102208F07E
:1052700017FB0CB1074B1C7002B010BD640100207D
:1052800000127A00000C0140001BB7000010014022
:1052900015000020160000202DE9F043814685B05E
:1052A00023200E461446984608F09DFB6820752181
:1052B00001220DF1070308F0FDFA00286FD09DF8D8
:1052C0000770682F6AD1062102AB38460A4608F0FB
:1052D000F1FA9DF80B309DF80D5003F001035B00CF
:1052E00005F0010543EA85059DF8093003F0010347
:1052F0001D4308D0012D01D12A4B1AE0022D0ED1F9
:105300000022284B13E00DF1070338460C2101223F
:1053100008F0D0FA9DF8073013F00F0303D10520F1
:1053200008F0F8FB06E0042B1E4B02D101221A7094
:1053300000E01D701C4BC9F800301C4BC9F804304C
:105340001B4B33601B4B73601B4BF360B8F1000FBA
:1053500003D0144B1B7888F80030142C174B15D051
:1053600004D8052C16D00A2C12D00DE0BC2C08D085
:10537000B4F5807F03D0622C06D102220BE000221C
:1053800009E0012018700AE0032204E0042202E090
:10539000052200E006221A70012000E0002005B07E
:1053A000BDE8F083290700200D5100089D51000839
:1053B000F1510008355100081844923115000020C1
:1053C0001FB504466B46A8210622682008F072FA31
:1053D0009DF801309DF800209DF8021043EA02225A
:1053E00012B2042392FBF3F2ADF808209DF80320DB
:1053F00002A842EA012212B292FBF3F29DF80410D5
:10540000ADF80A209DF8052042EA012212B292FB73
:10541000F3F3ADF80C30034B21461A7809F03EFC4B
:1054200004B010BD1700002010B50446642008F039
:10543000DAFA68202321F02208F032FA10B90320AA
:1054400008F068FB052008F0CEFA064B68201A78B1
:10545000202142F00F0208F023FA0CB1024B1C701D
:1054600010BD00BF2A0700201700002037B50546F1
:1054700019200C4608F0B7FA0DF1070368200F2138
:10548000012208F017FA9DF80730D32B15D10C4BE9
:105490004E2C2B600B4B6B600B4BEB600B4B06D019
:1054A0005D2C08D0362C14BF0022402200E0802260
:1054B0001A70012002E0C022FAE7002003B030BDDC
:1054C00029540008C1530008DDE9A7312A0700204C
:1054D000074BA1F57A7153F820304FF47A701A68AF
:1054E0009B884B4393FBF0F39BB21380704700BF44
:1054F00028080020024B53F820301B6819807047A1
:10550000280800202DE9F04FDFF81C81050158F82C
:1055100005408E4687B008EB0507114620469246A7
:105520007246009300F00AFBB96807F10802ADF873
:105530000810182178688DF80A104FF0020B02A9A4
:1055400001928DF80BB007F095FE019A02A8177929
:105550000AF037FB7022009B324EADF80820012282
:10556000ADF80A20ADF80E3000224FF4807306EB40
:105570000509ADF80C20ADF810B0ADF814300C2FC3
:105580002BD8DFE807F0072A2A2A102A2A2A192A04
:105590002A2A2200204602A90AF00CFA20460821F5
:1055A0000AF044FB19E0204602A90AF047FA204617
:1055B00008210AF043FB10E0204602A90AF082FA13
:1055C000204608210AF044FB07E0204602A90AF021
:1055D000BBFA204608210AF043FB08EB05039B7B3E
:1055E0001BB1204601210AF00AFB204601210AF0E6
:1055F000FAFA0C2F10D8DFE807F0070F0F0F090F8A
:105600000F0F0B0F0F0F0D00343404E0383402E09D
:105610003C3400E0403474514846A9F804A007B077
:10562000BDE8F08F2C070020946201081B4A1C483B
:10563000138810B51180C91A038089B240F68C23F3
:105640009942184B02D900221A7010BDA1F2EF2026
:1056500080B240F2DA52904218D81A78072A15D848
:105660001148032A20F81210104809D8104C248839
:105670008C4205D2012101FA02F201780A4302703C
:1056800002780F2A02D1094A002111701A780132DA
:105690001A70084B00221A8010BD00BF7A08002043
:1056A000780800202B0700200E0800201F0800208B
:1056B00018000020640C00207FB5044601A80D46A8
:1056C00016460AF088FA0123ADF808302046002378
:1056D00001A9ADF80450ADF80660ADF80A30ADF898
:1056E0000C300AF0F7FA04B070BD000038B5124B68
:1056F00000010344DA79114C52B90122DA7119819F
:105700002318197B20580222BDE83840FFF7D4BF88
:105710001D8959810A4A491B9D7989B222F81510C1
:1057200000259981DD712318197B20582A46FFF73F
:10573000C3FF044B1D8038BD2C0700209462010874
:105740000E080020640C00202DE9F743DFF8588094
:10575000050105EB0804A368124EADF804302E4491
:10576000282307468946B27160688DF8063001A982
:1057700002238DF8073007F07DFD55F80800217BE6
:105780000022FFF799FF20464FF6FF71012200F03B
:10579000F7F9204639464A4600F0B0F9304603B0E2
:1057A000BDE8F0832C07002094620108F8B5028A56
:1057B000454B04461A8083794278002B14BF02239C
:1057C000002302B10133414A002552F823707A5D6B
:1057D000FF2A02F00F0002F0F00309D13C4A3D4BD2
:1057E0001A602289B2F5FA7F6BD93B4A1A6068E0E9
:1057F000A17811B1811E01295FD9E17811B1011F92
:1058000003295AD9E17909B1814256D012F0300FFB
:1058100003D02278002A08BF0023227932B1A2796E
:1058200022B9A0F10802012A98BF802362792AB127
:10583000A2791AB9021F032A98BF8023DE0607D572
:1058400000222649FFF780FF254B08221A7034E01A
:10585000990608D5224E23493278FFF775FF337831
:105860000133337029E05A0615D51F4A238916786B
:10587000B3F5FA7F06F1010E82F800E01B4A94BFEF
:10588000012108214A43B2FBF3F292B2A389FFF748
:1058900039FE174B0FE01B060FD5164B01211E7862
:1058A000721C1A706389114A92FBF3F292B2E38977
:1058B000FFF728FE104B43F8260001350E2D86D148
:1058C0008CE70020F8BD00BF180000204C620108E2
:1058D000F554000824080020D15400082D56000873
:1058E0000C080020ED5600081E08002040420F0062
:1058F00028080020200800205808002008B5044B84
:105900001B78834202D9034B1B68984708BD00BF30
:105910001E08002024080020044B1B78834204D971
:10592000034B53F820301B68198070472008002073
:1059300058080020014B33F8100070470E08002073
:10594000F8B5134B04469B890D461646EEB115B1CA
:105950002F78013500E0FF270D48022109F06AFF8A
:105960000028F9D00A48394609F05FFF08480121AC
:1059700009F060FF0028F9D0054809F058FFC0B2CF
:105980000CB120700134013EE0E70120F8BD00BFFA
:10599000003800402DE9F0474FF4804088B00121E5
:1059A00009F0BAFE4FF48040012109F0CDFE344DDC
:1059B00018238DF802304FF42043ADF8003028460C
:1059C000032369464FF004082E4F8DF8033007F08B
:1059D00051FC4FF4804328466946ADF800304FF43F
:1059E00080564FF0100A8DF8028007F043FC69469C
:1059F0002846ADF800608DF802A007F03BFC384661
:105A000009F0B6FE4FF48273ADF80E304FF4007318
:105A1000ADF8163007230024ADF81C304FF0010913
:105A20000223384603A9ADF81230ADF80C40ADF8AA
:105A30001040ADF81A40ADF81490ADF818A009F078
:105A4000C9FE3846494609F0E4FE9F238DF804302C
:105A50008DF805408DF806408DF8074002A86E616C
:105A60000DEB08014246FFF76BFF2E619DF8090020
:105A7000B0F1EF035842584108B0BDE8F08700BFCD
:105A8000000C01400038004070B500240D4EE5B216
:105A900056F8256001348642F8D1A800C0B200242F
:105AA000094EE5B2765D01348E42F9D12844C0B288
:105AB0000F2805D8054C04EB0010836001710273B8
:105AC00070BD00BF7463010884630108D025002005
:105AD0000C2912D8DFE801F0071111110911111179
:105AE0000B1111110D00022104E0042102E0082134
:105AF00000E0102101220AF090B8704738B5044642
:105B00000D461346217B00682A46FFF7BDFF20683B
:105B1000217BBDE83840FFF7DBBF07B500238DF8D8
:105B200004008DF8053001A801238DF806308DF8AA
:105B3000073009F0EFF903B05DF804FB7FB50446C8
:105B400001A816460D460AF033F80B4B013D5E43A3
:105B50000A4B20461B6801A9B3FBF6F6013E002361
:105B6000ADF80850ADF80460ADF80A30ADF8063075
:105B700009F0D6FE04B070BD40420F00680100205D
:105B800010B504460068FFF7D9FF206801210AF02C
:105B90002AF8607BBDE81040FFF7BFBF10B50023B7
:105BA0000A4CDAB254F8224001338442F8D1920010
:105BB000D0B20023064CDAB2A45C01338C42F9D196
:105BC0000244044BD0B203EB001010BD7463010813
:105BD00084630108D025002038B5022104460AF06C
:105BE0001EF9012820460BD102210AF023F9204694
:105BF0000021FFF7D3FF054620460AF003F934E001
:105C000004210AF00CF9012820460BD104210AF0E6
:105C100011F920460421FFF7C1FF054620460AF08E
:105C2000F4F822E008210AF0FAF8012820460BD106
:105C300008210AF0FFF820460821FFF7AFFF0546CC
:105C400020460AF0E5F810E010210AF0E8F80128F3
:105C500010D1204610210AF0EDF820460C21FFF764
:105C60009DFF054620460AF0D6F8AB6801460BB109
:105C7000287B984738BD00000148FFF7ADBF00BF43
:105C8000002C01404FF08040FFF7A6BF0148FFF70E
:105C9000A3BF00BF000400400148FFF79DBF00BF45
:105CA00000080040014B33F8200070477C080020BA
:105CB000034B0022DA6008B1024B0360704700BF5B
:105CC000782B0020A55C0008072802D1034B012295
:105CD0001A70034B43F82010704700BF9C08002047
:105CE0007C080020034B187810B100221A700120A4
:105CF000704700BF9C0800201D481E4902680060D4
:105D00008A4200F01F80002100F004B81A4B5B5853
:105D10004350043119481A4B42189A42FFF4F6AF27
:105D2000184A00F003B8002342F8043B164B9A428D
:105D3000FFF4F9AF08F0F0FF0FF03CFC03F0D0FAED
:105D4000FFF7FEBF114E124830601248016821F083
:105D500070610160410201600F4C182020600F4902
:105D60000F4808600F48D0F800D040680047000096
:105D7000F04F0020EFBEADDE70AF01080000002044
:105D8000BC060020BC060020B83E002018100240CF
:105D90000900000004000140140C0140000C014007
:105DA0004434434400F0FF1FFFF7FEBFF8B5174C23
:105DB00006462378274673B907F004FE144D2A6877
:105DC0003232904207D30120207007F0CFFE07F057
:105DD000F9FD2860F8BD3B78B3B107F0F3FD0C4C3A
:105DE0002368334498420FD3084B0020187007F003
:105DF000BDFE07F0E7FD074B20601A780AB1013AB3
:105E00001A70054B01221A70F8BD00BF9F080020D0
:105E1000A4080020700D0020A008002073B5234DB9
:105E20008DF807302B788DF8062002AA8DF8040033
:105E30008DF805101A4412F8042C443AD2B20A2AFA
:105E40002CD81B49022B31F8124003D814B120463C
:105E5000FFF7ACFF2B78022B0BD9164B1E6807F00F
:105E6000B1FD001B864204D2104A00231370124A6F
:105E70001370124B1A78012A1A4600D09CB92B785D
:105E8000022B02D8094901330B700D4B0020107012
:105E9000187002B0BDE8704007F068BE022B4FF0EA
:105EA0003204D4D9D6E702B070BD00BF9E080020EE
:105EB00088630108A4080020700D0020A0080020BD
:105EC0009F0800202DE9F0413F4F06467B7B3F4D68
:105ED00003B101234FF400702B7001F09FF93C4C8B
:105EE000F8B13C4B3C481B8890F8AE2019B202EB4D
:105EF000820E714513DDDFF8E8E09EF801E0BEF1A7
:105F0000000F0AD090F8AF004FF0010E024402EBF0
:105F10008202914284F800E001DD0222227003B97E
:105F20002370202001F05AF960B1BA7A2B4B12B9D4
:105F3000254AD27A22B12A4AD27A0AB9012200E04D
:105F400000221A702378022B02D14C204E211DE032
:105F5000012B07D14D2153204C220B46BDE8F041C7
:105F6000FFF75CBF1D4B1B78012B03D1532001466B
:105F70004E2205E02B78012B04D153200146024626
:105F80004D23EBE7042E03D153204D210A460AE0AE
:105F9000022E03D1532001464D2204E0012E04D1EC
:105FA00053204D214E224423D8E70E4B187820B1C0
:105FB0003220BDE8F041FFF7F9BE0B4B1870BDE889
:105FC000F04107F0D3BD00BF422C0020A108002003
:105FD0009D080020640C0020D0260020A20800208C
:105FE000DE2B0020700D00209F08002070B50646B3
:105FF000B6FBF2F40846154614B12046FFF7F6FF4B
:1060000005FB1464024B1B5D00F8013B70BD00BF33
:10601000186501082DE9F04102780346202A00F1B5
:106020000100F9D0092AF7D02D2A02D10346414DAB
:1060300004E02B2A08BF03464FF07E551E4600247D
:10604000334616F8012BA2F13007F9B209290DD811
:1060500039492046FDF736FE04463846FDF7DEFD99
:1060600001462046FDF726FD0446E9E72E2A17D112
:10607000314F334616F8010B3038C2B2092A0FD817
:10608000FDF7CCFD3946FDF7D1FE01462046FDF770
:1060900011FD294904463846FDF714FE0746E8E796
:1060A0001A7802F0DF02452A38D15A782D2A02D117
:1060B0000233012604E02B2A14BF013302330026E9
:1060C000013B002713F8012F303AD1B2092903D838
:1060D0000A2101FB0727F5E7B7F59A7F28BF4FF4A0
:1060E0009A77B8464FF07E51B8F1070F07D90846A6
:1060F0001249FDF7E7FDA8F108080146F4E707F0AB
:10610000070737B108460C49FDF7DCFD013F0146A2
:10611000F7E72EB12046FDF789FE04E04FF07E51EF
:106120002046FDF7CFFD01462846FDF7CBFDBDE833
:10613000F08100BF000080BF0000204120BCBE4CA9
:1061400010B5441E14F8011F21B1034B186807F065
:106150005DFFF7E710BD00BF782B00200148FFF777
:10616000EFBF00BF3D65010810B50748FFF7E8FF26
:106170000024064B06481A19E15852680C3408F0FE
:1061800035FCC02CF5D110BD6B6501083C640108DD
:106190008165010870B507F015FC274B4FF47A7143
:1061A0001A78264BB0FBF1F11B78254808F01EFC4D
:1061B00001F02EF8234B05461968234B2348B1FB09
:1061C000F3F108F013FC0024214AE3B252F8231043
:1061D00049B1012202FA03F32B4202D01D4808F014
:1061E00005FC0134F0E7022000F0F8FF98B11A4CEA
:1061F0001A4B22781A4853F8221008F0F7FB23783C
:10620000022B08D1174B18481B7F002B0CBF6E21A7
:106210006F2108F0EBFB1548FFF792FF144B1C8829
:1062200007F0A2FB214602464FF45F731148BDE818
:10623000704008F0DBBB00BF2C2C00203C0000208D
:10624000896501086801002040420F00C765010808
:10625000E8720108E5650108A40E0020FC6401084D
:10626000E9650108782B0020F36501089C8C010882
:10627000180D0020F765010838B50C680546204662
:106280000FF008FB214602462868BDE838400FF0B1
:1062900031BB000008B50948FFF752FF012100207B
:1062A00000F036FF0648FFF74BFF0A2007F09BFB84
:1062B000BDE80840002007F049BC00BF296601087E
:1062C000336601087FB504460FF0E4FA082824D1AC
:1062D00000231F49E25C09681144497801F0030179
:1062E000022908BF203AE2540133082BF1D10025DE
:1062F000665D184831460FF0F5F928B1013560198F
:1063000031460FF0EFF918B11348FFF719FF1CE001
:10631000082DEDD1204600F05DFE1048FFF710FF7C
:1063200000230F4A04A91A4492F808210A44094993
:10633000595C0133082B02F80C1CF2D100230948E8
:1063400001A98DF80C3008F051FB04B070BD00BFFE
:106350008C020020287B0108426601086266010861
:10636000942700208465010808B501F02FFBBDE8E3
:10637000084001300CBF02480248FFF7E1BE00BFF1
:10638000776601089D6601082DE9F04105460FF08A
:1063900081FA044601F0E4F806468CB92948FFF773
:1063A000CFFE294B53F8241041B10123A3403342BF
:1063B00002D0264808F01AFB0134F2E7244821E015
:1063C0002846244922460FF095FA58B92248FFF78B
:1063D000B7FE224C54F8041F0029EFD01B4808F0E8
:1063E00005FBF7E72B7800262D2B03BF013504F1C1
:1063F000FF344FF001084FF00008134B53F826709C
:1064000027B91748BDE8F041FFF79ABE284639463C
:1064100022460FF06FFA98B90120B040B8F1000F92
:1064200003D001F095F80F4802E000F001FF0E489C
:10643000FFF786FE39460D48BDE8F04108F0D6BAB0
:106440000136DAE7BB660108A0630108E5650108CB
:106450009C8C0108F3700108CE6601089C6301085A
:10646000E3660108FD660108076701088465010805
:1064700010B504460848FFF763FE084A002313706E
:10648000074A1360074A137003F0A8F82046BDE8D6
:106490001040FFF7FFBE00BF10670108A8080020EA
:1064A000D80800202C0F002008B50848FFF748FE48
:1064B000012000F0C5FE0648FFF742FE0A2007F063
:1064C00092FABDE80840002007F040BB28670108A9
:1064D00035660108F8B507460FF0DCF9044638B90F
:1064E0001A4B1B485A791B4B013A53F8221028E0EB
:1064F0003846194922460FF0FDF960B91748FFF7F1
:106500001FFE174C54F8041F19B1164808F06EFA14
:10651000F8E7154805E000250E4B53F8256026B92D
:106520001248BDE8F840FFF70BBE38463146224618
:106530000FF0E0F901350028EED1044B0C485D71F5
:106540003146BDE8F84008F051BA00BF942700205A
:1065500043670108E0630108F37001085767010809
:10656000DC630108E56501089C8C01086A67010885
:106570008267010810B5044620460FF08BF910F031
:10658000FF0F07D10B4B0C4893F87813BDE8104070
:1065900008F02CBA20460EF0E1FF022808D8054B7F
:1065A000064C83F878030020014600F0B1FDE3E7D4
:1065B00010BD00BF9427002094670108B86A010845
:1065C00070B504460FF066F908B9204830E020465F
:1065D0001F490FF03DFC00242646254678B12CB11A
:1065E000012C06D10EF0BAFF064602E00EF0B6FF0F
:1065F00005461749002001340FF02AFCEEE70B2D69
:1066000005D9BDE8704013480C2108F0EFB9012C02
:1066100008DC114B294633F915201048BDE87040BD
:1066200008F0E4B9A6F57A73B3F57A7F04D90C487B
:10663000BDE8704008F0DAB90A482946324608F049
:10664000D5F9054B23F8156070BD00BFAA67010896
:10665000E38C0108E4670108B42B00200A680108F4
:10666000226801084468010838B505460FF012F9A0
:10667000C0B260B90446114B214603EB44031048F5
:10668000DA8F013408F0B2F9152CF4D138BD284660
:106690000EF064FF142804460ADC202128460FF07F
:1066A00021F80EF05BFF054B03EB4404E08738BD97
:1066B00004481521BDE8384008F098B9D0260020DC
:1066C0005D68010869680108931E232B28BF0A2210
:1066D000031E10B50C4603DA2D2001F8010B5842B9
:1066E000FFF784FC00230370204610BD30B587B04F
:1066F00005460C4603A800210C220EF083FF284615
:106700000021FDF79BFC20B128462949FDF7D2F96D
:1067100003E028462649FDF7CBF92649FDF7D2FAD2
:10672000FDF796FC054685EAE570A0EBE570694645
:106730000A22FFF7C9FF002DACBF20232D23684696
:106740008DF80C300FF0A6F8012807D130238DF812
:106750000D308DF80E308DF80F300CE0022805D189
:1067600030238DF80D308DF80E3004E0032804BF7F
:1067700030238DF80D30694603A80EF08DFF03A875
:106780000FF088F80338C5B22A4603A920460FF057
:10679000D9F800236355204607490EF07DFF03A971
:1067A000204629440EF078FF204607B030BD00BFD8
:1067B0006F12033A00007A444066010837B5037946
:1067C00004460D46052B34D8DFE803F003060A0D16
:1067D0001114836819782DE0836893F9001029E07B
:1067E0008368198826E08368B3F9001022E0836883
:1067F00019681FE0836869461868FFF777FF01464C
:10680000124808F0F3F8F5B1E068FDF707FA6946B9
:10681000FFF76CFF01460E4808F0E8F82069FDF725
:10682000FDF96946FFF762FF0146094808F0DEF806
:1068300009E00021074808F0D9F825B10648E168C9
:10684000226908F0D3F803B030BD00BFF06501083D
:10685000EF650108928401088F6801082DE9F0476F
:1068600007460FF017F84C4D064620B1012817D106
:106870003B782A2B14D14948FFF762FC00242959A0
:10688000474808F0B3F828193146FFF797FF14344A
:106890004448FFF755FCB4F5026FF0D1BDE8F0872E
:1068A00038463D210EF01EFF00285BD0441C2046D8
:1068B0000EF054FE82462046FFF7ACFB002406464D
:1068C0004FF0140909FB04F955F8098040460EF011
:1068D000E1FF4146024638460FF00CF8002839D156
:1068E0002D4F4F44F868FDF799F901463046FDF702
:1068F0009BFB00282CD03869FDF790F90146304603
:10690000FDF788FB20B33B79052B4FF0140303FB05
:106910000454227918BF5646052A0FD8DFE802F042
:1069200003030606090CA268167007E0A268168029
:1069300004E0A268166001E0A3681E6041461A48A0
:1069400008F054F820460021BDE8F047FFF736BFB5
:10695000164803E00134682CB2D11548BDE8F04771
:10696000FFF7EEBB04462E59394630460FF070F95A
:1069700058B10B48314608F039F807480021204447
:10698000FFF71CFF074808F031F81434B4F5026F24
:10699000E9D1BDE8F08700BF0873010896680108D7
:1069A000756901089C8C0108AB680108B66801088C
:1069B000DB6801082DE9FF47574C584808F016F8E6
:1069C0005748FFF751FE6279564B013A53F82210AF
:1069D000554808F00BF820690021FDF707FB274612
:1069E00000285AD10546266900213046FDF7FEFAF7
:1069F00000284ED101354D482946D4F814A0D4F8CA
:106A00001890D4F81C8007F0F1FF30460021FDF704
:106A1000F7FA10B1464807F0E9FF69463046FFF73C
:106A200065FE0146434807F0E1FF50460021FDF7AF
:106A3000E7FA10B13E4807F0D9FF69465046FFF724
:106A400055FE01463B4807F0D1FF48460021FDF7BF
:106A5000D7FA10B1364807F0C9FF69464846FFF734
:106A600045FE0146334807F0C1FF40460021FDF7CF
:106A7000C7FA10B12E4807F0B9FF69464046FFF744
:106A800035FE01462C4807F0B1FF0C2D04F110042F
:106A9000A9D12A48691C07F0A9FF00F061FD284C24
:106AA000054654F8041F19B1264807F09FFFF8E780
:106AB0000C46254B53F8241041B10123A3402B422F
:106AC00002D0224807F092FF0134F2E7CB1993F885
:106AD000083104AA13441E4A8A5C0131082903F8CC
:106AE000102CF3D100241B4869468DF8084007F0AC
:106AF0007DFF194D1948615907F078FF28190021C9
:106B0000FFF75CFE14341648FFF71AFBB4F5026F6A
:106B1000EFD104B0BDE8F08794270020F8680108A1
:106B2000B86A0108E06301082869010833690108AF
:106B3000E38C0108F0650108846501083B690108E0
:106B40009C6301084D690108A06301085B690108A5
:106B5000287B010868690108087301087169010848
:106B60009C8C01082DE9F04389B004460EF092FE9A
:106B7000C6B2002E6CD17A48FFF7E2FA794C206950
:106B80000021FDF733FA40BB01367748314607F064
:106B90002DFF206904A9FFF7A9FD0146734807F0FE
:106BA00025FF606904A9FFF7A1FD01466F4807F0C2
:106BB0001DFFA06904A9FFF799FD01466B4807F086
:106BC00015FFE06904A9FFF791FD0146684807F049
:106BD0000DFF0C2E04F11004D1D10025654C2F4679
:106BE0002B464FF00008B04504F1100415DA1846A2
:106BF00054F8101CFCF75EFF54F80C1C8146284624
:106C0000FCF758FF54F8081C05463846FCF752FFBD
:106C100008F101084B460746E5E7574801930295FE
:106C20000397FFF78DFA002401ABE058534920F099
:106C30000040FDF703FA524B524A0434002814BFB7
:106C400010461846FFF77CFA0C2CEDD14E4870E048
:106C500020464E4905220EF04DFE38B9414B002228
:106C600003441030C0281A61F8D176E02046484924
:106C700004220EF03FFE0546204605BB20210EF003
:106C800031FD002869D0461C30460EF003FE2C462C
:106C90000746404B53F824500DB93F4849E0304671
:106CA0002946FAB20EF026FE38B9204602F038FD29
:106CB0003A48294607F09AFE47E00134E9E70EF02A
:106CC0004DFC461E0B2E074643DC204620210EF0CD
:106CD00009FD054640B1451C2846FFF79BF9214BAD
:106CE0003F01D851012400E00446284620210EF03F
:106CF000F9FC054640B1451C2846FFF78BF9194BB6
:106D0000013403EB06135861284620210EF0EAFCFB
:106D1000054640B1451C2846FFF77CF9114B01346C
:106D200003EB06139861284620210EF0DBFC18B90E
:106D30001B48FFF705FA10E00130FFF76BF9094B2C
:106D4000032C03EB0616F061F2D11648FFF70AFF99
:106D500003E015480C2107F049FE09B0BDE8F083B7
:106D60008369010894270020AE690108B46901080D
:106D700084650108A8270020B86901080AD7233CC8
:106D80007F6901087B6901089C8C0108C7690108BB
:106D9000CD690108E06301086A670108D26901084A
:106DA000E5690108B86A01081F6A01082DE9F04782
:106DB000694B86B01A78984642B90123674888F82B
:106DC0000030FFF7BDF96648FFF7BAF9654D28684E
:106DD00006F0ECFEA946002800F0BB80286806F00B
:106DE000F7FE09280146604C01D03F2853D1002707
:106DF000D4F800A05D4E3D46BAF1000F05D05C48C6
:106E0000316852460EF076FD10B9374605B9354661
:106E1000584B0C369E42EFD3CDB1D5F800E0D7F8F1
:106E200000C053461EF803601CF80300B04201D0B6
:106E300023600CE05A1C4E4930B92D2B04D8202673
:106E4000CE542260885402E0CE541346EAE7236809
:106E50001BB1BD4201D1554612E04748FFF770F91A
:106E6000BD4209D855F80C0BFFF76AF9D9F80000B4
:106E7000092107F0CBF8F3E73948FFF761F900255E
:106E800023689D42A2D23A4BD9F80000595D07F021
:106E9000BDF80135F4E723682BB9042836D134480E
:106EA000FFF7E6FA55E00C2801D1344889E70A29B2
:106EB00001D00D2944D13248FFF742F92C4D226808
:106EC0000023AB5404932F4B03A8009327491022AF
:106ED0000C2303950EF046FB064638B100680EF011
:106EE000D9FC0130B3682844984702E02648FFF7F0
:106EF00027F91F48002130220EF084FB0023236075
:106F000098F80030002B7FF45EAF22E00C28CCD044
:106F10007F2903D15AE72F2B3FF658AFA1F120026A
:106F2000D2B25E2A3FF652AF13B920293FF44EAFDA
:106F30005A1C22600E4A2868D15407F067F845E7CA
:106F40007F29E8D10A4A013B00212360D1540F4830
:106F50003AE706B0BDE8F0872C0F0020476A010829
:106F60007F6A0108782B0020D80800203C640108C3
:106F7000A8080020FC640108846A0108896A0108E5
:106F80009C8C010879620008946A0108B56A0108BE
:106F90000E4B1A783A2A16D15A88B2F55F7F12D171
:106FA0001A79BE2A0FD193F87A230020EF2A0CD148
:106FB00013F8012B5040064A9342F9D1D0F1010059
:106FC00038BF0020704700207047704700F8010864
:106FD0007CFB010870B50546441E14F8011F61B121
:106FE000064E30460EF07EFB0028F6D0861B044885
:106FF000631B304480F80831EFE770BD287B01083F
:10700000942700202DE9F047FFF7C2FF10B90A20AE
:1070100006F080FD394C3A494FF45F722046FDF787
:107020005DF894F87833C422022B84BF002384F8DF
:10703000783394F87813334D02FB0141284601F56B
:107040009671FDF74BF895F82060E87F002303FB6D
:1070500003F11939714301F6C4115943414340F614
:10706000C41291FBF2F1284A22F813100133072BC6
:10707000EDD195F8213095F82270B4F8D060B4F8CD
:10708000D290C3F1640803EB830E58425FFA88F88C
:107090004FEA4E0EC7F1640CC6EB090980B200221C
:1070A00084B221B2002904DC002C14BF1C46012448
:1070B00000E0444601FB01FA64430AFB07FA9AFB2D
:1070C000F4F464444C434FF00A0A94FBFAF4744419
:1070D00024B204FB09F44FF47A7194FBF1F40B49E8
:1070E0003444545202325044182A80B2D8D12878FD
:1070F00003F092FBBDE8F04700F0DEBB94270020D0
:1071000000F80108D0260020C62C0020F62B002015
:10711000F8B52E4B3A221A704FF45F725A80BE2295
:107120001A71EF2283F87A230022074683F87B2323
:107130001E4649B193F87803C42202FB003024496B
:1071400000F59670FCF7CAFF00221346B15C0132CD
:10715000B2F55F7F83EA0103F8D11C4A002582F86B
:107160007B3308F0B9F8342008F0CAF8194808F061
:10717000F3F8042815D1174C331903F17843A3F51C
:10718000FC332046196808F005F9042805D00135BC
:1071900008F0AEF8032DE4D103E00F4B04349C4219
:1071A000EAD108F0A5F8032D02D0FFF7F1FE10B9DF
:1071B0000A2006F0AFFCFFF725FF37B10F2014219E
:1071C0000122BDE8F84003F05FB8F8BD9427002025
:1071D000D026002000F801087CFB0108034B1B6847
:1071E00018420CBF00200120704700BFDC080020BF
:1071F000024B1A6810431860704700BFDC0800207B
:10720000024B1A6822EA000018607047DC08002070
:10721000014B1868704700BFDC080020034B9B68D7
:1072200018420CBF00200120704700BF94270020A7
:10723000024B9A6810439860704700BF9427002063
:107240002DE9F7430446FFF7A3FE10B1002C00F030
:107250006E81B84AB84D10685168B84C6B4603C38C
:107260004FF45F72002128460EF0CCF90021C422B1
:1072700020460EF0C7F93A232B70082003236B71C8
:10728000FFF7D6FF1020FFF7D3FF0220FFF7D0FF54
:107290004FF41673A5F8F030FA23A5F8F2302A233C
:1072A000A5F8EE304FF4FA73A5F8F6302B2385F8E5
:1072B0000531212385F8063140F2DC53A5F812315F
:1072C00040F24C43A5F8143140F26C73A5F8163126
:1072D00040F27E43A5F8D03040F23A7300264FF0DA
:1072E0000108142004224FF0200E4FF47A71A5F803
:1072F000D23040F27E5385F8F4E085F8040185F839
:107300001021A5F8D41085F87863A5F8F860A5F8E1
:10731000FA60A5F8FC6085F8E26085F8E36085F81E
:10732000E460A5F8E660A5F8E860A5F8EA6085F8ED
:10733000ED6085F8EC8085F8076185F8296185F8AE
:107340002A6185F8186185F8196185F81A81A5F810
:10735000D630A5F8DE104FF4E131C5F820114FF416
:107360009641C5F8241140F6AC514FF01E0CA9818E
:10737000022140F2EA5385F8791384F80BC01721F3
:1073800084F80CC04FF00B0CA5F8D830617540F2B2
:10739000B453A17584F805C055214FF0080C282777
:1073A000A5F8DA30E17032232D2184F810C04FF0B7
:1073B0000E0CA5F8DC30A5F8E03061732371A071E4
:1073C000A17684F807C085F81C6185F81D6185F8F1
:1073D000286185F81B6126706770A770E675A67333
:1073E0002676E6736676607484F821300723A4F865
:1073F0004030152384F82F30514B50202363514BDC
:10740000E0764FF0640C5A2063634F4B20724FF0CC
:107410000A0984F81CC021754FF0780CE0774121EF
:107420004A48A36384F81290677284F80AC084F80B
:107430001E8084F8201084F8236084F8246084F887
:10744000256084F82260A4F844E0A4F84A20268548
:107450006685E68484F82C2084F82D7084F82E70DC
:1074600084F83C80FFF7B6FDC82384F8AF304FF4B2
:107470009663A4F8B03040F2D933A4F8B23084F85F
:10748000686084F8696084F86A7084F86B8084F8B6
:107490006C6084F8AE9023464FF47F72A4F86E209F
:1074A0004FF4FA62A4F8702040F2DC52A4F8722083
:1074B0001DF806200136082E84F8742004F1080413
:1074C000EAD1012283F8B42083F8B52083F8B620EE
:1074D000C82183F8BC206422A3F8B810A3F8BE200A
:1074E00014214FF4967283F8BA10A3F8C0201E211D
:1074F000282283F8BB10A3F8C2200023EA18103317
:107500000021C02B1161F9D10024281900F59670D3
:107510000A49C422C434FCF7E1FDB4F5137FF4D169
:107520000020014603B0BDE8F043FFF7F1BD03B012
:10753000BDE8F083E461010894270020D0260020F4
:107540009A99193FF6287C3F3D0A773F317B010825
:10755000024B9A6822EA0000986070479427002046
:10756000014B9868704700BF9427002010B5044C69
:1075700000232070236106F025FA606110BD00BF72
:10758000142B002010B5FCF749FB00210446FCF742
:1075900055FD08B1204601E004F100400549FCF723
:1075A00045FC0549FCF78EFB0CF094F8034B186082
:1075B00010BD00BF8096184B35FA8E3C1C00002091
:1075C000F8B5101A0C461F46FCF728FB0546381B79
:1075D000FCF724FB174B079E1968FCF773FB294641
:1075E00004462846FCF76EFB214607462046FCF77A
:1075F00069FB01463846FCF75DFA0CF0A7FA0E4924
:10760000FCF760FBFCF74AFD069B2146186005F17C
:1076100000400CF011F90949FCF754FB0849FCF74C
:1076200049FAFCF715FD0028BCBF00F50C40A0305E
:107630003060F8BD1C0000202C7D8E3FA00CB345AF
:1076400000A00C46F8B51D4614460E46FCF7E6FAB7
:107650006968FCF737FB3146FCF734FB2168FCF71F
:1076600029FA2060FCF7F4FCED68074605F10040BC
:10767000FCF7EEFC06462846FCF7EAFC31460246DB
:10768000384607F0E7F9FCF7C9FA2060FCF7E0FCA0
:10769000F8BD000030B50446002003460B4AD15C1B
:1076A000154689B12E2904D101336CB11D44002146
:1076B00029550A214843D25C0133A2F1300109293E
:1076C0009CBF30388018E9E730BD00BF050B0020B3
:1076D0002DE9F0412D4B2E4C93F81C3113B1012BA9
:1076E0000AD04EE063780C2253432A4A50682A4A53
:1076F000D15806F07FFA41E0264D686806F07FFA1F
:107700002E4600283DD02378012B20D106F05AF9CF
:1077100063690646C31A632B35D92369042B14D831
:107720004FF00C0808FB03F31B4F6868F95806F08C
:1077300061FA6378686808FB0377796806F02AFACB
:1077400023696661013323611BE0022017E023698E
:107750003BB963780C2253430F4A6868D15806F04E
:1077600049FA23690A4D8B2B08D80C4A7068D15C02
:1077700006F0FEF92B6901332B6102E00320FFF7CD
:10778000F5FE00236360BDE8F08100BF9427002070
:10779000142B0020782B0020A07C0108147C010809
:1077A00010B51A4C2378013B032B2ED8DFE803F0E9
:1077B00002021D06BDE81040FFF78ABF636805227C
:1077C0000133636063780133DBB2B3FBF2F202EBA7
:1077D00082029B1A637006F0F5F80D4A00231370BD
:1077E0000C4AA060D37201200BE006F0EBF8A3680E
:1077F00040F6C412C01A904207D92020FFF700FDBE
:107800000420BDE81040FFF7B1BE10BD142B0020CE
:10781000862C0020DE2B002010B50B4CE37A8BB1B8
:107820000A4B1B78042B0DD9094A0A4B1068526881
:1078300018605A60FFF7A6FE074B1A88074B1A809C
:107840000123237310BD00BFDE2B0020862C0020F7
:10785000682C0020382C0020102D00205A0A00200F
:1078600010B500231A460E49002050520D490E4C07
:1078700050520E495052002119511C446060A160C1
:107880000B4C023219511C446060A160094C042A5F
:1078900019511C446060A16003F11403E3D110BDD1
:1078A000380D0020F22B0020540900200E2C00205F
:1078B0000C090020A00A002070B5204C204D6079F2
:1078C000FCF7A8F91F49FCF7B1FA2860E07BFCF748
:1078D000A1F91C49FCF7AAFA1B4E6860EE60A0797A
:1078E000FCF798F91949FCF7A1FA194D2860207C9A
:1078F000FCF790F91349FCF799FA6860A07EFCF751
:1079000089F91449FCF792FAEE60A860E079FCF777
:1079100081F90E49FCF78AFA0F4D2860607CFCF76C
:1079200079F90849FCF782FA6860E07EFCF772F9A1
:107930000849FCF77BFAEE60A86070BDD0260020F5
:10794000440A00200000C8420000FA440000204120
:107950007C0A002000007A444409002038B505461E
:107960000020FFF703FE4FF48070FFF757FCF8B1DB
:10797000104C657006F026F8002363600E4BA06083
:1079800093F81C31002B0CBF01240324FFF794FF54
:107990000C235D43094B0A485A590A49234606F00D
:1079A000F7FB094B58600120BDE83840FFF7DEBD0A
:1079B00038BD00BF142B002094270020A07C0108B4
:1079C00000440040997B0008782B00202DE9F0410D
:1079D0001A4B1B78032B2DD1194C00226368DA62F5
:1079E000184B10225A6120225A616068144F06F029
:1079F000DDF860B1134D10262E617868D7F800804D
:107A000006F0E6F80146404606F0B2F86E612068DE
:107A10000B4F06F0CBF80028E7D00A4D202697E858
:107A200001012E6106F0D4F80146404606F0A0F8A8
:107A30006E61DAE74FF0FF30BDE8F081142B0020D3
:107A4000782B0020000C0140F7B50368174C184D47
:107A500023600B68174E63600068FFF793FD95E89D
:107A60000300154B0196009394E80C00FFF7A8FD66
:107A70003668124B60681E606B68114FC01AFCF7C5
:107A8000CDF8104B1968FCF71DF9FCF7E1FA2268F4
:107A90002B687860D31A3B600B4B1E600B4BB3F81E
:107AA000BE200B4B1A8003B0F0BD00BF600A00205F
:107AB000682C0020E00A0020D40A00205C0A002084
:107AC000FC0A00201C000020D80A0020D02600203C
:107AD000F80A002044F25063984203DDA0F50C4000
:107AE000A0387047034B9842BCBF00F50C40A03053
:107AF000704700BFB0B9FFFF244BF0B51D680646C4
:107B0000347831462B195A78013602F0040202F01B
:107B1000FF03002AF4D10A1A022A0ADD1BB103EB83
:107B200083035B00DBB210F8012B303A1344DBB265
:107B3000F1E7002281420AD91AB102EB8202520017
:107B4000D2B210F8016B303E3244D2B2F2E72E2CA2
:107B50000FD14C1C042000210A2671432678AF194E
:107B60007F787F0702D53039013431440138F3D1B1
:107B700000E0002106484243642000FB012106206A
:107B8000B1FBF0F1034800FB0310F0BD8C020020B4
:107B900040420F00809698002DE9F04F9B4B8FB02C
:107BA00093F81C31C4B2012B00F0D58002D3022B14
:107BB00040F0AD85242C07D1954A00231370954AD7
:107BC0001370954A1370C2E02C2C02D02A2C40F07E
:107BD0008180904F8E4E914B3A78357800209854A2
:107BE0008F491A46B5B91B780D70472B68D1537869
:107BF000502B65D19378472B40F07885D378472B6D
:107C000040F074851379412B40F0708501230B708F
:107C100000F06CBD0A78012A3AD1022D05D1184630
:107C2000FFF76AFF7F4B18604AE0032D07D11B78EE
:107C3000532B45D17B4B1A6852421A6040E0042D09
:107C400005D11846FFF758FF764B586038E0052DF0
:107C500007D11B78572B33D1724B5A6852425A6066
:107C60002EE0062D07D11A786F4B302A94BF0022E0
:107C70000122DA7224E0072D04D1FFF70BFD6B4BD4
:107C800018701DE0092D1BD1FFF704FD684B16E0AD
:107C9000022A15D1072D0CD10120FFF7FBFC41F280
:107CA000184358434FF47A72B0FBF2F3614A1380E1
:107CB00006E0082D04D10120FFF7ECFC5E4B188094
:107CC000013500232A2C35703B7037D15B4B0122E4
:107CD0001A703CE00D2C594B01D00A2C24D11A7893
:107CE000F2B14E480178A1F13002D2B2092A84BF24
:107CF000A1F13702D2B2417802F00F021401A1F1D2
:107D00003002D2B2092A84BFA1F13702D2B242496D
:107D100002F00F0222440978D2B28C1A6242624108
:107D2000002119707AB912E03A490A780E2A03D86C
:107D3000501C087039498C541B7843B9364B1A785B
:107D400054401C7003E0364B1B78012B00D00023FD
:107D500003F0010357E13A4B00221978082900F299
:107D60005181DFE801F00A05111927357B949F0046
:107D7000622C01D1022205E01A70B52C40F042813C
:107D80001A7801321A703DE103221A702D4B1C70D3
:107D90002D4B1C702D4B0BE02B4904221A702B4BE2
:107DA0000A7818782244D2B20A7002441A70284B1A
:107DB0001C7027E1244905221A70244B0A78187890
:107DC0002244D2B20A7002441A70224B1C8019E17C
:107DD0001D4906221A701D4B0A7818782244D2B227
:107DE0000A7002441A701B4B1A8802EB0424A4B2D6
:107DF000B4F5007F01D81C8003E000221A80104BEC
:107E00001A70154A00231380FDE000BF942700205C
:107E1000980A0020680A0020C80A0020050B0020EC
:107E2000E50A0020682C0020DE2B0020862C002094
:107E3000F02B0020122C0020720D00206E0A002072
:107E4000580A0020DC0A0020570A0020550A0020AA
:107E50000809002042090020140B00205448554A0C
:107E6000017815782144C9B2017029441170524932
:107E70000A88C72A9CBF51488454013292B20A80B2
:107E80004F490988914240F0BD8007227AE70822D5
:107E90001A70474B1B78A34200F0B480494A002374
:107EA0001370B0E01A70434B1B78A34240F0AA80D5
:107EB000454B1B78062B39D004D8022B12D0032B4C
:107EC00024D09FE0122B44D0302B40F09B803B4BC2
:107ED0001A793E4B102A88BF10221A701978374A37
:107EE000002344E0354B3A4A596851609968116063
:107EF0001A694FF47A7392FBF3F2364B1A80364BC1
:107F00001A78364BDA720122354B20E02B4A53792E
:107F100013F0010303D01379D81E434243412E4A84
:107F20001370002B38D12D4AD37235E0234AD37A0F
:107F300013F0010303D0937AD91E4B424B412649DB
:107F40000B700BB92549CB7292F82F20254B1A7074
:107F500022E01A4B24495A690A809A6942F2107346
:107F600092FBF3F2214B1A800122214BEFE78B4267
:107F700002F10C0210DA12F8044C1E481C5412F8DC
:107F8000034C1D481C5412F8014C1C481C54147816
:107F90001B481C540133EAE711490B7893B3144B87
:107FA0001A787AB300221A700A7001232BE000BFFE
:107FB000570A0020550A0020140B00207C090020DD
:107FC00042090020580A002008090020872C0020C0
:107FD000682C0020F02B0020F00A0020DE2B00206F
:107FE000560A0020862C0020122C0020720D002042
:107FF000E40A0020CC2B0020572C0020702C0020FD
:10800000B42C00200023002B00F081838B4CA3684C
:10801000E36005F0D7FCA0602020FFF7E9F8884B6B
:10802000884C1A78012A0CBF002201221A70E37AC8
:10803000002B00F06C83844B1B78042B40F2678389
:10804000637803B92373227B12B90BB1FFF7E4FB0A
:108050007E4B4FF0050E1A787D4D013292FBFEFEED
:108060000EEB8E0ECEEB020E83F800E0794B1B7800
:108070000493794B03EB8E0E0023784A7849985885
:10808000DFF82082774E585090FBF8F19951764EE8
:10809000DFF8149206FB010003EB830A5EF80A7016
:1080A00053F8096042F2107CF61B90FBFCFC4EF882
:1080B0000A003044052643F8090090FBF6F008FB5F
:1080C0000101049F69481FFA8CFC012F03EB020B8E
:1080D00025F802CF1950164606D1ACF1020CBCF5BA
:1080E000797F98BFCBF800100433082BC5D105F079
:1080F00069FC5F4D5F4F2B68C01AFBF78BFD5E4933
:10810000FBF794FE386005F05DFC28603D684FF099
:108110007E512846FBF774FF08B94FF07E550AAA36
:108120003D60564B00920BAA019296E803000CCBDF
:10813000FFF746FA0A9A64235149B2FBF3F20B980F
:108140000A80504A90FBF3F31380237B0BB90B801A
:1081500013804D4B4D4D1A789946002A36D0396818
:108160004FF07E50FBF762FE2B6880463068C01AE5
:10817000FBF754FD4146FBF7A5FDFBF769FF6B6874
:108180001FFA80FA70680FFA8AFAC01AFBF746FDE8
:108190003F4B1968FBF796FD4146FBF793FDFBF754
:1081A00057FF3C4B00B2B3F902204FF0020C81188C
:1081B000B3F900203848524491FBFCF192FBFCF2E9
:1081C00089B292B24180028059801A80012389F8D5
:1081D000003071683068237A6960286023B9194BD0
:1081E000DB79002B00F09382DFF8C0802B4D2C4C04
:1081F0000095CDF8048094E80C00FFF7E1F973686E
:108200006068DFF8AC90C01AFBF708FD204B1968D6
:10821000FBF758FDFBF71CFF22683368C9F8040020
:10822000D31AC9F800300B4BC14693F90030012B2B
:1082300040D0022B00F0EE8069E200BF142B00203A
:10824000080D0020DE2B0020862C0020040B0020CF
:108250006E0A0020F80C0020E0080020682C0020A6
:10826000E80A0020900A0020806967FF3809002092
:10827000F40A00208C0A002000007A44382C0020E8
:10828000362C0020402C0020540A0020740A0020C4
:108290001C0000206A0A00209A0A0020D40A00204C
:1082A000600A002080969800CC0A0020E00A002096
:1082B000FC0A0020884F0026DFF86092DFF858A201
:1082C00059F81680854C4046FBF7A8FC844B854D39
:1082D0001968FBF7F7FCFBF7BBFE36F80A30824A59
:1082E000C01A83B2B3521BB218460393FBF796FC35
:1082F0002168FBF7E7FCFBF7ABFE039B3A461FFA4E
:1083000080FB296803EB08002346FFF79BF9DFF8A1
:108310001082D5F800C0A468584426F808006046CA
:10832000D7F808B059F816900694CDF80CC0FBF7B2
:108330007DF8044658460D46FBF778F86B4BCDE9BF
:10834000040193F8BA00FBF765FCFBF76FF860A334
:10835000D3E90023FBF7BEF802460B460020644930
:10836000FBF7E2F922462B46FAF702FF02460B46DC
:1083700020462946FBF7D8F9044678680D46C0EB3D
:108380000900FBF74BFCDDF80CC06146FBF74EFD26
:108390005946FBF78DFBFBF749F802460B46204692
:1083A0002946FBF797F80B460246DDE90401FAF788
:1083B000DFFEFBF729FBC7F8049001463861B8607F
:1083C0000698FBF77FFCFBF743FE4A494FF4FA623D
:1083D00006F040FB36F80A30474931339BB2622B36
:1083E00036F8083098BF0020184480B226F80800FC
:1083F00040F6B83200B206F02DFB0A22724328F88C
:10840000060057F8141B3D4B0236042ED15000F0E5
:108410007E8151E7354B2E68B3F9C080384C730824
:10842000984528BF984625881FFA88F80FFA88F2E1
:108430002BB29A420ADD33493868FBF743FCFBF75D
:1084400007FE28441FFA80F8A4F800802E4BD9F8C4
:1084500000401F682D4DE71B3846FFF73BFB002807
:10846000D8BF404241F293139842CCBF0020012074
:10847000002857D03846FBF7D1FB2549FBF722FCF3
:108480000BF09CF907463046FBF7C4FB0146384623
:10849000FBF718FCFBF7DCFD1E4B80B21880164979
:1084A00000B240F6B83206F0D5FA48F6A0432044B0
:1084B000984203DDA0F50C40A03804E00028BCBFC2
:1084C00000F50C40A03028602DE000BFAFF3008025
:1084D000182D4454FB2119400C0900207C0A00206F
:1084E000440A00208C0A002034090020D0260020F5
:1084F0000000F03F30F8FFFF48F4FFFFA00A002023
:10850000F80A00200000C842D80A00205C0A0020B7
:10851000D3023739400900209A0A0020FC0A0020C3
:108520000E2C00202C6028687D4FC0F50C502830A0
:10853000FBF774FB7B49FBF7C5FB04460BF0CAF85D
:108540000D9020460BF03AF900260C900FFA88F0B7
:10855000FBF764FB0CAB53F81610FBF7B3FB724B45
:108560000446985FFBF75AFB01462046FBF7A0FA4A
:10857000FBF76EFDDFF8F09180B24FF47A7226F8C7
:1085800009006A4900B206F065FA80B20FFA80FA73
:10859000674C26F809005046FBF740FB2168FBF7C3
:1085A00091FBFBF755FD634D80B23A46234629689F
:1085B00006905046FFF746F8D5F800C0A46804902E
:1085C0006046D7F808B036F909900794CDF80CC08A
:1085D000FAF72CFF044658460D46FAF727FFDFF856
:1085E0008CA1CDE908019AF8BA00FBF713FBFAF762
:1085F0001DFF49A3D3E90023FAF76CFF02460B469F
:1086000000204D49FBF790F822462B46FAF7B0FDC3
:1086100002460B4620462946FBF786F80446786852
:108620000D46C0EB0900FBF7F9FADDF80CC0614616
:10863000FBF7FCFB5946FBF73BFAFAF7F7FE02465D
:108640000B4620462946FAF745FF0B460246DDE970
:108650000801FAF78DFDFBF7D7F9069C0146386152
:10866000B8600498C7F8049004440798FBF72AFB05
:10867000FBF7EEFC2044314C80B23053304940F6D9
:10868000B83200B206F0E6F90A2272432D4BA0532D
:1086900057F8141B0236042ED15053467FF456AFC0
:1086A00093F8BC2032B1284A1168642291FBF2F1A0
:1086B000264A1180264AB3F8B83012689A420DD97A
:1086C000244B1868244B1B68C01AFFF703FA42F2C8
:1086D00010730028B8BF4042984218DD1F4B01229A
:1086E0001A701F4B1A88194B1A8010E092781D4B94
:1086F000522A7FF4E5AADA784D2A7FF4E1AA1B79A1
:10870000432B7FF4DDAA02230B70FFF7D9BA0FB019
:10871000BDE8F08FAFF30080182D4454FB211940C1
:10872000A00A0020D30237399A0A002018FCFFFF64
:10873000440900208C0A00200000F03F0E2C00208D
:1087400048F4FFFF0C0900205C0A0020E42C002004
:10875000D40A0020E00A0020D80A0020F80C0020EB
:108760005A0A0020050B002034090020D0260020E2
:108770002DE9F84F384E0446376838460AF0AAFF0C
:10878000054638460BF01AF87668804630460AF0FF
:10879000A1FF834630460BF011F8D4F8049006464A
:1087A00029464846FBF78EFAA76882464146384676
:1087B000FBF788FA01465046FBF77AF921688246B2
:1087C0005846FBF77FFA414604464846FBF77AFADB
:1087D0003146FBF777FA01462046FBF76BF9314645
:1087E00004463846FBF76EFA2946FBF76BFA01465A
:1087F0002046FBF75FF9014650460BF01DF817497C
:10880000FBF760FAFAF712FE11A3D3E90023FAF797
:108810008BFF134B044618680D46FAF707FE024615
:108820000B4620462946FAF7A3FC00220D4BFAF727
:108830007BFFFBF7E9F80AF083FF83B21A0444BF19
:1088400000F5B4739BB218B2BDE8F88FAFF30080A7
:10885000182D4454FB210940540B00200000E14432
:108860004C0B0020000024400F4B10B51888FBF77C
:10887000D5F90E490446FBF725FAFBF7E9FB0C4B4B
:10888000214618800B48FBF7D1FA0B49FBF7CEFACB
:108890000A4B18600820FEF7A1FC18B1BDE8104093
:1088A00003F080B810BD00BF46000020C903683F38
:1088B0002A0B00200AE81C4100401C46482B0020DF
:1088C0002DE9F04F0C68836889B0D0F800A0D0F88B
:1088D00004800646204603938B460AF0FBFE0746BB
:1088E00020460AF06BFFDBF80440814620460AF080
:1088F000F1FE054620460AF061FFDBF80820044639
:10890000104601920AF0E6FE019A834610460AF0EC
:1089100055FF394602905846FBF7D4F93946049082
:108920000298FBF7CFF9594605904846FBF7CAF97C
:10893000029906904846FBF7C5F929460790584624
:10894000FBF7C0F901465046FBF7BCF921468346C8
:108950000698FBF7B7F901460598FBF7ABF8014617
:108960004046FBF7AFF901465846FBF7A3F821460E
:1089700083460498FBF7A6F901460798FBF798F899
:1089800001460398FBF79EF901465846FBF792F81B
:108990003060029905F10040FBF794F9014650461A
:1089A000FBF790F9214683460798FBF78BF90146C0
:1089B0000498FBF77DF801464046FBF783F9014632
:1089C0005846FBF777F8214683460598FBF77AF976
:1089D00001460698FBF76EF801460398FBF772F91B
:1089E00001465846FBF766F8214670605046FBF793
:1089F00069F92946044609F10040FBF763F901468D
:108A00004046FBF75FF901462046FBF753F839462D
:108A100004462846FBF756F901460398FBF752F93E
:108A200001462046FBF746F8B06009B0BDE8F08F7C
:108A300080EAE073A3EBE0738B4206DB002801DDE4
:108A4000401A704702D00844704700207047000069
:108A50002DE9F041564B86B01A685B6802F100427E
:108A600003F100430193534B0646B3F90000009213
:108A7000FBF7D4F800F10040FAF7D8FC4AA3D3E999
:108A80000023FAF727FDFAF7BFFF4B4C0290B4F929
:108A90000000FBF7C3F80390B4F90200FBF7BEF83F
:108AA0000490B4F90400FBF7B9F8444C059069460A
:108AB00003A8FFF705FF94F83C30012B15D1404B7C
:108AC000404D5B7863B92B68402093FBF0F0181A97
:108AD000FBF7A4F80599FAF7EDFFFBF7B9FA286060
