:020000040800F2
:1030000000500020F55C0008A55D000889950008C7
:10301000A55D0008A55D0008A55D00080000000092
:10302000000000000000000000000000E10F0108A7
:10303000A55D0008000000007D100108FDD8000813
:10304000A55D0008A55D0008A55D0008A55D000858
:10305000A55D0008A55D0008A55D0008A55D000848
:10306000A55D0008A55D0008A55D0008A55D000838
:10307000A55D0008A55D00083DE20008A55D00080B
:10308000A55D0008A55D0008A55D0008A55D000818
:10309000F31E0108A55D0008A55D0008A55D0008F8
:1030A000A55D0008A55D0008A55D0008755C000829
:1030B000815C0008895C0008955C00086DD50008FB
:1030C000EDD8000871D50008E9D80008A55D000812
:1030D000A55D000871E20008ADE20008A55D0008EA
:1030E000C9460008A55D0008F71E010800000000A1
:1030F00000000000000000000000000000000000D0
:0C31000000000000000000005FF808F173
:1031100010B5054C237833B9044B13B10448AFF311
:1031200000800123237010BDBC06002000000000B9
:1031300084AC010808B5064B1BB106480649AFF33D
:1031400000800648036813B1054B03B1984708BDDA
:103150000000000084AC0108C0060020BC0600206E
:103160000000000081F0004102E000BF83F0004356
:1031700030B54FEA41044FEA430594EA050F08BF12
:1031800090EA020F1FBF54EA000C55EA020C7FEAD6
:10319000645C7FEA655C00F0E2804FEA5454D4EB53
:1031A0005555B8BF6D420CDD2C4480EA020281EA1D
:1031B000030382EA000083EA010180EA020281EA55
:1031C0000303362D88BF30BD11F0004F4FEA0131A7
:1031D0004FF4801C4CEA113102D0404261EB4101B6
:1031E00013F0004F4FEA03334CEA133302D052423C
:1031F00063EB430394EA050F00F0A780A4F10104F8
:10320000D5F1200E0DDB02FA0EFC22FA05F2801831
:1032100041F1000103FA0EF2801843FA05F3594117
:103220000EE0A5F120050EF1200E012A03FA0EFC96
:1032300028BF4CF0020C43FA05F3C01851EBE371C0
:1032400001F0004507D54FF0000EDCF1000C7EEBDD
:1032500000006EEB0101B1F5801F1BD3B1F5001F1B
:103260000CD349085FEA30004FEA3C0C04F101043A
:103270004FEA445212F5800F80F09A80BCF1004F63
:1032800008BF5FEA500C50F1000041EB045141EAE5
:10329000050130BD5FEA4C0C404141EB010111F4E6
:1032A000801FA4F10104E9D191F0000F04BF014691
:1032B0000020B1FA81F308BF2033A3F10B03B3F16F
:1032C00020020CDA0C3208DD02F1140CC2F10C02FF
:1032D00001FA0CF021FA02F10CE002F11402D8BF5D
:1032E000C2F1200C01FA02F120FA0CFCDCBF41EA29
:1032F0000C019040E41AA2BF01EB0451294330BDF8
:103300006FEA04041F3C1CDA0C340EDC04F11404D4
:10331000C4F1200220FA04F001FA02F340EA0300AB
:1033200021FA04F345EA030130BDC4F10C04C4F1F1
:10333000200220FA02F001FA04F340EA03002946D1
:1033400030BD21FA04F0294630BD94F0000F83F41B
:10335000801306BF81F480110134013D4EE77FEAFE
:10336000645C18BF7FEA655C29D094EA050F08BF4A
:1033700090EA020F05D054EA000C04BF194610462B
:1033800030BD91EA030F1EBF0021002030BD5FEA6F
:10339000545C05D14000494128BF41F0004130BD97
:1033A00014F580043CBF01F5801130BD01F00045EB
:1033B00045F0FE4141F470014FF0000030BD7FEA5E
:1033C000645C1ABF194610467FEA655C1CBF0B4659
:1033D000024650EA013406BF52EA033591EA030F70
:1033E00041F4002130BD00BF90F0000F04BF002168
:1033F000704730B54FF4806404F132044FF000059B
:103400004FF0000150E700BF90F0000F04BF002113
:10341000704730B54FF4806404F1320410F0004579
:1034200048BF40424FF000013EE700BF42004FEA74
:10343000E2014FEA31014FEA02701FBF12F07F43F1
:1034400093F07F4F81F06051704792F0000F14BFEE
:1034500093F07F4F704730B54FF4607401F0004532
:1034600021F0004120E700BF50EA010208BF704789
:1034700030B54FF000050AE050EA010208BF70477E
:1034800030B511F0004502D5404261EB41014FF4E7
:10349000806404F132045FEA915C3FF4DCAE4FF0EB
:1034A00003025FEADC0C18BF03325FEADC0C18BFD2
:1034B000033202EBDC02C2F1200300FA03FC20FA23
:1034C00002F001FA03FE40EA0E0021FA02F1144470
:1034D000C1E600BF70B54FF0FF0C4CF4E06C1CEA85
:1034E00011541DBF1CEA135594EA0C0F95EA0C0FFA
:1034F00000F0DEF82C4481EA030621EA4C5123EA6D
:103500004C5350EA013518BF52EA033541F480119B
:1035100043F4801338D0A0FB02CE4FF00005E1FB4E
:1035200002E506F00042E0FB03E54FF00006E1FB98
:1035300003569CF0000F18BF4EF0010EA4F1FF04DB
:10354000B6F5007F64F5407404D25FEA4E0E6D411B
:1035500046EB060642EAC62141EA55514FEAC5202C
:1035600040EA5E504FEACE2EB4F1FD0C88BFBCF5A8
:10357000E06F1ED8BEF1004F08BF5FEA500E50F159
:10358000000041EB045170BD06F0004646EA01011F
:1035900040EA020081EA0301B4EB5C04C2BFD4EB51
:1035A0000C0541EA045170BD41F480114FF0000E4A
:1035B000013C00F3AB8014F1360FDEBF002001F0B8
:1035C000004170BDC4F10004203C35DA0C341BDC32
:1035D00004F11404C4F1200500FA05F320FA04F004
:1035E00001FA05F240EA020001F0004221F0004138
:1035F00010EBD37021FA04F642EB06015EEA430EAB
:1036000008BF20EAD37070BDC4F10C04C4F12005DA
:1036100000FA04F320FA05F001FA04F240EA02008D
:1036200001F0004110EBD37041F100015EEA430E5E
:1036300008BF20EAD37070BDC4F1200500FA05F27E
:103640004EEA020E20FA04F301FA05F243EA0203FD
:1036500021FA04F001F0004121FA04F220EA02000C
:1036600000EBD3705EEA430E08BF20EAD37070BD52
:1036700094F0000F0FD101F00046400041EB010132
:1036800011F4801F08BF013CF7D041EA060195F014
:10369000000F18BF704703F00046520043EB0303CE
:1036A00013F4801F08BF013DF7D043EA06037047BB
:1036B00094EA0C0F0CEA135518BF95EA0C0F0CD0C6
:1036C00050EA410618BF52EA4306D1D181EA03010C
:1036D00001F000414FF0000070BD50EA410606BF06
:1036E0001046194652EA430619D094EA0C0F02D14B
:1036F00050EA013613D195EA0C0F05D152EA033690
:103700001CBF104619460AD181EA030101F00041AD
:1037100041F0FE4141F470014FF0000070BD41F0F6
:10372000FE4141F4780170BD70B54FF0FF0C4CF4D0
:10373000E06C1CEA11541DBF1CEA135594EA0C0FEF
:1037400095EA0C0F00F0A7F8A4EB050481EA030E3C
:1037500052EA03354FEA013100F088804FEA033323
:103760004FF0805545EA131343EA12634FEA0222F1
:1037700045EA111545EA10654FEA00260EF00041B2
:103780009D4208BF964244F1FD0404F5407402D204
:103790005B084FEA3202B61A65EB03055B084FEA95
:1037A00032024FF480104FF4002CB6EB020E75EB92
:1037B000030E22BFB61A754640EA0C005B084FEABA
:1037C0003202B6EB020E75EB030E22BFB61A754637
:1037D00040EA5C005B084FEA3202B6EB020E75EB82
:1037E000030E22BFB61A754640EA9C005B084FEAFA
:1037F0003202B6EB020E75EB030E22BFB61A754607
:1038000040EADC0055EA060E18D04FEA051545EAF5
:1038100016754FEA06164FEAC30343EA52734FEA9E
:10382000C2025FEA1C1CC0D111F4801F0BD141EA17
:1038300000014FF000004FF0004CB6E711F4801F7C
:1038400004BF01430020B4F1FD0C88BFBCF5E06F5C
:103850003FF6AFAEB5EB030C04BFB6EB020C5FEA6C
:10386000500C50F1000041EB045170BD0EF0004EC1
:103870004EEA113114EB5C04C2BFD4EB0C0541EAF3
:10388000045170BD41F480114FF0000E013C90E6F0
:1038900045EA060E8DE60CEA135594EA0C0F08BFB4
:1038A00095EA0C0F3FF43BAF94EA0C0F0AD150EAB3
:1038B00001347FF434AF95EA0C0F7FF425AF104646
:1038C00019462CE795EA0C0F06D152EA03353FF46E
:1038D000FDAE1046194622E750EA410618BF52EAEB
:1038E00043067FF4C5AE50EA41047FF40DAF52EABF
:1038F00043057FF4EBAE12E74FF0FF3C06E000BF5C
:103900004FF0010C02E000BF4FF0010C4DF804CD68
:103910004FEA410C7FEA6C5C4FEA430C18BF7FEA28
:103920006C5C1BD001B050EA410C0CBF52EA430C56
:1039300091EA030F02BF90EA020F0020704710F1D6
:10394000000F91EA030F58BF994208BF90422CBF65
:10395000D8176FEAE37040F0010070474FEA410C5E
:103960007FEA6C5C02D150EA013C07D14FEA430C7C
:103970007FEA6C5CD6D152EA033CD3D05DF8040BED
:10398000704700BF8446104662468C46194663461F
:1039900000E000BF01B5FFF7B7FF002848BF10F1F6
:1039A000000F01BD4DF808EDFFF7F4FF0CBF01203B
:1039B00000205DF808FB00BF4DF808EDFFF7EAFFB7
:1039C00034BF012000205DF808FB00BF4DF808ED72
:1039D000FFF7E0FF94BF012000205DF808FB00BF67
:1039E0004DF808EDFFF7CEFF94BF012000205DF8F1
:1039F00008FB00BF4DF808EDFFF7C4FF34BF0120FE
:103A000000205DF808FB00BF4FEA4102B2F1E0433D
:103A100024BFB3F5001CDCF1FE5C0DD901F0004CB5
:103A20004FEAC0024CEA5070B2F1004F40EB830005
:103A300008BF20F00100704711F0804F21D113F131
:103A40003872BCBF01F00040704741F480114FEA6A
:103A50005252C2F11802C2F1200C10FA0CF320FAF3
:103A600002F018BF40F001004FEAC1234FEAD32310
:103A700003FA0CFC40EA0C0023FA02F34FEA43037A
:103A8000CCE77FEA625307D150EA01331EBF4FF003
:103A9000FE4040F44000704701F0004040F0FE401E
:103AA00040F40000704700BF80F0004002E000BF1B
:103AB00081F0004142001FBF5FEA410392EA030F19
:103AC0007FEA226C7FEA236C6AD04FEA1262D2EB63
:103AD0001363C1BFD218414048404140B8BF5B4268
:103AE000192B88BF704710F0004F40F4000020F001
:103AF0007F4018BF404211F0004F41F4000121F017
:103B00007F4118BF494292EA030F3FD0A2F1010260
:103B100041FA03FC10EB0C00C3F1200301FA03F19E
:103B200000F0004302D5494260EB4000B0F5000FC1
:103B300013D3B0F1807F06D340084FEA310102F180
:103B40000102FE2A51D2B1F1004F40EBC25008BF32
:103B500020F0010040EA03007047490040EB0000FC
:103B600010F4000FA2F10102EDD1B0FA80FCACF12B
:103B7000080CB2EB0C0200FA0CF0AABF00EBC2502A
:103B800052421843BCBFD0401843704792F0000F18
:103B900081F4000106BF80F400000132013BB5E76B
:103BA0004FEA41037FEA226C18BF7FEA236C21D0E1
:103BB00092EA030F04D092F0000F08BF0846704746
:103BC00090EA010F1CBF0020704712F07F4F04D114
:103BD000400028BF40F00040704712F100723CBF27
:103BE00000F50000704700F0004343F0FE4040F451
:103BF000000070477FEA226216BF08467FEA23630F
:103C00000146420206BF5FEA412390EA010F40F4F9
:103C1000800070474FF0000304E000BF10F0004345
:103C200048BF40425FEA000C08BF704743F096432C
:103C300001464FF000001CE050EA010208BF704747
:103C40004FF000030AE000BF50EA010208BF7047CE
:103C500011F0004302D5404261EB41015FEA010CE3
:103C600002BF84460146002043F0B64308BFA3F1DB
:103C70008053A3F50003BCFA8CF2083AA3EBC253BD
:103C800010DB01FA02FC634400FA02FCC2F12002DC
:103C9000BCF1004F20FA02F243EB020008BF20F013
:103CA0000100704702F1200201FA02FCC2F1200279
:103CB00050EA4C0021FA02F243EB020008BF20EA6E
:103CC000DC7070474FF0FF0C1CEAD0521EBF1CEA9C
:103CD000D15392EA0C0F93EA0C0F6FD01A4480EA8A
:103CE000010C400218BF5FEA41211ED04FF0006373
:103CF00043EA501043EA5111A0FB01310CF000409F
:103D0000B1F5000F3EBF490041EAD3715B0040EAC4
:103D1000010062F17F02FD2A1DD8B3F1004F40EB94
:103D2000C25008BF20F00100704790F0000F0CF067
:103D3000004C08BF49024CEA502040EA51207F3A2B
:103D4000C2BFD2F1FF0340EAC250704740F4000006
:103D50004FF00003013A5DDC12F1190FDCBF00F0F7
:103D600000407047C2F10002410021FA02F1C2F1A5
:103D7000200200FA02FC5FEA310040F1000053EA41
:103D80004C0308BF20EADC70704792F0000F00F08F
:103D9000004C02BF400010F4000F013AF9D040EA95
:103DA0000C0093F0000F01F0004C02BF490011F429
:103DB000000F013BF9D041EA0C018FE70CEAD15327
:103DC00092EA0C0F18BF93EA0C0F0AD030F0004CA7
:103DD00018BF31F0004CD8D180EA010000F000405B
:103DE000704790F0000F17BF90F0004F084691F019
:103DF000000F91F0004F14D092EA0C0F01D1420253
:103E00000FD193EA0C0F03D14B0218BF084608D11B
:103E100080EA010000F0004040F0FE4040F4000065
:103E2000704740F0FE4040F4400070474FF0FF0CF8
:103E30001CEAD0521EBF1CEAD15392EA0C0F93EA3F
:103E40000C0F69D0A2EB030280EA010C49024FEA91
:103E5000402037D04FF0805343EA111143EA10134A
:103E60000CF000408B4238BF5B0042F17D024FF402
:103E7000000C8B4224BF5B1A40EA0C00B3EB510FDD
:103E800024BFA3EB510340EA5C00B3EB910F24BFC6
:103E9000A3EB910340EA9C00B3EBD10F24BFA3EB4B
:103EA000D10340EADC001B0118BF5FEA1C1CE0D113
:103EB000FD2A3FF650AF8B4240EBC25008BF20F0C6
:103EC000010070470CF0004C4CEA50207F32C2BF1A
:103ED000D2F1FF0340EAC250704740F400004FF0B7
:103EE0000003013A37E792F0000F00F0004C02BFE8
:103EF000400010F4000F013AF9D040EA0C0093F0B2
:103F0000000F01F0004C02BF490011F4000F013B0B
:103F1000F9D041EA0C0195E70CEAD15392EA0C0F73
:103F200008D142027FF47DAF93EA0C0F7FF470AFAB
:103F3000084676E793EA0C0F04D14B023FF44CAFEE
:103F400008466EE730F0004C18BF31F0004CCAD183
:103F500030F000427FF45CAF31F000437FF43CAFBF
:103F60005FE700BF4FF0FF3C06E000BF4FF0010CE1
:103F700002E000BF4FF0010C4DF804CD4FEA4002C3
:103F80004FEA41037FEA226C18BF7FEA236C11D00D
:103F900001B052EA530C18BF90EA010F58BFB2EBC0
:103FA000030088BFC81738BF6FEAE17018BF40F040
:103FB000010070477FEA226C02D15FEA402C05D1F4
:103FC0007FEA236CE4D15FEA412CE1D05DF8040B79
:103FD000704700BF844608466146FFE70FB5FFF70C
:103FE000C9FF002848BF10F1000F0FBD4DF808EDC4
:103FF000FFF7F4FF0CBF012000205DF808FB00BFB5
:104000004DF808EDFFF7EAFF34BF012000205DF80E
:1040100008FB00BF4DF808EDFFF7E0FF94BF01205B
:1040200000205DF808FB00BF4DF808EDFFF7D2FF58
:1040300094BF012000205DF808FB00BF4DF808ED9B
:10404000FFF7C8FF34BF012000205DF808FB00BF68
:104050004FEA4002B2F1FE4F0FD34FF09E03B3EB95
:1040600012620DD94FEA002343F0004310F0004FD5
:1040700023FA02F018BF404270474FF0000070472B
:1040800012F1610F01D1420205D110F0004008BFCA
:104090006FF0004070474FF00000704742000ED2B2
:1040A000B2F1FE4F0BD34FF09E03B3EB126209D473
:1040B0004FEA002343F0004323FA02F070474FF029
:1040C0000000704712F1610F01D1420202D14FF09E
:1040D000FF3070474FF00000704700BF844641EA50
:1040E000000313F0030349D1403A23D30B68036064
:1040F0004B6843608B688360CB68C3600B69036166
:104100004B6943618B698361CB69C3610B6A03624D
:104110004B6A43628B6A8362CB6AC3620B6B036335
:104120004B6B43638B6B8363CB6BC363403040311A
:10413000403ADBD230320BD30B6803604B684360EC
:104140008B688360CB68C36010301031103AF3D2B3
:104150000C3205D351F8043B40F8043B043AF9D241
:10416000043208D0D2071CBF11F8013B00F8013B14
:1041700001D30B8803806046704700BF082A13D321
:104180008B07B1D010F00303AED0C3F10403D21AF1
:10419000DB071CBF11F8013B00F8013BA4D331F849
:1041A000023B20F8023B9FE7043AD9D3013A11F8C9
:1041B000013B00F8013BF9D20B7803704B78437058
:1041C0008B788370604670472DE9F041057890B098
:1041D00000350646334818BF01250AF0EDFE0024DD
:1041E0003148A542314B0CBF2146802106904FF447
:1041F00000500CBF4FF001084FF002084FF48072DE
:1042000005930A9120234FF480670E9005A9254855
:104210000B920D930C970794CDF8208009940F947E
:104220000AF042FF1F4801210AF06BFF4FF46021A2
:10423000012702911E48694600948DF804508DF8BC
:10424000057003948DF810800AF018FE18480A21B2
:104250003A4603230AF063FE2DB115483178022255
:1042600003230AF05CFE124801210AF034FE1048D4
:1042700001210AF027FE0E480AF036FE0C480AF02B
:1042800038FE0028FAD10A480AF037FE08480AF03A
:1042900039FE0028FAD1064801210AF037FE10B095
:1042A000BDE8F08108000240D80600204C240140FF
:1042B00000240140024B33F8100080B2704700BF69
:1042C000D80600202DE9FF41334B8046187800289E
:1042D0003BD00024254626462746082232210DEBF6
:1042E0000203532009F0DEF99DF809109DF808003B
:1042F000013400EB01239DF80B109DF80A001AB25F
:1043000000EB01239DF80D109DF80C00E4B2BF18DE
:104310001AB200EB01239DF80F10B618202C1AB228
:10432000154401F07F0001D00028D6D11B4B97FB2C
:10433000F4F796FBF4F695FBF4F5ADF80070ADF8E4
:104340000260ADF804501C701DE03221062202AB61
:10435000532009F0A7F99DF809209DF808109DF851
:104360000B0001EB02239DF80A20ADF8003002EBB0
:1043700000219DF80C309DF80D00ADF8021003EB04
:104380000022ADF80420064A6846414612780AF039
:10439000FDFBBDE8FF8100BFDC060020DD0600203C
:1043A00000000020154B10B51B7804462D2153202A
:1043B00008227BB109F03AFA31210A22532009F090
:1043C00035FA2C210C22532009F030FA53203821E1
:1043D000902209E009F02AFA31210A22532009F03B
:1043E00025FA53202C210A2209F020FA044840F231
:1043F000091202800CB103490C7010BDDC060020CC
:10440000460000200000002037B5104B05461A6812
:104410000F480C46002182428DF8071001D1002080
:1044200013E0532001220DF1070309F03BF90028A6
:10443000F5D09DF80710E529F1D12A780548064BFB
:10444000064920601A70616001203EBD64010020B1
:10445000001BB700A5430008DC060020C542000889
:104460001FB50446022106226B46182009F01AF9EE
:104470009DF800309DF8012098089DF8023000EB6F
:1044800002219DF8032098089DF80430ADF808102B
:1044900000EB02219DF805209808ADF80A1000EB0A
:1044A0000221044AADF80C1002A8214612780AF045
:1044B0006DFB1FBD0100002010B50F21082204462E
:1044C000182009F0B3F90E221820102109F0AEF9D6
:1044D000034B4FF480521A800CB10248047010BD97
:1044E000460000200100002037B5002402AB05463D
:1044F00003F8014D18202146012209F0D3F850B1EC
:104500009DF80730FB2B05D10348044928606960FA
:10451000012000E020463EBDB94400086144000887
:10452000334B2DE9F0411C88324B5A891E89A51A5C
:104530007543B3F91240B3F91420EF13BE18E50226
:1045400095FBF6F43F19A7F57A6202FB02F4B3F982
:104550000480B3F902C00A257D43DF6102FB0CFC35
:10456000B3F90E7002FB08F2B3F90C802413674311
:1045700004FB08F4241404EB6232941CA210DC88BF
:10458000083502F5004262432E114FEAEC24B3F9DC
:104590002050B3F9003004EBE72404EB830303FA63
:1045A00005F39C1C144BD20B1B68A3EBA4044CF228
:1045B000503343FA05F3634303D45C00B4FBF2F3D6
:1045C00002E0B3FBF2F253001A12524340F6DE341B
:1045D00062430A4C5C43241404EB224202F6CF628D
:1045E00003EB221300B1036001B10E60BDE8F0815E
:1045F0000E070020E40600200807002043E3FFFF29
:10460000104B07B5187818B90F490A88531C0B804E
:10461000F621032201AB772009F044F89DF805103C
:104620009DF804000A02094942EA00409DF806305C
:10463000B1F920201843C2F1080320FA03F004491D
:1046400008600EBDDE060020E0060020E406002023
:10465000080700200B4B07B5187818B90A490A88D3
:10466000531C0B80F621022201AB772009F01AF8C7
:104670009DF804009DF80510044B41EA00221A80C1
:104680000EBD00BFDE060020E00600200E07002061
:10469000064B074893F82020002192013432017024
:1046A00002F0FC027720F42109F0C0B8E4060020F3
:1046B000DE060020034B00221A707720F4212E2200
:1046C00009F0B4B8DE06002010B54FF480400AF0BF
:1046D00077FD0128044605D14FF480400AF080FDA3
:1046E000014B1C7010BD00BFDE0600202DE9F04715
:1046F0006B4B05461A686B488CB0824200F0CA804A
:10470000DFF8C0A19AF80080B8F1000F40F0C48033
:10471000654F102102264FF400598DF80A103846D3
:1047200002A94FF480448DF80B60ADF8089008F0B2
:1047300039FD0423384602A98DF80A30ADF8084047
:1047400008F030FD0E213046C7F8109008F066FDE5
:104750000126082204A88DF8152004948DF81480F1
:104760008DF816600AF0F0FC28200F218DF80C005F
:1047700003A88DF80D108DF80E108DF80F600AF05B
:1047800049FB142009F0F3F87720D02132460DF1CF
:10479000070308F087FF9DF80730444C0322552B90
:1047A000E375228418BFC7F8149073D1D121324623
:1047B0000DF10703772008F075FF9DF8070016221A
:1047C00000F00F01030921766376AA2106AB77205A
:1047D00008F068FF9DF818209DF819009DF81B301F
:1047E00040EA02219DF81A20218043EA02209DF828
:1047F0001C109DF81D20608042EA01239DF81E00D8
:104800009DF81F10A38041EA00229DF821309DF8F9
:104810002000E28043EA00219DF822209DF8230039
:10482000218140EA02239DF824109DF82520638110
:1048300042EA01209DF827309DF82610A08143EA26
:1048400001229DF828009DF82910E28141EA002309
:104850009DF82A209DF82B00238240EA02219DF832
:104860002D309DF82C20618243EA0220104B41F24A
:10487000707146F67812A0828AF800600D4829808F
:104880006A806B600C490D4A0D4BA860E9602A6193
:104890006B6101E0002000E001200CB0BDE8F08772
:1048A00064010020001BB70000100140E406002056
:1048B000B546000855460008914600080146000824
:1048C000214500080C0700202DE9F04F4E4E4F4BBC
:1048D00085B07789039119683289844638020F1AA6
:1048E00087FB0201C00940EA4162CB11F188B4881C
:1048F00087FB01012404002514EB020845EB0309A2
:10490000000A40EA01620B12B189748887FB010139
:10491000E403002514EB020A45EB030BC00D40EA4B
:1049200041224FF4FA60CB150021801841EB0301BE
:10493000CDE90001B0F5FA6F71F1000147DAA2FB91
:10494000024502FB03F605EB4607B80040EA947106
:10495000A0002646241847EB010569104FEA3400F1
:10496000A408B8EB000869EB0109A91044EA8570B6
:10497000BAEB000A6BEB010B25484FF0FF31DDE984
:10498000004584428D4122DA40F6AC500021801867
:1049900041EB03014143A0FB00236FF0060003EB52
:1049A0004103544200FB0344A2FB000118EB000842
:1049B000214449EB01090B24A2FB040104FB031170
:1049C00049104FEA3000BAEB000A6BEB010B114AB9
:1049D0001368A3FB0A0103FB0B11400D40EAC1223F
:1049E0004B15B2EB080263EB0903D20B42EA4343D7
:1049F000BCF1000F01D0CCF80030039808B1009949
:104A0000016005B0BDE8F08F1807002014070020F2
:104A100024FAFFFF1007002007B50021032201AB95
:104A2000772008F03FFE9DF805009DF80430010254
:104A30009DF8062041EA034010430EBD08B5FFF77C
:104A4000EBFF014B186008BD1007002008B5FFF709
:104A5000E3FF014B186008BD1407002077204821B0
:104A6000012208F0E3BE77205821012208F0DEBEC3
:104A7000454B73B51A680446444882420FD010254E
:104A80008DF80650424D02214FF400568DF8071064
:104A9000284601A9ADF8046008F084FB6E610A2085
:104AA00008F065FF7720A02101220DF1030308F033
:104AB000F9FD002866D01E210122772008F0B6FEFD
:104AC0004FF42F6008F048FF0025A5F16003002691
:104AD000D9B20222772001AB8DF804608DF8056011
:104AE00008F0E0FD9DF804209DF80500294B40EA00
:104AF0000221E9520235102DE7D1DA8902F47F450F
:104B000002F00F00DD81324601232249515A023260
:104B1000002918BF0023102AF7D113BB1A4612F040
:104B2000010F1C494FEA620604D011F816104B40E1
:104B3000082104E031F8161083EA1123F8E713F492
:104B4000004F18BF83F4C0535B000139F7D1013225
:104B5000102AE4D10F49C3F3033305439842CD81B2
:104B600001D000200EE00C4A42F2107020806080DC
:104B700062600A480A490B4B0B4A2061A160E3605E
:104B8000626101207CBD00BF64010020001BB700F2
:104B90000010014018070020674A00083D4A00083D
:104BA0004D4A00085D4A0008C948000837B500248E
:104BB00002AB054603F8014D1E200A21012208F030
:104BC00071FD50B19DF80730482B03D125B1044B3E
:104BD0001D7001E0204600E0012003B030BD00BFA1
:104BE0001000002030B585B00622054603216B4633
:104BF0001E2008F057FD9DF801309DF800001A4C6A
:104C000043EA002000B2FFF709F82168FFF75AF8DD
:104C1000FFF71EFA9DF80330ADF808009DF802007A
:104C200043EA002000B2FEF7F9FFA168FFF74AF857
:104C3000FFF70EFA9DF80530ADF80C009DF8040062
:104C400043EA002000B2FEF7E9FF6168FFF73AF897
:104C5000FFF7FEF9054BADF80A00294602A81A78BD
:104C600009F094FF05B030BD0400002010000020C2
:104C70002DE9FF41634B644A1B6893420DD14FF409
:104C80008053ADF8043002238DF8073004238DF8EB
:104C900006305E480DEB030108E05D4A934207D100
:104CA00004A94FF480435B4821F80C3D08F07AFAE0
:104CB000322008F05CFE002111221E2008F0B6FD13
:104CC000012160221E2008F0B1FD642008F04FFE93
:104CD00002A8FFF787FF00240A252746264602215F
:104CE00001221E2008F0A2FD322008F040FE02A89A
:104CF000FFF778FFBDF90820BDF90A10BDF90C30A7
:104D000014449142B8BF0A461E449A42B8BF1346A3
:104D100013F5805F0F4409DD3C4B013DDA6882F0FA
:104D20002002DA60DBD14FF0010801E04FF000080B
:104D30001E200021122208F079FD0A2502210122FD
:104D40001E2008F073FD322008F011FE02A8FFF7C4
:104D500049FFBDF90820BDF90A10BDF90C30A41AAD
:104D60009142B8BF0A46F61A9A42B8BF134613F5E5
:104D7000805FC1EB070707DD244B013DDA6882F055
:104D80002002DA60DAD101E04FF000082046FEF799
:104D900045FF01462048FFF749F8204D20F000402C
:104DA00028603846FEF73AFF01461B48FFF73EF8F9
:104DB00020F0004068603046FEF730FF014618489A
:104DC000FFF734F820F00040A860002170221E2078
:104DD00008F02CFD012120221E2008F027FD1E20B6
:104DE0000221002208F022FD642008F0C0FDB8F185
:104DF000000F04D14FF07E532B606B60AB6004B0AA
:104E0000BDE8F0816401002000127A00000C01402E
:104E1000001BB7000010014000406F460400002056
:104E200001C05E461FB50446012106226B461C20C8
:104E300008F038FC9DF800209DF8013043EA02207C
:104E400040F38D01042391FBF3F29DF802009DF8DD
:104E50000310ADF8082041EA002242F38D0090FBD8
:104E6000F3F19DF805209DF80400ADF80A1042EA20
:104E70000021064A41F38D0090FBF3F3214602A87E
:104E80001278ADF80C3009F081FE1FBD1100002032
:104E900037B50421202302248DF806100546694405
:104EA0001B48ADF804308DF8074008F07BF92A2143
:104EB00000221C2008F0BAFC0E211C20224608F01B
:104EC000B5FC0F2103221C2008F0B0FC2B2112227C
:104ED0001C2008F0ABFC2C211C20224608F0A6FC6C
:104EE0002D2101221C2008F0A1FC2E2100221C20D3
:104EF00008F09CFC05221C202A2108F097FC05489C
:104F00004FF4807202800DB1034B1D703EBD00BF97
:104F100000080140460000201100002013B504469F
:104F200010481149026800238A428DF8073001D1E8
:104F3000002015E01C200D2101220DF1070308F0CF
:104F4000B1FB0028F4D09DF807302A2B01D01A2B92
:104F5000EED10648064A0749206062600B700120C6
:104F60001CBD00BF64010020001BB700914E00086B
:104F7000254E00082807002013B5022204461B21F5
:104F800001AB682008F08EFB9DF804209DF80530E9
:104F900043EA022000F54E5110314FF48C7291FB20
:104FA000F2F3233323801CBD1FB504461D210622C6
:104FB0006B46682008F076FB9DF800209DF80130D4
:104FC00043EA022001B2042391FBF3F29DF80200B0
:104FD0009DF80310ADF8082041EA002210B290FBC2
:104FE000F3F19DF805209DF80400ADF80A1042EA9F
:104FF0000021064A08B290FBF3F3214602A812787A
:10500000ADF80C3009F0C2FD1FBD00BF1300002039
:1050100010B50446192008F0AAFC682015210022CA
:1050200008F004FC10B9032008F044FD0D4B1621D4
:105030001A78682042F0180208F0F8FB17210022C5
:10504000682008F0F3FB3D210122682008F0EEFB08
:1050500068203E21012208F0E9FB0CB102480470EF
:1050600010BD00BF120000201300002038B5054617
:1050700019200C4608F07BFC68201521002208F05E
:10508000D5FB18B3124B13481349144A622C2B60FA
:105090006860A960EA60124B0FD004D80A2C12D0C5
:1050A000142C0CD10DE0BC2C04D0B4F5807F06D1BB
:1050B000002009E00120187038BD022004E0032020
:1050C00002E0042000E005201870012038BD00BF78
:1050D00011500008A94F0008794F00081844923178
:1050E00012000020064B07491A7812B14FF4FF63F3
:1050F00001E04FF480530B8008B1034A10707047F1
:105100002907002046000020140000201FB5044697
:10511000432106226B46682008F0C4FA9DF800205F
:105120009DF8013043EA022001B2042391FBF3F21F
:105130009DF802009DF80310ADF8082041EA002216
:1051400010B290FBF3F19DF805209DF80400ADF836
:105150000A1042EA0021064A08B290FBF3F3214606
:1051600002A81278ADF80C3009F010FD1FBD00BF89
:10517000160000201FB504463B2106226B4668201E
:1051800008F090FA9DF800209DF801309DF802107B
:1051900043EA02209DF80320ADF8080042EA01230B
:1051A0009DF804009DF80510ADF80A30054B41EA62
:1051B0000022ADF80C2002A821461A7809F0E6FC7E
:1051C0001FBD00BF1400002013B5224A4FF4005346
:1051D00004460220ADF804308DF8070013681E481D
:1051E000042183428DF8061001D11C4803E01C49BC
:1051F0008B4203D11B4801A907F0D4FF6B21802209
:10520000682008F013FB052008F0B1FB19210022EB
:10521000682008F00BFB6B210322682008F006FBD6
:1052200037210222682008F001FB0F4A1A21127868
:10523000682008F0FBFA1B211822682008F0F6FA13
:1052400068201C21102208F0F1FA0CB1074B1C70E9
:105250001CBD00BF6401002000127A00000C014058
:10526000001BB700001001401500002016000020B0
:105270002DE9F043814685B023200E46144698461A
:1052800008F075FB6820752101220DF1070308F075
:1052900009FA00286FD09DF80770682F6AD106219F
:1052A0000A4602AB384608F0FDF99DF80B309DF830
:1052B0000D5003F0010105F001004A0042EA8005AB
:1052C0009DF8090000F001031D4308D0012D01D114
:1052D0002A481AE0022D0ED10023284813E00C21A1
:1052E000012238460DF1070308F0DCF99DF807109C
:1052F00011F00F0203D1052008F0DCFB06E0042AC0
:105300001E4802D10123037000E005701C491D4AAC
:10531000C9F800101C481D4B1D49C9F80420306015
:105320007360F160B8F1000F03D0144A107888F868
:105330000000142C174B15D004D8052C16D00A2CBD
:105340000ED111E0BC2C08D0B4F5807F03D0622CC4
:1053500006D102210BE0002109E0012018700AE0CB
:10536000032104E0042102E0052100E00621197078
:10537000012000E0002005B0BDE8F08329070020EF
:10538000E550000875510008C95100080D5100088A
:1053900018449231150000201FB50446A8210622AA
:1053A0006B46682008F07EF99DF800209DF80130DA
:1053B00043EA022001B2042391FBF3F29DF80200BC
:1053C0009DF80310ADF8082041EA002210B290FBCE
:1053D000F3F19DF805209DF80400ADF80A1042EAAB
:1053E0000021064A08B290FBF3F3214602A8127886
:1053F000ADF80C3009F0CAFB1FBD00BF170000203C
:1054000010B50446642008F0B2FA68202321F02287
:1054100008F00CFA10B9032008F04CFB052008F046
:10542000A6FA064B68201A78202142F00F0208F0F5
:10543000FDF90CB10248047010BD00BF2A0700201E
:105440001700002037B5054619200C4608F08FFAE2
:1054500068200F2101220DF1070308F023F99DF8C0
:105460000730D32B16D10C480C490D4A4E2C28601E
:105470006960EA600B4B07D05D2C09D0362C01D057
:10548000002002E0402000E080201870012002E0AF
:10549000C020FAE700203EBD0154000899530008DF
:1054A000DDE9A7312A070020074BA1F57A7153F8EF
:1054B0002000838802684B434FF47A7093FBF0F12D
:1054C0008BB21380704700BF28080020024B53F8AE
:1054D0002000026811807047280800202DE9F04F55
:1054E000DFF828814FEA001558F805408E468BB04A
:1054F00008EB050711468346924620467246019303
:1055000000F018FBB96807F108024FF0020C1823ED
:105510007868ADF8141005A98DF816308DF817C00D
:105520000392CDF808C007F03DFE0398364E077988
:1055300006A80AF0D0FA70220198DDF808C0ADF88C
:105540001820012100234FF4807206EB0509ADF805
:105550001A10ADF81C30ADF81E00ADF820C0ADF843
:1055600024200C2F2BD8DFE807F0072A2A2A102A3C
:105570002A2A192A2A2A2200204606A90AF0A4F972
:10558000204608210AF0DCFA19E0204606A90AF0B4
:10559000DFF9204608210AF0DBFA10E0204606A9D0
:1055A0000AF01AFA204608210AF0DCFA07E0204641
:1055B00006A90AF053FA204608210AF0DBFA08EBA4
:1055C0000B118B7B1BB1204601210AF0A2FA204669
:1055D00001210AF092FA0C2F10D8DFE807F0070F2C
:1055E0000F0F090F0F0F0B0F0F0F0D00343404E0D6
:1055F000383402E03C3400E040347451A9F804A08F
:1056000048460BB0BDE8F08F3C0700204C60010815
:105610001B4A1C4813881180C91A89B240F68C2293
:1056200091420380184B02D900221A707047A1F2F0
:10563000EF2080B240F2DA52904218D81B78072B44
:1056400015D81248032B20F81310114A09D8114815
:105650000088884205D2012101FA03F31078034340
:10566000137012780F2A02D1094B002119700648D5
:10567000094B0278511C017000201880704700BF50
:105680001E0800207C080020580800202C0700205D
:105690002B07002018000020680C00207FB504466E
:1056A00001A80D4616460AF020FA00200123ADF8A5
:1056B0000A00ADF80C0001A92046ADF80450ADF881
:1056C0000660ADF808300AF08FFA7FBD2DE9F74388
:1056D000DFF858800501144E05EB0804A3688946DD
:1056E000761928210746B271606802228DF80610EB
:1056F00001A9ADF804308DF8072007F053FD55F8E7
:105700000800217B0022FFF7C9FF204601224FF647
:10571000FF7100F031FA204639464A4600F0ECF9B4
:105720003046BDE8FE8300BF3C0700204C60010806
:1057300010B5134B00011B18DA795AB901221981EF
:10574000DA71104B02221918097B1858BDE8104075
:10575000FFF7A4BF1C8959810B4A091B9C7989B2A8
:1057600022F8141000249981DC71064B2246191886
:10577000097B1858FFF792FF0448048010BD00BF52
:105780003C0700204C6001082C070020680C00201A
:105790002DE9F0410446028A484B807961781A80ED
:1057A000002814BF0225002501B10135444F57F8E8
:1057B000257000257A5DFF2A02F00F0002F0F00349
:1057C00009D122893F484049B2F5FA7F016071D979
:1057D0003E4B03606EE0A17811B1811E012965D9AD
:1057E000E17811B1011F032960D9E17909B1814242
:1057F0005CD012F0300F03D02278002A08BF0023BB
:10580000217931B1A27922B9A0F10801012998BF0B
:10581000802362792AB1A17919B9021F032A98BF9E
:10582000802303F01001CAB23AB100222849FFF7E1
:105830004DFF284B08221A7038E003F02001CAB24D
:1058400042B1244E24493278FFF740FF3078411CA2
:1058500031702BE003F04001CAB292B123891F4A94
:10586000B3F5FA7F94BF012108214A431C4EB2FBD5
:10587000F3F39AB2A38996F80080FFF72FFE194B35
:105880000EE01B0612D563891449174E91FBF3F203
:1058900092B2E389012196F80080FFF71FFE134BB7
:1058A00043F8280008F1010886F8008001350E2D24
:1058B00080D186E70020BDE8F08100BF18000020FD
:1058C0002060010824080020CD540008A9540008D5
:1058D00011560008210800203157000840420F00EF
:1058E00020080020280800201C0800205C08002058
:1058F00008B5044B1A78824202D9034B1A689047C4
:1059000008BD00BF2008002024080020044B1A789E
:10591000824204D9034B53F820000268118070477B
:105920001C0800205C080020014B33F81000704771
:105930002C070020F8B5134B05469B890E461446EC
:10594000ECB116B116F8017B00E0FF270D480221EB
:1059500009F0FAFE0028F9D00A48394609F0EFFEAE
:105960000848012109F0F0FE0028F9D0054809F0A7
:10597000E8FEC0B20DB105F8010B013CE0E70120E3
:10598000F8BD00BF003800402DE9F047012188B084
:105990004FF4804009F04AFE374C01214FF480401B
:1059A00009F05CFE03214FF420401823ADF80000FD
:1059B0008DF80310204669468DF802304FF0040838
:1059C00007F0F0FB2D4E4FF4804220466946ADF8BB
:1059D00000204FF480554FF0100A8DF8028007F038
:1059E000E1FB69462046ADF800508DF802A007F0B3
:1059F000D9FB304609F046FE07214FF40070002322
:105A00000222ADF81600ADF81C104FF00109304627
:105A100003A94FF48277ADF80C30ADF81030ADF833
:105A20001A30ADF81220ADF80E70ADF814901F4684
:105A3000ADF818A009F058FE3046494609F073FE4B
:105A40009F238DF804308DF805708DF806708DF861
:105A500007700DEB08014246656102A8FFF76AFF77
:105A600025619DF80900B0F1EF014A4252EB0100B7
:105A700008B0BDE8F08700BF000C014000380040CE
:105A800030B500240E4D55F82450854202D0013423
:105A9000E4B2F7E7A400E4B200200A4D2D5C8D4289
:105AA00002D0451CE8B2F8E70019C0B20F2805D8AB
:105AB000054C04EB001083600171027330BD00BF20
:105AC0002C6101083C610108C02500200C2912D876
:105AD000DFE801F007111111091111110B1111115A
:105AE0000D00022104E0042102E0082100E0102161
:105AF00001220AF01CB8704738B504460D4613461B
:105B0000217B00682A46FFF7BBFF2068217BBDE8A8
:105B10003840FFF7DBBF07B58DF8040001200023F4
:105B20008DF806008DF8070001A88DF8053009F002
:105B300071F90EBD7FB5044601A80D46164609F061
:105B4000C1FF0B4B0B485E4301680023B1FBF6F22B
:105B5000013D561E204601A9ADF80850ADF804607D
:105B6000ADF80A30ADF8063009F064FE7FBD00BF25
:105B700040420F006801002010B504460068FFF79E
:105B8000D9FF2068012109F0B8FF607BBDE8104013
:105B9000FFF7C1BF00230C4A52F82320824202D0F3
:105BA0005A1CD3B2F7E79B00D8B20023074AD25C55
:105BB0008A4202D05A1CD3B2F8E71818044BC1B27B
:105BC00003EB0110704700BF2C6101083C61010824
:105BD000C025002038B5022104460AF0AEF801289D
:105BE00020460BD102210AF0B3F820460021FFF72E
:105BF000D1FF054620460AF093F834E004210AF06C
:105C00009CF8012820460BD104210AF0A1F8204677
:105C10000421FFF7BFFF054620460AF084F822E082
:105C200008210AF08AF8012820460BD108210AF041
:105C30008FF820460821FFF7ADFF054620460AF001
:105C400075F810E010210AF078F8012810D12046EC
:105C500010210AF07DF820460C21FFF79BFF054636
:105C600020460AF066F8AB6801460BB1287B9847DE
:105C700038BD00000148FFF7ADBF00BF002C014058
:105C80004FF08040FFF7A6BF0148FFF7A3BF00BF5A
:105C9000000400400148FFF79DBF00BF000800401E
:105CA000014B33F82000704780080020034B00228E
:105CB000DA6008B102490160704700BF682B00201C
:105CC000A15C0008072802D1034B01221A70034A85
:105CD00042F82010704700BFA00800208008002074
:105CE000034B187810B100221A700120704700BFD2
:105CF000A00800201D481E49026800608A4200F08A
:105D00001F80002100F004B81A4B5B584350043147
:105D100019481A4B42189A42FFF4F6AF184A00F09D
:105D200003B8002342F8043B164B9A42FFF4F9AF44
:105D300008F06AFF0FF024FB03F0CAFAFFF7FEBF7A
:105D4000114E124830601248016821F07061016004
:105D5000410201600F4C182020600F490F48086075
:105D60000F48D0F800D0406800470000F04F0020F6
:105D7000EFBEADDEA8AC010800000020BC0600208C
:105D8000BC0600209C3E00201810024009000000C4
:105D900004000140140C0140000C01404434434411
:105DA00000F0FF1FFFF7FEBFF8B5174C064623783B
:105DB000274673B907F0CAFD144D2A683232904263
:105DC00007D30120207007F0A1FE07F0BFFD286077
:105DD000F8BD3878B0B107F0B9FD0C4C21687318E4
:105DE00098420FD3084A0020107007F08FFE07F08A
:105DF000ADFD20600648017809B14B1E03700548CF
:105E000001220270F8BD00BFA2080020A8080020EF
:105E1000F80C0020A308002037B58DF805102249A2
:105E20008DF807300B788DF8040002A88DF8062055
:105E3000C21812F8044C0D46443CE0B20A282CD893
:105E40001A49022B31F8104003D814B12046FFF74D
:105E5000ABFF2B78022B0BD9154D2D6807F076FD83
:105E6000021B954204D21049124B00200870187092
:105E7000114802780146012A00D094B90A4B1878DB
:105E8000022801D8421C1A70002008700B490870C3
:105E900003B0BDE8304007F039BE3224022BD5D91B
:105EA000D7E703B030BD00BFA5080020406101085E
:105EB000A8080020F80C0020A3080020A208002059
:105EC0002DE9F0413D4B04465A7B3D4802B1012289
:105ED00002704FF4007001F095F9D8B1394E3A498B
:105EE00096F8AE50052000FB05F20B8819B29142DE
:105EF0000DDD364F364A7F783FB196F8AF60012707
:105F0000AD1968438142177001DD022111700BB990
:105F10002F480370202001F055F960B1274A2D4B1E
:105F2000917A09B9D07A20B1284AD17A09B90120E9
:105F300000E000201870264B1A78022A02D14C206B
:105F40004E211EE0012A07D14D2153204C220B4641
:105F5000BDE8F041FFF760BF1E490878012803D172
:105F6000532001464E2206E0154B1A78012A04D12F
:105F70005320014602464D23EAE7042C03D1532067
:105F80004D210A460AE0022C03D1532001464D223E
:105F900004E0012C04D153204D214E224423D7E7A5
:105FA0000D49087820B13220BDE8F041FFF7FCBE72
:105FB0000A4B1870BDE8F04107F0A8BD2E2C002058
:105FC000A1080020C0260020680C0020CA2B002059
:105FD000A6080020A4080020F80C0020A208002039
:105FE00070B50646B6FBF2F40846154614B12046D5
:105FF000FFF7F6FF05FB1464024B195D00F8011B67
:1060000070BD00BFD06201082DE9F041027803465F
:106010000130202AFAD0092AF8D02D2A02D10346CD
:10602000414D04E02B2A08BF03464FF07E551E4623
:106030000024334616F8010BA0F13007F9B2092904
:106040000DD83A492046FDF73DFE04463846FDF797
:10605000E5FD01462046FDF72DFD0446E9E72E2823
:1060600017D1324F334616F8010B3038C2B2092A25
:106070000FD8FDF7D3FD3946FDF7D8FE014620467F
:10608000FDF718FD294904463846FDF71BFE074673
:10609000E8E71878652801D0452839D15E782D2E9B
:1060A00002D19F1C012605E02B2E01D05F1C00E0D1
:1060B0009F1C00267B1E002713F8012F303AD1B217
:1060C000092903D80A2000FB0727F5E7B7F59A7FCF
:1060D00028BF4FF49A77B8464FF07E51B8F1070FBA
:1060E00007D908461249FDF7EDFDA8F10808014659
:1060F000F4E707F0070737B108460C49FDF7E2FD62
:10610000013F0146F7E72EB12046FDF78FFE04E080
:106110004FF07E512046FDF7D5FD01462846FDF79C
:10612000D1FDBDE8F08100BF000080BF000020412C
:1061300020BCBE4C10B5441E14F8011F21B1034B06
:10614000186807F009FFF7E710BD00BF682B0020B3
:106150000148FFF7EFBF00BFF562010810B507481F
:10616000FFF7E8FF0024064B06481A19E158526869
:106170000C3408F0B9FBC02CF5D110BD2363010825
:10618000F46101083963010870B507F0DFFB274CA3
:10619000274B4FF47A71B0FBF1F11A782548237838
:1061A00008F0A2FB01F028F80546234823490268BD
:1061B0002348B2FBF1F108F097FB0024214B53F880
:1061C000241051B1012000FA04F0284202D01E48E8
:1061D00008F08AFB0134E4B2F0E7022000F0F2FF9D
:1061E00098B11A4C1A4922781A4851F8221008F02E
:1061F0007BFB2378022B08D11748047F1748002C1B
:106200000CBF6E216F2108F06FFB1548FFF792FF5E
:10621000144A148807F06CFB0246134821464FF4D9
:106220005F73BDE8704008F05FBB00BF4400002012
:10623000182C0020416301086801002040420F0033
:106240007F630108A07001089D630108B00E002063
:10625000B4620108A1630108682B0020AB63010848
:10626000F6890108EA0C0020AF63010838B50C6814
:10627000054620460FF0F4F9024628682146BDE89D
:1062800038400FF01DBA000008B50948FFF752FF6B
:106290000121002000F032FF0648FFF74BFF0A20E3
:1062A00007F065FB0020BDE8084007F01FBC00BFF9
:1062B000E1630108EB6301087FB504460FF0D0F9F4
:1062C000082824D100231E49E25C086885186E78EE
:1062D00006F00301022908BF203AE2540133082BDB
:1062E000F1D10025665D174831460FF0E1F828B17D
:1062F0000135601931460FF0DBF818B11248FFF78D
:1063000019FF1CE0082DEDD1204600F057FE0F4884
:10631000FFF710FF00230E4A04A9981890F80821EF
:106320008818084A995C0133082B00F80C1CF2D13C
:1063300000208DF80C0001A9064808F0D5FA7FBDB1
:106340008C020020E0780108FA6301081A64010851
:10635000842700203C63010808B501F02BFB0130C5
:106360000CBF03480348BDE80840FFF7E3BE00BF89
:106370002F640108556401082DE9F04105460FF02E
:106380006FF9044601F0DCF8064694B92A48FFF795
:10639000D1FE2A4951F8241049B1012202FA04F22F
:1063A000324202D0264808F09FFA0134F1E725482E
:1063B00021E02846244922460FF082F958B92348A3
:1063C000FFF7B8FE224C54F8041F0029EFD01C48F8
:1063D00008F08AFAF7E72B782D2B04D10135013C20
:1063E0004FF0010801E04FF000080026134850F874
:1063F000267027B91748BDE8F041FFF79BBE284635
:10640000394622460FF05CF9A0B9012000FA06F0E7
:10641000B8F1000F03D001F08BF80F4802E000F054
:10642000FBFE0E48FFF786FE0D483946BDE8F041F9
:1064300008F05ABA0136D9E77364010858610108B7
:106440009D630108F6890108AB6E010886640108A6
:10645000546101089B640108B5640108BF64010828
:106460003C63010810B504460848FFF763FE084A7C
:10647000084809490023036013700B7003F0A2F869
:106480002046BDE81040FFF7FFBE00BFC86401080A
:10649000AC080020DC080020280F002008B50848C0
:1064A000FFF748FE012000F0BFFE0648FFF742FE5E
:1064B0000A2007F05CFA0020BDE8084007F016BB90
:1064C000E0640108ED630108F8B507460FF0C8F86D
:1064D000044638B91A491B4B4A791B48511E53F8D8
:1064E000211028E03846194922460FF0E9F860B932
:1064F0001748FFF71FFE174C54F8041F19B1164830
:1065000008F0F2F9F8E7154805E000250D4B53F8BF
:10651000256026B91248BDE8F840FFF70BBE3846A3
:10652000314622460FF0CCF801350028EED1044860
:10653000314645710B48BDE8F84008F0D5B900BFB9
:106540008427002098610108FB640108AB6E0108F4
:106550000F650108946101089D630108F68901082F
:10656000226501083A65010810B5044620460FF07F
:1065700077F810F0FF0F07D10B490C4891F878130A
:10658000BDE8104008F0B0B920460EF0CDFE02285C
:1065900008D8054B064C83F878030020014600F02C
:1065A000ADFDE3E710BD00BF842700204C65010866
:1065B0007068010870B504460FF052F808B9204819
:1065C00030E020461F490FF029FB002426462546CF
:1065D00078B12CB1012C06D10EF0A6FE064602E0E1
:1065E0000EF0A2FE05460020164901340FF016FBFE
:1065F000EEE70B2D05D914480C21BDE8704008F0DA
:1066000073B9012C08DC114A114832F915202946CA
:10661000BDE8704008F068B9A6F57A73B3F57A7FE3
:1066200004D90C48BDE8704008F05EB90A48294614
:10663000324608F059F9054820F8156070BD00BFD2
:10664000626501083A6801089C650108A02B0020DA
:10665000C2650108DA650108FC65010838B5054620
:106660000EF0FEFFC0B260B904461149114801EBBB
:106670004402D28F2146013408F036F9152CF4D1AA
:1066800038BD28460EF050FE142804460ADC2021AE
:1066900028460EF00DFF0EF047FE054B03EB4404B9
:1066A000E08738BD04481521BDE8384008F01CB922
:1066B000C02600201566010821660108931E222BC2
:1066C00088BF0A22031E10B50C4603DA2D2001F8FC
:1066D000010B5842FFF784FC00210170204610BDD9
:1066E00030B587B005460C4603A800210C220EF0F9
:1066F0006FFE28460021FDF7A1FC20B1284629495C
:10670000FDF7D8F903E028462649FDF7D1F92649D7
:10671000FDF7D8FAFDF79CFC054685EAE570A0EB8D
:10672000E5700A226946FFF7C9FF002D01DB20232F
:1067300000E02D2368468DF80C300EF091FF012803
:1067400007D130228DF80D208DF80E208DF80F2006
:106750000CE0022805D130218DF80D108DF80E10B7
:1067600004E0032802D130208DF80D00694603A80B
:106770000EF078FE03A80EF073FFC51EEDB22A4698
:1067800003A920460EF0C4FF0023635520460749A5
:106790000EF068FE03A9204649190EF063FE20465C
:1067A00007B030BD6F12033A00007A44F863010865
:1067B00037B5037904460D46052B34D8DFE803F0DE
:1067C00003060A0D1114816809782DE0806890F99C
:1067D000001029E08368198826E08268B2F9001069
:1067E00022E0816809681FE0806869460068FFF759
:1067F00077FF0146114808F077F8F5B1E068FDF73A
:106800000DFA6946FFF76CFF01460D4808F06CF879
:106810002069FDF703FA6946FFF762FF0146084861
:1068200008F062F809E00021064808F05DF825B19B
:106830000548E168226908F057F83EBDA8630108E1
:10684000A763010812820108476601082DE9F04795
:1068500006460EF005FF054620B1012819D1337810
:106860002A2B16D14748FFF765FC002414266643FF
:10687000454F4648F15908F037F8B8192946FFF74F
:1068800097FF01344248FFF755FC682CEED1BDE874
:10689000F08730463D210EF00BFE002857D0441CF7
:1068A00020460EF041FD82462046FFF7ADFB002753
:1068B000054614247C43DFF8D09054F80980404604
:1068C0000EF0CEFE4146024630460EF0F9FE00289C
:1068D00035D14C44E068FDF7A1F901462846FDF7A3
:1068E000A3FB002829D02069FDF798F90146284626
:1068F000FDF790FB002820D020792279052818BFC9
:106900005546052A0FD8DFE802F003030606090CF6
:10691000A1680D7007E0A268158004E0A06805601A
:1069200001E0A1680D6041461A4807F0DDFF2046EE
:106930000021BDE8F047FFF73BBF174803E00137F0
:10694000682FB6D11548BDE8F047FFF7F3BB044602
:10695000142565430C4F314655F8078040460FF02B
:106960005DF850B10948414607F0BEFF7819002193
:10697000FFF71EFF064807F0B7FF0134682CE7D188
:10698000BDE8F0874E660108C07001082D67010858
:10699000F6890108636601086E66010893660108BE
:1069A0002DE9F043584885B0584C07F09DFF5848F2
:1069B000FFF754FE6279574B511E574853F8211088
:1069C00007F092FF20690021FDF710FB002858D145
:1069D0000025266900213046FDF708FB00284CD130
:1069E00001354E482946D4F81490D4F81880E76948
:1069F00007F07AFF30460021FDF702FB10B148484E
:106A000007F072FF69463046FFF76AFE01464548C7
:106A100007F06AFF48460021FDF7F2FA10B140483E
:106A200007F062FF69464846FFF75AFE01463D48B7
:106A300007F05AFF40460021FDF7E2FA10B138484E
:106A400007F052FF69464046FFF74AFE01463548C7
:106A500007F04AFF38460021FDF7D2FA10B130485E
:106A600007F042FF69463846FFF73AFE01462E48D6
:106A700007F03AFF10340C2DABD12C48691C07F0FD
:106A800033FF00F05DFD2A4C064654F8041F19B18F
:106A9000284807F029FFF8E70D46274850F8251049
:106AA00049B1012202FA05F2324202D0234807F02E
:106AB0001BFF0135F1E7154B214ACE1896F8084126
:106AC0008B5C04A801310519082905F8103CF2D1A6
:106AD00000241C4869468DF8084007F005FF14257E
:106AE0006543194E1948A95907F0FEFE0021701997
:106AF000FFF75EFE01341648FFF71CFB682CEED151
:106B000005B0BDE8F08300BFB0660108842700200F
:106B10007068010898610108E0660108EB660108E9
:106B20003A680108A86301083C630108F36601089C
:106B300054610108056701085861010813670108DD
:106B4000E078010820670108C07001082967010882
:106B5000F68901082DE9F04389B004460EF080FD66
:106B6000C6B2002E6AD17948FFF7E4FA784C206962
:106B70000021FDF73BFA38BB01367648314607F075
:106B8000B3FE206904A9FFF7ABFD0146724807F088
:106B9000ABFE606904A9FFF7A3FD01466E4807F04C
:106BA000A3FEA06904A9FFF79BFD01466A4807F010
:106BB0009BFEE06904A9FFF793FD0146674807F0D3
:106BC00093FE10340C2ED2D10025654C2F46A846DA
:106BD0004FF000091034B14514DA404654F8101C47
:106BE000FCF768FF54F80C1C80462846FCF762FF4F
:106BF00054F8081C05463846FCF75CFF09F101090A
:106C00000746E7E75748CDF8048002950397FFF75A
:106C100091FA002401A82358534923F00040FDF7BE
:106C20000DFA5249524A0434002814BF104608464F
:106C3000FFF780FA0C2CEDD14E4870E020464E490B
:106C400005220EF03DFD38B9414B0022C11810302D
:106C5000C0280A61F8D176E02046484904220EF0A7
:106C60002FFD0546204605BB20210EF021FC002803
:106C700069D0461C30460EF0F3FC2C4607464048CF
:106C800050F824500DB93F4849E030462946FAB241
:106C90000EF016FD38B9204602F036FD3A48294676
:106CA00007F022FE47E00134E9E70EF03DFB461E07
:106CB0000B2E074643DC204620210EF0F9FB05464B
:106CC00040B1451C2846FFF79FF9214B3F01D851A1
:106CD000012400E00446284620210EF0E9FB054689
:106CE00040B1451C2846FFF78FF91949013401EBE3
:106CF00006125061284620210EF0DAFB054640B10D
:106D0000451C2846FFF780F9114B013403EB0611AF
:106D10008861284620210EF0CBFB18B91B48FFF7ED
:106D200009FA10E00130FFF76FF9094A032C02EB72
:106D30000616F061F2D11648FFF70CFF03E0154884
:106D40000C2107F0D1FD09B0BDE8F0833B670108D5
:106D500084270020666701086C6701083C6301080E
:106D600098270020706701080AD7233C376701087D
:106D700033670108F68901087F6701088567010804
:106D800098610108226501088A6701089D6701086A
:106D900070680108D7670108F0B5694B87B01A78A9
:106DA0003AB9012018706748FFF7C4F96648FFF741
:106DB000C1F9664C206806F0BAFE002800F0BD80DC
:106DC000206806F0B9FE09280146614A01D03F2833
:106DD00051D1002517685F4C2E462FB15E482168BF
:106DE0003A460EF06DFC10B9254606B926465B49B9
:106DF0000C348C42F1D3C6B13468D5F800E03B4680
:106E0000E05C1EF8031081420DD1534A41B92D2B8D
:106E100006D820244E48D45401330360D15404E0F2
:106E2000D0540133ECE74A490B60494A14681CB15D
:106E3000AE4201D13C4612E04948FFF77BF9AE4231
:106E400009D856F80C0BFFF775F9404B0921186863
:106E500007F082F8F3E73C48FFF76CF900243C4B5D
:106E600018688442A5D239493B4A0868115D07F089
:106E700073F80134F3E713682BB9042838D1364886
:106E8000FFF7F0FA59E00C2801D136488CE70A29BF
:106E900001D00D2948D12E4D3348FFF74BF92E4C28
:106EA0002A6832490023A3540493009103A8294976
:106EB00010220C2303940EF03BFA054638B100680B
:106EC0000EF0CEFB0130AA682018904702E0284857
:106ED000FFF730F9002130221F480EF079FA1848E8
:106EE0001B4B027800211960002A7FF45FAF24E079
:106EF0000C28CAD07F2903D15BE72F2B3FF659AF6F
:106F00001F297FF656AF7E293FF653AF13B92029CC
:106F10003FF44FAF104C0E480C4AE154013303606C
:106F2000106807F019F844E77F29E6D10A485C1E8B
:106F30000021015514600F4839E707B0F0BD00BFCC
:106F4000280F0020FF67010837680108682B002020
:106F5000DC080020F4610108AC080020B4620108DC
:106F60003C68010841680108F68901086D62000863
:106F70004C6801086D6801080E4B1A783A2A16D140
:106F80005888B0F55F7F12D11979BE290FD193F8D7
:106F90007A230020EF2A0CD113F8011B064A48403F
:106FA0009342F9D1D0F1010038BF00207047002092
:106FB0007047704700F801087CFB010870B5054672
:106FC000441E14F8011F61B1064E30460EF070FAEF
:106FD0000028F6D0861B0448631B811981F808310C
:106FE000EFE770BDE0780108842700202DE9F84321
:106FF000FFF7C2FF10B90A2006F05CFD3A4C3B498E
:1070000020464FF45F72FDF769F894F87833204614
:10701000022B02D9002284F8782390F87813C42236
:1070200002FB0105324E05F596713046FDF756F824
:1070300096F82070F47F002303FB03F0193878439F
:1070400000F6C4165E43664340F6C412294D96FB13
:10705000F2F125F813100133072BEDD1244C224A0D
:1070600094F821000A27474394F82260B2F8D050E0
:10707000B2F8D2804342C0F1640E9CB25FFA8EFE39
:10708000C6F1640CC5EB0808002322B2002A04DC18
:10709000B8BF014602DB012100E0714602FB02F9A4
:1070A000494309FB06F999FBF1F1614451434FF063
:1070B0000A0991FBF9F2B9180AB202FB08F14FF480
:1070C0007A7291FBF2F10C4A6918995202334C44DE
:1070D000182BA4B2D9D10648007803F069FBBDE8AB
:1070E000F84300F0DDBB00BF8427002000F8010852
:1070F000C0260020B22C0020E22B00202C4B70B5C3
:107100003A2206464FF45F701A705880BE25EF226F
:1071100000201D7183F87A2383F87B0349B193F82B
:107120007813C42202FB0133224903F59670FCF761
:10713000D5FF00210D461E4A885C0131B1F55F7F05
:1071400085EA0005F7D182F87B53002508F04EF858
:10715000342008F05FF8184808F0B2F8042811D17C
:10716000154C164B2046E15808F080F8042805D04D
:10717000013508F047F8032DE8D103E0104A043444
:107180009442EED108F03EF8032D02D0FFF7F4FE52
:1071900010B90A2006F08EFCFFF728FF36B10F2049
:1071A00014210122BDE8704003F046B870BD00BF55
:1071B00084270020C026002000F80108842FFE1735
:1071C0007CFB0108034B196808420CBF002001201A
:1071D000704700BFE0080020024B1A681043186097
:1071E000704700BFE0080020024B1A6822EA000046
:1071F00018607047E0080020014B1868704700BF16
:10720000E0080020034B996808420CBF00200120D1
:10721000704700BF84270020024B9A681043986093
:10722000704700BF842700202DE9F7430446FFF78D
:10723000A3FE10B1002C00F06781B54AB54D10686F
:107240005168B54C6B4603C34FF45F72284600216A
:107250000EF0BEF8C422002120460EF0B9F83A2004
:107260000721287008206971FFF7D6FF1020FFF76B
:10727000D3FF0220FFF7D0FF2A23A5F8EE304FF40A
:10728000FA702B23A5F8F60085F80531212040F28D
:10729000DC5385F80601A3F5C870A5F81231A5F8EE
:1072A000140100F5487340F27E40A5F81631FA2229
:1072B00000F52F73202100274FF00108A5F8F220D8
:1072C00085F8F41014220421A5F8D000A5F8D230D6
:1072D0004FF47A7EA3F5DE704FF4167640F2B45385
:1072E000A5F8F06085F8042185F81011A5F8D4E020
:1072F00085F87873A5F8F870A5F8FA70A5F8FC7011
:1073000085F8E27085F8E37085F8E470A5F8E6701A
:10731000A5F8E870A5F8EA7085F8ED7085F8EC80BE
:1073200085F8077185F8297185F82A7185F8187133
:1073300085F8197185F81A81A5F8D600A5F8DA3014
:107340006C303223A5F8D800A5F8DC301846A5F833
:10735000E0304FF4E133C5F820314FF49643C5F8DF
:10736000243140F6AC53AB8117234FF01E096375EF
:10737000A3755523A5F8DEE085F81C7185F81D710D
:1073800085F8287185F81B7185F8797384F80B905E
:10739000282584F80C90E3704FF00B0C2D234FF050
:1073A000080E4FF00E096373207184F805C0A271B6
:1073B00084F810E0A37684F8079027706570A570B4
:1073C000E775A7732776E773677662745022E276D3
:1073D00023755A22412384F8210050482272E27713
:1073E00084F820304E4A4F4B4FF00A094FF0640C9E
:1073F0004FF0780E84F82C10206315214A4884F849
:107400002F10626384F8129084F81CC0657284F8AF
:107410000AE084F81E8084F8237084F8247084F8CD
:10742000257084F82270A4F8408027856785E7845A
:1074300084F82D5084F82E50A36384F83C80FFF725
:10744000BDFDC8214FF4966040F2D9323E4684F823
:10745000687084F8697084F86A5084F86B8084F8E6
:107460006C7084F8AE9084F8AF10A4F8B000A4F863
:10747000B2204FF4FA611DF807204FF47F73A1F595
:10748000FA700137A4F86E30A4F87010A4F87200F6
:1074900084F874200834082FEBD11F4C0123C82135
:1074A000142084F8B43084F8B53084F8B630A4F8E9
:1074B000B81084F8BA0084F8BC301E2264234FF45C
:1074C0009671282084F8BB20A4F8BE30A4F8C01020
:1074D000A4F8C20000240F4A0021A3181034C02CC5
:1074E0001961F8D100241148C42220180A49C43473
:1074F000FCF7F4FDB4F5137FF5D10020014603B08D
:10750000BDE8F043FFF7FABD03B0BDE8F08300BF6C
:10751000B05F010884270020C02600209A99193FF7
:10752000F6287C3F3D0A773FE9780108B028002023
:10753000024B9A6822EA0000986070478427002076
:10754000014B9868704700BF8427002010B5FCF7F6
:1075500065FB00210446FCF771FD08B1204601E0FF
:1075600004F100400549FCF761FC0549FCF7AAFB62
:107570000BF096FF034B186010BD00BF8096184BB0
:1075800035FA8E3C1C00002010B5044C00232070FE
:10759000236106F0DBF9606110BD00BF042B002001
:1075A000F8B5101A0C461F46FCF738FB0546381B89
:1075B000FCF734FB174B079E1968FCF783FB294641
:1075C00004462846FCF77EFB214607462046FCF78A
:1075D00079FB01463846FCF76DFA0CF09DF90E492F
:1075E000FCF770FBFCF75AFD06990860214605F18F
:1075F00000400CF007F80949FCF764FB0849FCF768
:1076000059FAFCF725FD0028BCBF00F50C40A0305E
:107610003060F8BD1C0000202C7D8E3FA00CB345CF
:1076200000A00C46F8B51D4614460E46FCF7F6FAC7
:107630006968FCF747FB3146FCF744FB2168FCF71F
:1076400039FA2060FCF704FDED68074605F10040BB
:10765000FCF7FEFC06462846FCF7FAFC31460246DB
:10766000384607F071F9FCF7D9FA2060FCF7F0FC16
:10767000F8BD000010B50446002003460B49CA5C63
:1076800092B12E2A04D1013374B1C91800220A55CF
:10769000064A0A21D25C4843A2F13001092901D8E7
:1076A000303880180133E9E710BD00BF620A0020BE
:1076B0002DE9F0412E4B93F81C0110B1012852D155
:1076C0000AE02C4B0C2059782B4A41432B4B506835
:1076D000595806F036FA43E0274D686806F036FA46
:1076E000002840D0234C21782646012920D106F0DD
:1076F0002DF906466069321A632A37D921690429AF
:1077000014D84FF00C0808FB01F31C4F6868F958B7
:1077100006F017FA607808FB00776868796806F069
:10772000FBF922696661511C21611CE0022018E00E
:1077300022693AB964780C235C4310496868095996
:1077400006F0FFF933690B4C8B2B09D80C4A0A4819
:10775000D15C406806F0DBF921694B1C236102E033
:107760000320FFF711FF034800214160BDE8F081CD
:1077700084270020042B0020682B0020587A010861
:10778000CC79010810B51A4C2378581E03282DD83F
:10779000DFE800F002021C06BDE81040FFF788BFDA
:1077A000637860685A1C411C0523D0B26160B0FB4D
:1077B000F3F103FB1102627006F0C8F80D4B0E499D
:1077C000A06000201870C87201200BE006F0BEF81F
:1077D000A16840F6C412431A934207D92020FFF74C
:1077E00003FD0420BDE81040FFF7CEBE10BD00BF72
:1077F000042B0020722C0020CA2B002010B50B4C4B
:10780000E37A8BB10A48017804290DD9094A0A4B59
:107810001068516818605960FFF798FE0748084BD8
:10782000028801211A80217310BD00BFCA2B0020DD
:10783000722C0020542C0020242C0020FC2C002032
:10784000720A0020002370B51C460F48002119520F
:10785000142060430D4A0E4E0E4D995200223250B4
:10786000595335180C4E6960AA60325035180B4ECA
:1078700001346960AA6002333518022C3250696005
:10788000AA60E2D170BD00BFDE2B0020420D0020B7
:107890005C090020FA2B002010090020B40A002007
:1078A00070B5204C204D6079FCF7B4F91F49FCF706
:1078B000BDFA2860E07BFCF7ADF91C49FCF7B6FA8D
:1078C0001B4E6860EE60A079FCF7A4F91949FCF73B
:1078D000ADFA194D2860207CFCF79CF91349FCF7A0
:1078E000A5FA6860A07EFCF795F91449FCF79EFAAA
:1078F000EE60A860E079FCF78DF90E49FCF796FA86
:107900000F4D2860607CFCF785F90849FCF78EFA7A
:107910006860E07EFCF77EF90849FCF787FAEE60C4
:10792000A86070BDC02600204C0A00200000C8429C
:107930000000FA4400002041880A002000007A4438
:107940004C09002038B505460020FFF71DFE4FF416
:107950008070FFF757FC00281FD0104C657005F0B1
:10796000F5FFA0600E48002390F81C116360002909
:107970000CBF01240324FFF793FF0C225543094B4E
:1079800009495A590948234606F0A0FB08494860AE
:107990000120BDE83840FFF7F7BD38BD042B0020BB
:1079A00084270020587A0108797B000800440040B1
:1079B000682B0020F8B51A4B187803282CD11949E8
:1079C000194D4C68002210262027E2626E616F611B
:1079D000144C606806F0ABF858B1134D10262E61B8
:1079E0006068276806F0A8F80146384606F08FF868
:1079F0006E610C4C206806F09AF80028E8D00A4D19
:107A0000202694E881002E6106F096F8014638465B
:107A100006F07DF86E61DBE74FF0FF30F8BD00BF88
:107A2000042B0020682B0020000C0140F7B50368F0
:107A3000164C174D23600968164E61600068FFF709
:107A400085FD94E80C0014480196009095E8030029
:107A5000FFF7A6FD6B68114A61683668C81A1660A0
:107A6000FCF7DCF80E4A0F4F1168FCF72BF9FCF716
:107A7000EFFA2968786020680B4A431A0B483B608C
:107A8000B0F8BE100A4B16601980FEBD780A0020BF
:107A9000542C0020DC0A0020E80A0020740A002090
:107AA0001C0000200C0B0020F00A0020C026002043
:107AB000080B002044F25063984203DDA0F50C400F
:107AC000A038704703498842BCBF00F50C40A03085
:107AD000704700BFB0B9FFFF244BF0B51D680246E8
:107AE00016781446A9194B78013203F00401CBB281
:107AF000002BF5D1221A022A09DD13B10A225343C1
:107B0000DBB210F8011B30395B18DBB2F2E7002161
:107B1000844209D911B10A225143C9B210F8012B8C
:107B2000303A8918C9B2F3E72E2E11D1013404205E
:107B300000220A2672432678AF197F7807F00407DF
:107B4000FFB217B1303A921901340138F1D100E097
:107B5000002207484143642000FB02110622054829
:107B6000B1FBF2F100FB0310F0BD00BF8C0200205E
:107B700040420F00809698002DE9F04F9F4B91B046
:107B800093F81C11C4B2012900F0DC8002D3022951
:107B900040F0BE85242C07D1994A9A489A4900237F
:107BA000137003700B70C7E02C2C02D02A2C40F00D
:107BB0008280944D924A2978944B1578002058542D
:107BC000934AB5B918781570472868D15978502963
:107BD00065D19878472840F08985D978472940F0C1
:107BE00085851B79412B40F081850120107000F0C4
:107BF0007DBD117801293AD1022D05D11846FFF734
:107C00006BFF844908604AE0032D07D11978532996
:107C100045D1804802685342036040E0042D05D1FD
:107C20001846FFF759FF7B4B586038E0052D07D108
:107C30001B78572B33D177494A68504248602EE071
:107C4000062D07D119787448302994BF00210121ED
:107C5000C17224E0072D04D1FFF70CFD6F4A1070AC
:107C60001DE0092D1BD1FFF705FD6D4B16E0022924
:107C700015D1072D0CD10120FFF7FCFC41F2184271
:107C800050434FF47A71674BB0FBF1F0188006E077
:107C9000082D04D10120FFF7EDFC634B1880584BF1
:107CA0005849013500202A2C1D7008703BD15F49CE
:107CB0000120087040E00D2C5C4A01D00A2C28D12C
:107CC00013780BB3514908784978A0F13003DAB240
:107CD000092A84BFA0F13702D2B2A1F1300302F029
:107CE0000F00DAB20001092A84BFA1F13702D2B233
:107CF000454B02F00F0140181A78C1B2B2EB010CEB
:107D0000DCF1000050EB0C03484A002111707BB9F4
:107D100012E03C490B780E2B03D83C48C454013385
:107D20000B70127842B9384B1A7854401C7003E03B
:107D300037480378012B00D00023D80700F13581A4
:107D400000F0E6BC3A4B00221978082900F2E084E2
:107D5000DFE801F00A05101827377C95A100622C96
:107D600001D1022294E01A70B52C40F0D184187829
:107D7000421C8DE02F4D304A032119702C70147075
:107D80002E4B0BE02C4904251D700A782B4BA518AF
:107D90001878EAB210181870294B0A701C7000F09D
:107DA000B7BC254A05251D70244B15781978641930
:107DB000E4B2147064181C70224BC0B2188000F03A
:107DC000A7BC06221A701C4A1C4B15781978641936
:107DD000E4B2147064181C701A4B198801EB00206F
:107DE00082B2B2F5007F01D81A8003E0002018802B
:107DF0000F4B18700022144900F076BC8427002035
:107E00000C090020000B0020B00A0020620A0020AC
:107E100046090020542C0020CA2B0020722C002080
:107E2000DC2B0020FE2B0020540D00200A0B00202C
:107E3000060B0020F40A00205C0A00205D0A0020E6
:107E40000D090020600A0020160B00205E495F4DDE
:107E50000B782878E218D3B2181828705C4D0B7094
:107E60002A885C48C72A9CBF5B498C54511C8BB242
:107E70002B8005889D4240F04B84072207E00825AF
:107E80001D70514B1978A14200F042840022534BDF
:107E90001A7000F03DBC4D4D1A702878A04240F099
:107EA00037844F4B197806293BD005D8022913D0C7
:107EB000032940F02D8423E0122947D0302940F0D7
:107EC00027844549474B0A794349102A88BF102225
:107ED0001A701D78002347E03F4B434D9A6859685C
:107EE00018692A60414A69604FF47A7590FBF5F190
:107EF0003F4B10783F4D1980E87201213E4A23E044
:107F0000354A557915F0010504D01079C11E4B4250
:107F100053EB0105354A1570002D39D13548C5722E
:107F200036E02D4DEB7A13F0010304D0A87AC11E80
:107F30004A4252EB01032D4D2B700BB92D48C372F1
:107F400025492E4A91F82F10117021E0224D2C491D
:107F50006869AA69088042F210732A4892FBF3F517
:107F600005800121284AEFE70C31AB4210DA11F805
:107F7000044C264811F8032C1C54254C25481A554E
:107F800011F8012C0C781A54234A9C540133EBE766
:107F9000194A1378002B00F0BB831B4D287800286A
:107FA00000F0B683002414702C701C4CA168E160B2
:107FB00005F0CCFCA0602020FFF70EF9184B1A78D2
:107FC000012A2FD100202EE05C0A00205D0A00204B
:107FD000160B0020600A002084090020060B0020F8
:107FE0000D090020732C0020542C0020140B0020BD
:107FF000DC2B0020CA2B00205E0A0020722C0020FF
:10800000FE2B0020540D0020F50A0020B82B002084
:10801000432C00205C2C0020A02C0020042B0020EE
:10802000900C002001207D491870CB7A002B00F0C5
:108030006F837B4A1078042840F26A834E7806B931
:108040000E730F7B17B90EB1FFF7D8FB754D0521E5
:108050002C78754E631C93FBF1F201FB1230734FC9
:10806000287096F800C0724D07EB80020023714C17
:1080700071491E59DFF80CE27048714F5E5096FB53
:10808000FEF1195007FB0160DFF8FC9103EB040AD5
:1080900042F2107490FBF4F6B4B2176853F809601A
:1080A0001060C7EB06084044052643F8090090FB22
:1080B000F6F00EFB01016348BCF1010F25F8024FF9
:1080C000195005D1023CB4F5797F98BFCAF8001069
:1080D00004331432082BCAD105F038FC5A4D5B4CDE
:1080E0002A68801AFBF796FD5949FBF79FFE20602E
:1080F00005F02CFC286025684FF07E512846FBF7E0
:108100007FFF08B94FF07E550CA90DAA4948514B85
:1081100025600091019203C80CCBFFF741FA0C983F
:108120006423B0FBF3F24C490D980A8090FBF3F303
:108130004A4A3A481380037B0BB90B8013804849A5
:108140000A78002A36D0414F4FF07E503968FBF74D
:108150006DFE444D374E2B6804463068C01AFBF75D
:108160005DFD2146FBF7AEFDFBF772FF6A687168A3
:108170003D4D0746881AFBF751FD2968FBF7A2FD24
:108180002146FBF79FFDFBF763FF04B2374802254A
:10819000B0F902303FB2E11891FBF5F2B0F90010EE
:1081A00093B27A18324C92FBF5F18AB26380228046
:1081B000438002801F4A2A4B012018705168294BC6
:1081C000106859601860154B1A7A1AB9DB79002BC0
:1081D00000F09E82274E284D284C01960095154FA1
:1081E00094E80C00FFF7DCF961687868244E081AFF
:1081F000FBF714FD1C4A1168FBF764FDFBF728FF31
:1082000021683B68084A7060C81A92F90010306013
:1082100001293BD0022940F07B82F0E0CA2B0020EC
:10822000722C0020800A0020580D0020E408002055
:10823000800A0020542C0020F80A00209C0A00200C
:10824000806967FF3C09002048090020980A002047
:1082500000007A44242C0020222C00202C2C00200A
:10826000EC0A0020A40A00201C000020020B0020C1
:10827000AC0A0020DC0A0020E80A0020780A00206E
:108280000C0B002080969800E00A002000252C4668
:108290002E46DFF870B28A4F5BF82680DFF86092D6
:1082A0004046FBF7BBFC3968FBF70CFDFBF7D0FE43
:1082B00034F80930834AC01A81B2A1520FB2CDF806
:1082C0000890DFF8449238460397FBF7A7FCD9F8EB
:1082D0000010FBF7F7FCFBF7BBFE7B4983B21420D1
:1082E00000FB0617DFF8FCA1039ADAF8001002EB96
:1082F000080008933A464B46FFF794F9089B5BF851
:108300002610DFF80882DAF800B0181824F8080000
:1083100058460891FBF78AF8D7F808A0CDE9040180
:108320005046FBF783F8694ACDE9060192F8BA0096
:10833000FBF770FCFBF77AF85FA3D3E90023FBF7A8
:10834000C9F802460B4600206149FBF7EDF9DDE96B
:108350000423FAF70DFF02460B46DDE90401FBF7A3
:10836000E3F9089BCDE9040178680136181AFBF798
:1083700055FC5946FBF75AFD5146FBF799FBFBF7B5
:1083800055F802460B46DDE90401FBF7A3F80B465E
:108390000246DDE90601FAF7EBFEFBF735FB089A2A
:1083A000D9F808107A603861B860FBF78BFCFBF7EE
:1083B0004FFE48494FF4FA6206F0C6FADDF808C0ED
:1083C00034F8082034F80C30313399B2622998BF60
:1083D0000020801883B224F808303F4940F6B832B4
:1083E00018B206F0B1FA384928F804004A593B4857
:1083F00002342A501435022E00F08A8149E72F6892
:10840000324D7C08B5F9C080354DA04528BFA04647
:108410002E881FFA88F80FFA88F033B298420BDDE5
:10842000304A31491068FBF74DFCFBF711FE81190A
:108430001FFA81F8A5F800802C4C2D4E2568306875
:108440002C1A2046FFF736FB0028D8BF404241F2E5
:1084500093139842CCBF00200120002858D020461A
:10846000FBF7DCFB2349FBF72DFC0BF08DF80646F0
:108470003846FBF7CFFB01463046FBF723FCFBF702
:10848000E7FD1D4A1449108000B240F6B83206F0EC
:108490005BFA291848F6A045A94203DDA1F50C4175
:1084A000A03904E00029BCBF01F50C41A0311348FC
:1084B00001602FE0AFF30080182D4454FB211940D8
:1084C0004C0A00203809002010090020C026002096
:1084D0000000F03F30F8FFFF48F4FFFFB40A00202F
:1084E000080B0020980A00200000C842DC0A002087
:1084F000F00A0020D302373944090020740A002012
:10850000AC0A00200C0B0020880A0020FA2B002067
:10851000834F3D60824C002523682C46C3F50C50E8
:108520002830FBF77BFB7F49FBF7CCFB07460AF0C3
:10853000B7FF0F9038460BF027F82F460E900EAE7F
:108540000FFA88F0FBF76AFB56F82710FBF7BAFB27
:10855000754A0646105FFBF761FB01463046FBF7A4
:10856000A7FAFBF775FDDFF8FCA14FF47A7224F847
:108570000A006E4900B206F0E7F981B20BB2DFF8EB
:10858000E89124F80A1018460393FBF747FBD9F843
:108590000010FBF797FBFBF75BFD654A142606FB13
:1085A0000726DFF8C8B1039980B2324606904B46E1
:1085B0000846DBF80010FFF735F8DBF800C034F9A7
:1085C0000A3009906046D6F808A00893CDF808C094
:1085D000FAF72CFFCDE904015046FAF727FFDFF840
:1085E00090B1CDE90A019BF8BA00FBF713FBFAF74B
:1085F0001DFF49A3D3E90023FAF76CFF02460B469F
:1086000000204C49FBF790F8DDE90423FAF7B0FDB0
:108610000B460246DDE90401FBF786F8089ACDE92E
:10862000040170680137101AFBF7F8FADDF808C08A
:108630006146FBF7FBFB5146FBF73AFAFAF7F6FE09
:1086400002460B46DDE90401FAF744FF02460B46F9
:10865000DDE90A01FAF78CFDFBF7D6F9089B099AC8
:1086600073603061B060069ED9F80810B618FBF749
:1086700029FBFBF7EDFC30182F4E81B2A15308B255
:1086800040F6B8322D4906F05FF9294B3053EA58CD
:108690002B4802342A501435022F5B467FF44FAF2B
:1086A00093F8BC1031B11E4A64211068254A90FB32
:1086B000F1F010802449B3F8B830086898420DD919
:1086C000224A234B11681868081AFFF7F3F942F29F
:1086D00010720028B8BF4042904219DD1D4B1E4861
:1086E00001211970028817490A8011E01B498A7814
:1086F000522A7FF4D4AACB784D2B7FF4D0AA0879E4
:1087000043287FF4CCAA164A02211170FFF7C7BA9A
:1087100011B0BDE8F08F00BF182D4454FB21194063
:10872000740A0020D3023739AC0A002018FCFFFF7E
:10873000B40A00200000F03FFA2B002048F4FFFFAD
:1087400010090020D02C0020E80A0020DC0A0020BC
:10875000F00A0020580D0020720A0020620A002052
:1087600046090020380900204C090020980A002002
:10877000C0260020AFF300802DE9F84F384E0446A4
:10878000376838460AF08CFE054638460AF0FCFE8B
:108790007668804630460AF083FE834630460AF00B
:1087A000F3FED4F80490064629464846FBF78AFAB9
:1087B000A768824641463846FBF784FA0146504690
:1087C000FBF776F9216882465846FBF77BFA41466B
:1087D00004464846FBF776FA3146FBF773FA014642
:1087E0002046FBF767F9314604463846FBF76AFA3C
:1087F0002946FBF767FA01462046FBF75BF901467D
:1088000050460AF0FFFE1749FBF75CFAFAF70EFE36
:1088100011A3D3E90023FAF787FF134B0446186826
:108820000D46FAF703FE02460B4620462946FAF7A4
:108830009FFC00220D4BFAF777FFFBF7E5F80AF0F3
:1088400065FE81B20A0444BF00F5B47189B208B272
:10885000BDE8F88FAFF30080182D4454FB21094088
:10886000800B00200000E144240B00200000244085
:108870000F4B10B51888FBF7D1F90E490446FBF7EA
:1088800021FAFBF7E5FB0C49088021460B48FBF772
:10889000CDFA0B49FBF7CAFA0A4A10600820FEF726
:1088A00091FC18B1BDE8104003F050B810BD00BFF6
:1088B00046000020C903683F340B00200AE81C4131
:1088C00000401C46382B00202DE9F04F0C688368CF
:1088D00089B0D0F800A0D0F8048006462046039363
:1088E0008B460AF0DDFD074620460AF04DFEDBF818
:1088F0000440814620460AF0D3FD054620460AF092
:1089000043FEDBF808200446104601920AF0C8FD39
:10891000834601980AF038FE394602905846FBF724
:10892000D1F9394604900298FBF7CCF959460590E5
:108930004846FBF7C7F9029906904846FBF7C2F98B
:10894000294607905846FBF7BDF901465046FBF70C
:10895000B9F9214683460698FBF7B4F90146059814
:10896000FBF7A8F801464046FBF7ACF9014658462C
:10897000FBF7A0F8214683460498FBF7A3F90146CC
:108980000798FBF795F801460398FBF79BF901461A
:108990005846FBF78FF83060029905F10040FBF76D
:1089A00091F901465046FBF78DF921468346079819
:1089B000FBF788F901460498FBF77AF80146404630
:1089C000FBF780F901465846FBF774F821468346C9
:1089D0000598FBF777F901460698FBF76BF8014617
:1089E0000398FBF76FF901465846FBF763F82146F9
:1089F00070605046FBF766F92946044609F10040CD
:108A0000FBF760F901464046FBF75CF9014620465A
:108A1000FBF750F8394604462846FBF753F9014660
:108A20000398FBF74FF901462046FBF743F8B06087
:108A300009B0BDE8F08F80EAE073A3EBE0738B42EE
:108A400006DB002801DD401A704702D0401870474D
:108A50000020704700000000F0B5574B87B01A683F
:108A60005B6802F1004203F100430193534B05465A
:108A7000B3F900000092FBF7D1F800F10040FAF7DB
:108A8000D5FC4BA3D3E90023FAF724FDFAF7BCFF8A
:108A90004B4C0290B4F90000FBF7C0F80390B4F916
:108AA0000200FBF7BBF80490B4F90400FBF7B6F83A
:108AB0006946059003A8FFF707FF424B93F83C3047
:108AC000012B16D14048417869B9404C40262268B4
:108AD00092FBF6F7D01BFBF7A1F80599FAF7EAFF2E
